{
  "_format": "hh-sol-artifact-1",
  "contractName": "EchidnaAffiliateProperties",
  "sourceName": "contracts/echidna/EchidnaAffiliateProperties.sol",
  "abi": [
    {
      "inputs": [],
      "stateMutability": "nonpayable",
      "type": "constructor"
    },
    {
      "inputs": [],
      "name": "echidna_affiliate_bps_cap",
      "outputs": [
        {
          "internalType": "bool",
          "name": "",
          "type": "bool"
        }
      ],
      "stateMutability": "view",
      "type": "function"
    },
    {
      "inputs": [],
      "name": "echidna_fee_cap_bound",
      "outputs": [
        {
          "internalType": "bool",
          "name": "",
          "type": "bool"
        }
      ],
      "stateMutability": "view",
      "type": "function"
    },
    {
      "inputs": [],
      "name": "echidna_tvl_non_negative",
      "outputs": [
        {
          "internalType": "bool",
          "name": "",
          "type": "bool"
        }
      ],
      "stateMutability": "view",
      "type": "function"
    },
    {
      "inputs": [],
      "name": "factory",
      "outputs": [
        {
          "internalType": "contract TrudeFactory",
          "name": "",
          "type": "address"
        }
      ],
      "stateMutability": "view",
      "type": "function"
    },
    {
      "inputs": [
        {
          "internalType": "uint16",
          "name": "bps",
          "type": "uint16"
        }
      ],
      "name": "fuzzSetAffiliateShareBps",
      "outputs": [],
      "stateMutability": "nonpayable",
      "type": "function"
    },
    {
      "inputs": [
        {
          "internalType": "uint8",
          "name": "pct",
          "type": "uint8"
        }
      ],
      "name": "fuzzSetMaxFeePercent",
      "outputs": [],
      "stateMutability": "nonpayable",
      "type": "function"
    },
    {
      "inputs": [],
      "name": "usdc",
      "outputs": [
        {
          "internalType": "contract USDCMock",
          "name": "",
          "type": "address"
        }
      ],
      "stateMutability": "view",
      "type": "function"
    },
    {
      "inputs": [],
      "name": "vault",
      "outputs": [
        {
          "internalType": "contract TrudeVault",
          "name": "",
          "type": "address"
        }
      ],
      "stateMutability": "view",
      "type": "function"
    }
  ],
  "bytecode": "0x608060405234801561001057600080fd5b5066038d7ea4c68000604051610025906101d9565b908152602001604051809103906000f080158015610047573d6000803e3d6000fd5b50600280546001600160a01b0319166001600160a01b0392909216919091179055604051610074906101e6565b604051809103906000f080158015610090573d6000803e3d6000fd5b50600080546001600160a01b0319166001600160a01b039290921691821790556040516305e52ecf60e21b815230600482018190526024820152620f42406044820152631794bb3c90606401600060405180830381600087803b1580156100f657600080fd5b505af115801561010a573d6000803e3d6000fd5b50505050600060405161011c906101f3565b604051809103906000f080158015610138573d6000803e3d6000fd5b50600054600254604051637c643b2f60e11b81526001600160a01b03928316600482015290821660248201523060448201819052606482015291925082169063f8c8765e90608401600060405180830381600087803b15801561019a57600080fd5b505af11580156101ae573d6000803e3d6000fd5b5050600180546001600160a01b0319166001600160a01b039490941693909317909255506102009050565b610adc806105d383390190565b613858806110af83390190565b611ed58061490783390190565b6103c48061020f6000396000f3fe608060405234801561001057600080fd5b50600436106100885760003560e01c8063da134c091161005b578063da134c09146100f0578063efdb110114610105578063f797e15414610118578063fbfa77cf1461012057600080fd5b806313ed6f3f1461008d5780633515af07146100aa5780633e413bee146100b2578063c45a0155146100dd575b600080fd5b610095610133565b60405190151581526020015b60405180910390f35b6100956101b4565b6002546100c5906001600160a01b031681565b6040516001600160a01b0390911681526020016100a1565b6000546100c5906001600160a01b031681565b6101036100fe366004610327565b61022b565b005b610103610113366004610351565b61029b565b6100956102dc565b6001546100c5906001600160a01b031681565b600080600160009054906101000a90046001600160a01b03166001600160a01b031663ec18154e6040518163ffffffff1660e01b8152600401602060405180830381865afa158015610189573d6000803e3d6000fd5b505050506040513d601f19601f820116820180604052508101906101ad9190610375565b1015905090565b6000805460408051635b4079c960e01b81529051612710926001600160a01b031691635b4079c99160048083019260209291908290030181865afa158015610200573d6000803e3d6000fd5b505050506040513d601f19601f820116820180604052508101906102249190610375565b1115905090565b60648160ff16116102985760005460405163f518fbdd60e01b815260ff831660048201526001600160a01b039091169063f518fbdd906024015b600060405180830381600087803b15801561027f57600080fd5b505af1158015610293573d6000803e3d6000fd5b505050505b50565b6127108161ffff161161029857600054604051633c15987360e11b815261ffff831660048201526001600160a01b039091169063782b30e690602401610265565b600080546040805163d830a05b60e01b815290516064926001600160a01b03169163d830a05b9160048083019260209291908290030181865afa158015610200573d6000803e3d6000fd5b60006020828403121561033957600080fd5b813560ff8116811461034a57600080fd5b9392505050565b60006020828403121561036357600080fd5b813561ffff8116811461034a57600080fd5b60006020828403121561038757600080fd5b505191905056fea26469706673582212205d4fac09e38bdb955a170b4e33b70d09856c5177cfe2d2f24231884a9c6f73ba64736f6c63430008190033608060405234801561001057600080fd5b50604051610adc380380610adc83398101604081905261002f9161020b565b604051806040016040528060088152602001672aa9a21021b7b4b760c11b815250604051806040016040528060048152602001635553444360e01b815250816003908161007c91906102c5565b50600461008982826102c5565b50505061009c33826100a260201b60201c565b506103ab565b6001600160a01b0382166100d15760405163ec442f0560e01b8152600060048201526024015b60405180910390fd5b6100dd600083836100e1565b5050565b6001600160a01b03831661010c5780600260008282546101019190610384565b9091555061017e9050565b6001600160a01b0383166000908152602081905260409020548181101561015f5760405163391434e360e21b81526001600160a01b038516600482015260248101829052604481018390526064016100c8565b6001600160a01b03841660009081526020819052604090209082900390555b6001600160a01b03821661019a576002805482900390556101b9565b6001600160a01b03821660009081526020819052604090208054820190555b816001600160a01b0316836001600160a01b03167fddf252ad1be2c89b69c2b068fc378daa952ba7f163c4a11628f55a4df523b3ef836040516101fe91815260200190565b60405180910390a3505050565b60006020828403121561021d57600080fd5b5051919050565b634e487b7160e01b600052604160045260246000fd5b600181811c9082168061024e57607f821691505b60208210810361026e57634e487b7160e01b600052602260045260246000fd5b50919050565b601f8211156102c0576000816000526020600020601f850160051c8101602086101561029d5750805b601f850160051c820191505b818110156102bc578281556001016102a9565b5050505b505050565b81516001600160401b038111156102de576102de610224565b6102f2816102ec845461023a565b84610274565b602080601f831160018114610327576000841561030f5750858301515b600019600386901b1c1916600185901b1785556102bc565b600085815260208120601f198616915b8281101561035657888601518255948401946001909101908401610337565b50858210156103745787850151600019600388901b60f8161c191681555b5050505050600190811b01905550565b808201808211156103a557634e487b7160e01b600052601160045260246000fd5b92915050565b610722806103ba6000396000f3fe608060405234801561001057600080fd5b50600436106100935760003560e01c8063313ce56711610066578063313ce567146100fe57806370a082311461010d57806395d89b4114610136578063a9059cbb1461013e578063dd62ed3e1461015157600080fd5b806306fdde0314610098578063095ea7b3146100b657806318160ddd146100d957806323b872dd146100eb575b600080fd5b6100a061018a565b6040516100ad919061056b565b60405180910390f35b6100c96100c43660046105d6565b61021c565b60405190151581526020016100ad565b6002545b6040519081526020016100ad565b6100c96100f9366004610600565b610236565b604051600681526020016100ad565b6100dd61011b36600461063c565b6001600160a01b031660009081526020819052604090205490565b6100a061025a565b6100c961014c3660046105d6565b610269565b6100dd61015f36600461065e565b6001600160a01b03918216600090815260016020908152604080832093909416825291909152205490565b60606003805461019990610691565b80601f01602080910402602001604051908101604052809291908181526020018280546101c590610691565b80156102125780601f106101e757610100808354040283529160200191610212565b820191906000526020600020905b8154815290600101906020018083116101f557829003601f168201915b5050505050905090565b60003361022a818585610277565b60019150505b92915050565b600033610244858285610289565b61024f85858561030d565b506001949350505050565b60606004805461019990610691565b60003361022a81858561030d565b610284838383600161036c565b505050565b6001600160a01b0383811660009081526001602090815260408083209386168352929052205460001981101561030757818110156102f857604051637dc7a0d960e11b81526001600160a01b038416600482015260248101829052604481018390526064015b60405180910390fd5b6103078484848403600061036c565b50505050565b6001600160a01b03831661033757604051634b637e8f60e11b8152600060048201526024016102ef565b6001600160a01b0382166103615760405163ec442f0560e01b8152600060048201526024016102ef565b610284838383610441565b6001600160a01b0384166103965760405163e602df0560e01b8152600060048201526024016102ef565b6001600160a01b0383166103c057604051634a1406b160e11b8152600060048201526024016102ef565b6001600160a01b038085166000908152600160209081526040808320938716835292905220829055801561030757826001600160a01b0316846001600160a01b03167f8c5be1e5ebec7d5bd14f71427d1e84f3dd0314c0f7b2291e5b200ac8c7c3b9258460405161043391815260200190565b60405180910390a350505050565b6001600160a01b03831661046c57806002600082825461046191906106cb565b909155506104de9050565b6001600160a01b038316600090815260208190526040902054818110156104bf5760405163391434e360e21b81526001600160a01b038516600482015260248101829052604481018390526064016102ef565b6001600160a01b03841660009081526020819052604090209082900390555b6001600160a01b0382166104fa57600280548290039055610519565b6001600160a01b03821660009081526020819052604090208054820190555b816001600160a01b0316836001600160a01b03167fddf252ad1be2c89b69c2b068fc378daa952ba7f163c4a11628f55a4df523b3ef8360405161055e91815260200190565b60405180910390a3505050565b60006020808352835180602085015260005b818110156105995785810183015185820160400152820161057d565b506000604082860101526040601f19601f8301168501019250505092915050565b80356001600160a01b03811681146105d157600080fd5b919050565b600080604083850312156105e957600080fd5b6105f2836105ba565b946020939093013593505050565b60008060006060848603121561061557600080fd5b61061e846105ba565b925061062c602085016105ba565b9150604084013590509250925092565b60006020828403121561064e57600080fd5b610657826105ba565b9392505050565b6000806040838503121561067157600080fd5b61067a836105ba565b9150610688602084016105ba565b90509250929050565b600181811c908216806106a557607f821691505b6020821081036106c557634e487b7160e01b600052602260045260246000fd5b50919050565b8082018082111561023057634e487b7160e01b600052601160045260246000fdfea264697066735822122037c6376dd2fe82b94ac83983bd5edc95c71282707519a2e63874284bd1a7961e64736f6c6343000819003360a060405230608052348015601357600080fd5b5060805161380d61004b600039600081816106ff0152818161073f015281816108130152818161085301526108e6015261380d6000f3fe6080604052600436106101815760003560e01c8063782b30e6116100d1578063a46102fa1161008a578063d830a05b11610064578063d830a05b14610450578063d8e2494714610466578063f2fde38b14610486578063f518fbdd146104a657600080fd5b8063a46102fa146103f0578063b4bd6f4614610410578063bfcdd2831461043057600080fd5b8063782b30e6146103265780638456cb59146103465780638da5cb5b1461035b5780638e0b6448146103795780638fcc9cfb146103b057806399c8fa4e146103d057600080fd5b80634f1ef2861161013e5780635b4079c9116101185780635b4079c9146102a65780635c975abb146102bc578063652b9b41146102e0578063715018a61461031157600080fd5b80634f1ef2861461025e57806352d1902d1461027157806356397c351461028657600080fd5b80631794bb3c146101865780633246887d146101a85780633659cfe6146101c85780633f0a616e146101e85780633f4ba83a1461022557806341b3d1851461023a575b600080fd5b34801561019257600080fd5b506101a66101a13660046115a7565b6104c6565b005b3480156101b457600080fd5b506101a66101c33660046115e3565b610671565b3480156101d457600080fd5b506101a66101e33660046115e3565b6106f5565b3480156101f457600080fd5b5060fc54610208906001600160a01b031681565b6040516001600160a01b0390911681526020015b60405180910390f35b34801561023157600080fd5b506101a66107d4565b34801561024657600080fd5b5061025060fd5481565b60405190815260200161021c565b6101a661026c366004611614565b610809565b34801561027d57600080fd5b506102506108d9565b34801561029257600080fd5b5060fb54610208906001600160a01b031681565b3480156102b257600080fd5b5061025060fe5481565b3480156102c857600080fd5b5060655460ff165b604051901515815260200161021c565b3480156102ec57600080fd5b506102d06102fb3660046115e3565b6101016020526000908152604090205460ff1681565b34801561031d57600080fd5b506101a661098c565b34801561033257600080fd5b506101a66103413660046116d6565b61099e565b34801561035257600080fd5b506101a66109fe565b34801561036757600080fd5b506033546001600160a01b0316610208565b34801561038557600080fd5b506102086103943660046115e3565b610100602052600090815260409020546001600160a01b031681565b3480156103bc57600080fd5b506101a66103cb3660046116d6565b610a31565b3480156103dc57600080fd5b506101a66103eb3660046115a7565b610a6e565b3480156103fc57600080fd5b506101a661040b3660046116ef565b610b1f565b34801561041c57600080fd5b5061020861042b3660046115e3565b610bf4565b34801561043c57600080fd5b506101a661044b366004611722565b610d37565b34801561045c57600080fd5b5061025060ff5481565b34801561047257600080fd5b506101a66104813660046115e3565b610de3565b34801561049257600080fd5b506101a66104a13660046115e3565b610e34565b3480156104b257600080fd5b506101a66104c13660046116d6565b610eaa565b600054610100900460ff16158080156104e65750600054600160ff909116105b806105005750303b158015610500575060005460ff166001145b6105685760405162461bcd60e51b815260206004820152602e60248201527f496e697469616c697a61626c653a20636f6e747261637420697320616c72656160448201526d191e481a5b9a5d1a585b1a5e995960921b60648201526084015b60405180910390fd5b6000805460ff19166001179055801561058b576000805461ff0019166101001790555b610593610f09565b61059c84610e34565b6105a4610f38565b6105ac610f67565b6001600160a01b0383166105d357604051634212e4c160e11b815260040160405180910390fd5b6001600160a01b0384166105fa57604051639905827b60e01b815260040160405180910390fd5b60fb80546001600160a01b0319166001600160a01b03851617905560fd82905561138860fe55601460ff55801561066b576000805461ff0019169055604051600181527f7f26b83ff96e1f2b6a682f133852f6798a09c465da95921460cefb38474024989060200160405180910390a15b50505050565b610679610f8e565b6001600160a01b0381166106a05760405163d92e233d60e01b815260040160405180910390fd5b60fb80546001600160a01b0319166001600160a01b0383169081179091556040519081527f842077a807f115575d3fc6fb5f72114e8dc163c6213e067f9a6acd7130648804906020015b60405180910390a150565b6001600160a01b037f000000000000000000000000000000000000000000000000000000000000000016300361073d5760405162461bcd60e51b815260040161055f9061174c565b7f00000000000000000000000000000000000000000000000000000000000000006001600160a01b0316610786600080516020613791833981519152546001600160a01b031690565b6001600160a01b0316146107ac5760405162461bcd60e51b815260040161055f90611798565b6107b581610fe8565b604080516000808252602082019092526107d191839190610ff0565b50565b60fb546001600160a01b031633146107ff5760405163ea8e4eb560e01b815260040160405180910390fd5b610807611160565b565b6001600160a01b037f00000000000000000000000000000000000000000000000000000000000000001630036108515760405162461bcd60e51b815260040161055f9061174c565b7f00000000000000000000000000000000000000000000000000000000000000006001600160a01b031661089a600080516020613791833981519152546001600160a01b031690565b6001600160a01b0316146108c05760405162461bcd60e51b815260040161055f90611798565b6108c982610fe8565b6108d582826001610ff0565b5050565b6000306001600160a01b037f000000000000000000000000000000000000000000000000000000000000000016146109795760405162461bcd60e51b815260206004820152603860248201527f555550535570677261646561626c653a206d757374206e6f742062652063616c60448201527f6c6564207468726f7567682064656c656761746563616c6c0000000000000000606482015260840161055f565b5060008051602061379183398151915290565b610994610f8e565b61080760006111b2565b6109a6610f8e565b6127108111156109c95760405163c6cc5d7f60e01b815260040160405180910390fd5b60fe8190556040518181527f719d29686a319696360c611b9cbb2649b50882dff7fac482f9020391843dbeba906020016106ea565b60fb546001600160a01b03163314610a295760405163ea8e4eb560e01b815260040160405180910390fd5b610807611204565b610a39610f8e565b60fd8190556040518181527f96a008f96f1c0ab9fa3d9ddd43cdfc614848c4d054d51f43662ed900e9d094c8906020016106ea565b610a76610f8e565b610a7e611241565b6001600160a01b0383166000908152610101602052604090205460ff16610ab8576040516362df054560e01b815260040160405180910390fd5b60405163ad4fc0b760e01b81526001600160a01b0383811660048301526024820183905284169063ad4fc0b790604401600060405180830381600087803b158015610b0257600080fd5b505af1158015610b16573d6000803e3d6000fd5b50505050505050565b610b27611241565b6001600160a01b0382161580610b4457506001600160a01b038116155b15610b625760405163d92e233d60e01b815260040160405180910390fd5b6001600160a01b03828116600090815261010060205260409020541615610b9c57604051630ea075bf60e21b815260040160405180910390fd5b6001600160a01b038281166000818152610100602052604080822080546001600160a01b0319169486169485179055517f64e46c273142dc0721ffb916253b218a09a845fd9ea329323097e7e611252ca79190a35050565b6000610bfe611241565b6001600160a01b038216610c255760405163ad1991f560e01b815260040160405180910390fd5b6000604051610c3390611583565b604051809103906000f080158015610c4f573d6000803e3d6000fd5b5090506000610c666033546001600160a01b031690565b60fb54604051637c643b2f60e11b81523060048201526001600160a01b0387811660248301528084166044830152918216606482018190529293509084169063f8c8765e90608401600060405180830381600087803b158015610cc857600080fd5b505af1158015610cdc573d6000803e3d6000fd5b5050506001600160a01b03841660008181526101016020526040808220805460ff19166001179055513393507f5d9c31ffa0fecffd7cf379989a3c7af252f0335e0d2a1320b55245912c781f539190a350909150505b919050565b336000908152610101602052604090205460ff16610d68576040516362df054560e01b815260040160405180910390fd5b60fc546001600160a01b0316156108d55760fc5460405163bfcdd28360e01b81526001600160a01b038481166004830152602482018490529091169063bfcdd28390604401600060405180830381600087803b158015610dc757600080fd5b505af1158015610ddb573d6000803e3d6000fd5b505050505050565b610deb610f8e565b6001600160a01b038116610e125760405163d92e233d60e01b815260040160405180910390fd5b60fc80546001600160a01b0319166001600160a01b0392909216919091179055565b610e3c610f8e565b6001600160a01b038116610ea15760405162461bcd60e51b815260206004820152602660248201527f4f776e61626c653a206e6577206f776e657220697320746865207a65726f206160448201526564647265737360d01b606482015260840161055f565b6107d1816111b2565b610eb2610f8e565b6064811115610ed457604051635c974e3d60e11b815260040160405180910390fd5b60ff8190556040518181527f5d46f46c0e5b2045e0cb8c00367d35d9f3f1fc035950ac8f5c675f6c0a791ba0906020016106ea565b600054610100900460ff16610f305760405162461bcd60e51b815260040161055f906117e4565b610807611287565b600054610100900460ff16610f5f5760405162461bcd60e51b815260040161055f906117e4565b6108076112b7565b600054610100900460ff166108075760405162461bcd60e51b815260040161055f906117e4565b6033546001600160a01b031633146108075760405162461bcd60e51b815260206004820181905260248201527f4f776e61626c653a2063616c6c6572206973206e6f7420746865206f776e6572604482015260640161055f565b6107d1610f8e565b7f4910fdfa16fed3260ed0e7147f7cc6da11a60208b5b9406d12a635614ffd91435460ff161561102857611023836112ea565b505050565b826001600160a01b03166352d1902d6040518163ffffffff1660e01b8152600401602060405180830381865afa925050508015611082575060408051601f3d908101601f1916820190925261107f9181019061182f565b60015b6110e55760405162461bcd60e51b815260206004820152602e60248201527f45524331393637557067726164653a206e657720696d706c656d656e7461746960448201526d6f6e206973206e6f74205555505360901b606482015260840161055f565b60008051602061379183398151915281146111545760405162461bcd60e51b815260206004820152602960248201527f45524331393637557067726164653a20756e737570706f727465642070726f786044820152681a58589b195555525160ba1b606482015260840161055f565b50611023838383611386565b6111686113ab565b6065805460ff191690557f5db9ee0a495bf2e6ff9c91a7834c1ba4fdd244a5e8aa4e537bd38aeae4b073aa335b6040516001600160a01b03909116815260200160405180910390a1565b603380546001600160a01b038381166001600160a01b0319831681179093556040519116919082907f8be0079c531659141344cd1fd0a4f28419497f9722a3daafe3b4186f6b6457e090600090a35050565b61120c611241565b6065805460ff191660011790557f62e78cea01bee320cd4e420270b5ea74000d11b0c9f74754ebdbfc544b05a2586111953390565b60655460ff16156108075760405162461bcd60e51b815260206004820152601060248201526f14185d5cd8589b194e881c185d5cd95960821b604482015260640161055f565b600054610100900460ff166112ae5760405162461bcd60e51b815260040161055f906117e4565b610807336111b2565b600054610100900460ff166112de5760405162461bcd60e51b815260040161055f906117e4565b6065805460ff19169055565b6001600160a01b0381163b6113575760405162461bcd60e51b815260206004820152602d60248201527f455243313936373a206e657720696d706c656d656e746174696f6e206973206e60448201526c1bdd08184818dbdb9d1c9858dd609a1b606482015260840161055f565b60008051602061379183398151915280546001600160a01b0319166001600160a01b0392909216919091179055565b61138f836113f4565b60008251118061139c5750805b156110235761066b8383611434565b60655460ff166108075760405162461bcd60e51b815260206004820152601460248201527314185d5cd8589b194e881b9bdd081c185d5cd95960621b604482015260640161055f565b6113fd816112ea565b6040516001600160a01b038216907fbc7cd75a20ee27fd9adebab32041f755214dbc6bffa90cc0225b39da2e5c2d3b90600090a250565b606061145983836040518060600160405280602781526020016137b160279139611460565b9392505050565b6060600080856001600160a01b03168560405161147d919061186c565b600060405180830381855af49150503d80600081146114b8576040519150601f19603f3d011682016040523d82523d6000602084013e6114bd565b606091505b50915091506114ce868383876114d8565b9695505050505050565b60608315611547578251600003611540576001600160a01b0385163b6115405760405162461bcd60e51b815260206004820152601d60248201527f416464726573733a2063616c6c20746f206e6f6e2d636f6e7472616374000000604482015260640161055f565b5081611551565b6115518383611559565b949350505050565b8151156115695781518083602001fd5b8060405162461bcd60e51b815260040161055f9190611888565b611ed5806118bc83390190565b80356001600160a01b0381168114610d3257600080fd5b6000806000606084860312156115bc57600080fd5b6115c584611590565b92506115d360208501611590565b9150604084013590509250925092565b6000602082840312156115f557600080fd5b61145982611590565b634e487b7160e01b600052604160045260246000fd5b6000806040838503121561162757600080fd5b61163083611590565b9150602083013567ffffffffffffffff8082111561164d57600080fd5b818501915085601f83011261166157600080fd5b813581811115611673576116736115fe565b604051601f8201601f19908116603f0116810190838211818310171561169b5761169b6115fe565b816040528281528860208487010111156116b457600080fd5b8260208601602083013760006020848301015280955050505050509250929050565b6000602082840312156116e857600080fd5b5035919050565b6000806040838503121561170257600080fd5b61170b83611590565b915061171960208401611590565b90509250929050565b6000806040838503121561173557600080fd5b61173e83611590565b946020939093013593505050565b6020808252602c908201527f46756e6374696f6e206d7573742062652063616c6c6564207468726f7567682060408201526b19195b1959d85d1958d85b1b60a21b606082015260800190565b6020808252602c908201527f46756e6374696f6e206d7573742062652063616c6c6564207468726f7567682060408201526b6163746976652070726f787960a01b606082015260800190565b6020808252602b908201527f496e697469616c697a61626c653a20636f6e7472616374206973206e6f74206960408201526a6e697469616c697a696e6760a81b606082015260800190565b60006020828403121561184157600080fd5b5051919050565b60005b8381101561186357818101518382015260200161184b565b50506000910152565b6000825161187e818460208701611848565b9190910192915050565b60208152600082518060208401526118a7816040850160208701611848565b601f01601f1916919091016040019291505056fe60a060405230608052348015601357600080fd5b50608051611e8a61004b6000396000818161046c015281816104b5015281816105a3015281816105e301526106760152611e8a6000f3fe6080604052600436106101355760003560e01c8063959499b6116100ab578063cc85f0801161006f578063cc85f08014610329578063d95b0a1214610357578063ec18154e14610377578063f2fde38b1461038e578063f8c8765e146103ae578063fc0c546a146103ce57600080fd5b8063959499b61461029357806395ccea67146102a8578063ad4fc0b7146102c8578063b6b55f25146102e8578063c45a01551461030857600080fd5b806352d1902d116100fd57806352d1902d146101da57806356397c35146101ef5780635c975abb14610228578063715018a61461024b5780638456cb59146102605780638da5cb5b1461027557600080fd5b806301e1d1141461013a57806327e235e3146101625780633659cfe6146101905780633f4ba83a146101b25780634f1ef286146101c7575b600080fd5b34801561014657600080fd5b5061014f6103ef565b6040519081526020015b60405180910390f35b34801561016e57600080fd5b5061014f61017d366004611a54565b6101316020526000908152604090205481565b34801561019c57600080fd5b506101b06101ab366004611a54565b610462565b005b3480156101be57600080fd5b506101b061054a565b6101b06101d5366004611a87565b610599565b3480156101e657600080fd5b5061014f610669565b3480156101fb57600080fd5b5061012f54610210906001600160a01b031681565b6040516001600160a01b039091168152602001610159565b34801561023457600080fd5b5060335460ff166040519015158152602001610159565b34801561025757600080fd5b506101b061071c565b34801561026c57600080fd5b506101b061072e565b34801561028157600080fd5b5060fb546001600160a01b0316610210565b34801561029f57600080fd5b506101b061077b565b3480156102b457600080fd5b506101b06102c3366004611b4b565b610a62565b3480156102d457600080fd5b506101b06102e3366004611b4b565b610b02565b3480156102f457600080fd5b506101b0610303366004611b77565b610bd5565b34801561031457600080fd5b5061012d54610210906001600160a01b031681565b34801561033557600080fd5b5061014f610344366004611a54565b6101326020526000908152604090205481565b34801561036357600080fd5b506101b0610372366004611b77565b610d54565b34801561038357600080fd5b5061014f6101305481565b34801561039a57600080fd5b506101b06103a9366004611a54565b610ed0565b3480156103ba57600080fd5b506101b06103c9366004611b90565b610f46565b3480156103da57600080fd5b5061012e54610210906001600160a01b031681565b61012e546040516370a0823160e01b81523060048201526000916001600160a01b0316906370a0823190602401602060405180830381865afa158015610439573d6000803e3d6000fd5b505050506040513d601f19601f8201168201806040525081019061045d9190611bec565b905090565b6001600160a01b037f00000000000000000000000000000000000000000000000000000000000000001630036104b35760405162461bcd60e51b81526004016104aa90611c05565b60405180910390fd5b7f00000000000000000000000000000000000000000000000000000000000000006001600160a01b03166104fc600080516020611e0e833981519152546001600160a01b031690565b6001600160a01b0316146105225760405162461bcd60e51b81526004016104aa90611c51565b61052b8161111e565b6040805160008082526020820190925261054791839190611126565b50565b60fb546001600160a01b03163314801590610571575061012f546001600160a01b03163314155b1561058f5760405163ea8e4eb560e01b815260040160405180910390fd5b610597611296565b565b6001600160a01b037f00000000000000000000000000000000000000000000000000000000000000001630036105e15760405162461bcd60e51b81526004016104aa90611c05565b7f00000000000000000000000000000000000000000000000000000000000000006001600160a01b031661062a600080516020611e0e833981519152546001600160a01b031690565b6001600160a01b0316146106505760405162461bcd60e51b81526004016104aa90611c51565b6106598261111e565b61066582826001611126565b5050565b6000306001600160a01b037f000000000000000000000000000000000000000000000000000000000000000016146107095760405162461bcd60e51b815260206004820152603860248201527f555550535570677261646561626c653a206d757374206e6f742062652063616c60448201527f6c6564207468726f7567682064656c656761746563616c6c000000000000000060648201526084016104aa565b50600080516020611e0e83398151915290565b6107246112e8565b6105976000611342565b60fb546001600160a01b03163314801590610755575061012f546001600160a01b03163314155b156107735760405163ea8e4eb560e01b815260040160405180910390fd5b610597611394565b6107836113d1565b61078b611417565b3360009081526101326020526040812054908190036107bd576040516371cd57f760e11b815260040160405180910390fd5b3360009081526101326020526040812081905561012d5461012e546001600160a01b03918216929116906107f18484611470565b9050600060646108018387611cb3565b61080b9190611cca565b905060006108198287611cec565b6040516311c16c8960e31b81523360048201529091506000906001600160a01b03871690638e0b644890602401602060405180830381865afa158015610863573d6000803e3d6000fd5b505050506040513d601f19601f820116820180604052508101906108879190611cff565b90506001600160a01b03811615610998576000866001600160a01b0316635b4079c96040518163ffffffff1660e01b8152600401602060405180830381865afa1580156108d8573d6000803e3d6000fd5b505050506040513d601f19601f820116820180604052508101906108fc9190611bec565b9050600061271061090d8387611cb3565b6109179190611cca565b905061092d6001600160a01b0388168483611552565b60405163bfcdd28360e01b81526001600160a01b0384811660048301526024820183905289169063bfcdd28390604401600060405180830381600087803b15801561097757600080fd5b505af1925050508015610988575060015b506109938186611cec565b945050505b60006109ac60fb546001600160a01b031690565b90506109c26001600160a01b0387168286611552565b6109d66001600160a01b0387163385611552565b610130546109e48982611cec565b61013055604080518581526020810187905233917ff279e6a1f5e320cca91135676d9cb6e44ca8a08c0b88342bcdb1144f6511b568910160405180910390a261013054604080518381526020810192909252600080516020611dee833981519152910160405180910390a15050505050505050506105976001606555565b610a6a6115b8565b610a726112e8565b6001600160a01b038216610a995760405163d92e233d60e01b815260040160405180910390fd5b61012e54610ab1906001600160a01b03168383611552565b6101305481811015610ac4576000610ace565b610ace8282611cec565b610130819055604080518381526020810192909252600080516020611dee83398151915291015b60405180910390a1505050565b61012d546001600160a01b03163314610b2e57604051631966391b60e11b815260040160405180910390fd5b6001600160a01b0382166000908152610132602052604081208054839290610b57908490611d1c565b909155505061013054610b6a8282611d1c565b610130556040518281526001600160a01b038416907f4090b754027c4095648ced2461cd86dadab1b444745a3e79c68ddd9596750eb89060200160405180910390a261013054604080518381526020810192909252600080516020611dee8339815191529101610af5565b610bdd6113d1565b610be5611417565b80600003610c0657604051631f2a200560e01b815260040160405180910390fd5b61012d54604080516341b3d18560e01b815290516001600160a01b039092169182916341b3d1859160048083019260209291908290030181865afa158015610c52573d6000803e3d6000fd5b505050506040513d601f19601f82011682018060405250810190610c769190611bec565b821015610c96576040516310906acb60e01b815260040160405180910390fd5b61012e546001600160a01b0316610caf81333086611601565b336000908152610131602052604081208054859290610ccf908490611d1c565b909155505061013054610ce28482611d1c565b6101305560405184815233907fe1fffcc4923d04b559f4d29a8bfc6cda04eb5b0d3c460751c2402c5c5cc9109c9060200160405180910390a261013054604080518381526020810192909252600080516020611dee833981519152910160405180910390a15050506105476001606555565b610d5c611417565b80600003610d7d57604051631f2a200560e01b815260040160405180910390fd5b336000908152610131602052604090205481811015610daf57604051631e9acf1760e31b815260040160405180910390fd5b610db98282611cec565b3360009081526101316020526040812091909155612710610ddb84600a611cb3565b610de59190611cca565b90506000610df38285611cec565b61012e549091506001600160a01b03166000610e1760fb546001600160a01b031690565b90508315610e3357610e336001600160a01b0383168286611552565b610e476001600160a01b0383163385611552565b61013054610e558782611cec565b61013055604080518881526020810187905233917f97224a9c7c8857253aafe6579ed154b2beae77578325f10d9a27cc2b5c7cb03b910160405180910390a261013054604080518381526020810192909252600080516020611dee833981519152910160405180910390a15050505050506105476001606555565b610ed86112e8565b6001600160a01b038116610f3d5760405162461bcd60e51b815260206004820152602660248201527f4f776e61626c653a206e6577206f776e657220697320746865207a65726f206160448201526564647265737360d01b60648201526084016104aa565b61054781611342565b600054610100900460ff1615808015610f665750600054600160ff909116105b80610f805750303b158015610f80575060005460ff166001145b610fe35760405162461bcd60e51b815260206004820152602e60248201527f496e697469616c697a61626c653a20636f6e747261637420697320616c72656160448201526d191e481a5b9a5d1a585b1a5e995960921b60648201526084016104aa565b6000805460ff191660011790558015611006576000805461ff0019166101001790555b61100e611640565b61101783610ed0565b61101f61166f565b61102761169e565b61102f6116cd565b6001600160a01b038516158061104c57506001600160a01b038216155b1561106a5760405163d92e233d60e01b815260040160405180910390fd5b6001600160a01b0384166110915760405163ad1991f560e01b815260040160405180910390fd5b61012d80546001600160a01b038088166001600160a01b03199283161790925561012e805487841690831617905561012f8054928516929091169190911790558015611117576000805461ff0019169055604051600181527f7f26b83ff96e1f2b6a682f133852f6798a09c465da95921460cefb38474024989060200160405180910390a15b5050505050565b6105476112e8565b7f4910fdfa16fed3260ed0e7147f7cc6da11a60208b5b9406d12a635614ffd91435460ff161561115e57611159836116f4565b505050565b826001600160a01b03166352d1902d6040518163ffffffff1660e01b8152600401602060405180830381865afa9250505080156111b8575060408051601f3d908101601f191682019092526111b591810190611bec565b60015b61121b5760405162461bcd60e51b815260206004820152602e60248201527f45524331393637557067726164653a206e657720696d706c656d656e7461746960448201526d6f6e206973206e6f74205555505360901b60648201526084016104aa565b600080516020611e0e833981519152811461128a5760405162461bcd60e51b815260206004820152602960248201527f45524331393637557067726164653a20756e737570706f727465642070726f786044820152681a58589b195555525160ba1b60648201526084016104aa565b50611159838383611790565b61129e6115b8565b6033805460ff191690557f5db9ee0a495bf2e6ff9c91a7834c1ba4fdd244a5e8aa4e537bd38aeae4b073aa335b6040516001600160a01b03909116815260200160405180910390a1565b60fb546001600160a01b031633146105975760405162461bcd60e51b815260206004820181905260248201527f4f776e61626c653a2063616c6c6572206973206e6f7420746865206f776e657260448201526064016104aa565b60fb80546001600160a01b038381166001600160a01b0319831681179093556040519116919082907f8be0079c531659141344cd1fd0a4f28419497f9722a3daafe3b4186f6b6457e090600090a35050565b61139c6113d1565b6033805460ff191660011790557f62e78cea01bee320cd4e420270b5ea74000d11b0c9f74754ebdbfc544b05a2586112cb3390565b60335460ff16156105975760405162461bcd60e51b815260206004820152601060248201526f14185d5cd8589b194e881c185d5cd95960821b60448201526064016104aa565b6002606554036114695760405162461bcd60e51b815260206004820152601f60248201527f5265656e7472616e637947756172643a207265656e7472616e742063616c6c0060448201526064016104aa565b6002606555565b600080670de0b6b3a7640000841161148a575060016114d1565b69d3c21bcecceda100000084106114a3575060146114d1565b69d3c21bcecceda10000006114b9856013611cb3565b6114c39190611cca565b6114ce906001611d1c565b90505b6000836001600160a01b031663d830a05b6040518163ffffffff1660e01b8152600401602060405180830381865afa158015611511573d6000803e3d6000fd5b505050506040513d601f19601f820116820180604052508101906115359190611bec565b90508082111561154857915061154c9050565b5090505b92915050565b6040516001600160a01b0383811660248301526044820183905261115991859182169063a9059cbb906064015b604051602081830303815290604052915060e01b6020820180516001600160e01b0383818316178352505050506117b5565b6001606555565b60335460ff166105975760405162461bcd60e51b815260206004820152601460248201527314185d5cd8589b194e881b9bdd081c185d5cd95960621b60448201526064016104aa565b6040516001600160a01b03848116602483015283811660448301526064820183905261163a9186918216906323b872dd9060840161157f565b50505050565b600054610100900460ff166116675760405162461bcd60e51b81526004016104aa90611d2f565b610597611826565b600054610100900460ff166116965760405162461bcd60e51b81526004016104aa90611d2f565b610597611856565b600054610100900460ff166116c55760405162461bcd60e51b81526004016104aa90611d2f565b610597611889565b600054610100900460ff166105975760405162461bcd60e51b81526004016104aa90611d2f565b6001600160a01b0381163b6117615760405162461bcd60e51b815260206004820152602d60248201527f455243313936373a206e657720696d706c656d656e746174696f6e206973206e60448201526c1bdd08184818dbdb9d1c9858dd609a1b60648201526084016104aa565b600080516020611e0e83398151915280546001600160a01b0319166001600160a01b0392909216919091179055565b611799836118b0565b6000825111806117a65750805b156111595761163a83836118f0565b600080602060008451602086016000885af1806117d8576040513d6000823e3d81fd5b50506000513d915081156117f05780600114156117fd565b6001600160a01b0384163b155b1561163a57604051635274afe760e01b81526001600160a01b03851660048201526024016104aa565b600054610100900460ff1661184d5760405162461bcd60e51b81526004016104aa90611d2f565b61059733611342565b600054610100900460ff1661187d5760405162461bcd60e51b81526004016104aa90611d2f565b6033805460ff19169055565b600054610100900460ff166115b15760405162461bcd60e51b81526004016104aa90611d2f565b6118b9816116f4565b6040516001600160a01b038216907fbc7cd75a20ee27fd9adebab32041f755214dbc6bffa90cc0225b39da2e5c2d3b90600090a250565b60606119158383604051806060016040528060278152602001611e2e6027913961191c565b9392505050565b6060600080856001600160a01b0316856040516119399190611d9e565b600060405180830381855af49150503d8060008114611974576040519150601f19603f3d011682016040523d82523d6000602084013e611979565b606091505b509150915061198a86838387611994565b9695505050505050565b60608315611a035782516000036119fc576001600160a01b0385163b6119fc5760405162461bcd60e51b815260206004820152601d60248201527f416464726573733a2063616c6c20746f206e6f6e2d636f6e747261637400000060448201526064016104aa565b5081611a0d565b611a0d8383611a15565b949350505050565b815115611a255781518083602001fd5b8060405162461bcd60e51b81526004016104aa9190611dba565b6001600160a01b038116811461054757600080fd5b600060208284031215611a6657600080fd5b813561191581611a3f565b634e487b7160e01b600052604160045260246000fd5b60008060408385031215611a9a57600080fd5b8235611aa581611a3f565b9150602083013567ffffffffffffffff80821115611ac257600080fd5b818501915085601f830112611ad657600080fd5b813581811115611ae857611ae8611a71565b604051601f8201601f19908116603f01168101908382118183101715611b1057611b10611a71565b81604052828152886020848701011115611b2957600080fd5b8260208601602083013760006020848301015280955050505050509250929050565b60008060408385031215611b5e57600080fd5b8235611b6981611a3f565b946020939093013593505050565b600060208284031215611b8957600080fd5b5035919050565b60008060008060808587031215611ba657600080fd5b8435611bb181611a3f565b93506020850135611bc181611a3f565b92506040850135611bd181611a3f565b91506060850135611be181611a3f565b939692955090935050565b600060208284031215611bfe57600080fd5b5051919050565b6020808252602c908201527f46756e6374696f6e206d7573742062652063616c6c6564207468726f7567682060408201526b19195b1959d85d1958d85b1b60a21b606082015260800190565b6020808252602c908201527f46756e6374696f6e206d7573742062652063616c6c6564207468726f7567682060408201526b6163746976652070726f787960a01b606082015260800190565b634e487b7160e01b600052601160045260246000fd5b808202811582820484141761154c5761154c611c9d565b600082611ce757634e487b7160e01b600052601260045260246000fd5b500490565b8181038181111561154c5761154c611c9d565b600060208284031215611d1157600080fd5b815161191581611a3f565b8082018082111561154c5761154c611c9d565b6020808252602b908201527f496e697469616c697a61626c653a20636f6e7472616374206973206e6f74206960408201526a6e697469616c697a696e6760a81b606082015260800190565b60005b83811015611d95578181015183820152602001611d7d565b50506000910152565b60008251611db0818460208701611d7a565b9190910192915050565b6020815260008251806020840152611dd9816040850160208701611d7a565b601f01601f1916919091016040019291505056fed8356a6cf3e0979763d849f44f7f1405622b99f6229bc913bcfeda3a64d4b4fe360894a13ba1a3210667c828492db98dca3e2076cc3735a920a3ca505d382bbc416464726573733a206c6f772d6c6576656c2064656c65676174652063616c6c206661696c6564a26469706673582212205b4f3e88dfcb50bf0e3a7725be80835085837cc36c2a404bd130742bc104bd0164736f6c63430008190033360894a13ba1a3210667c828492db98dca3e2076cc3735a920a3ca505d382bbc416464726573733a206c6f772d6c6576656c2064656c65676174652063616c6c206661696c6564a2646970667358221220803cf4e86cc9e4a5ac25685d49a07f0c486f13bccd38018534a994466d3cb85764736f6c6343000819003360a060405230608052348015601357600080fd5b50608051611e8a61004b6000396000818161046c015281816104b5015281816105a3015281816105e301526106760152611e8a6000f3fe6080604052600436106101355760003560e01c8063959499b6116100ab578063cc85f0801161006f578063cc85f08014610329578063d95b0a1214610357578063ec18154e14610377578063f2fde38b1461038e578063f8c8765e146103ae578063fc0c546a146103ce57600080fd5b8063959499b61461029357806395ccea67146102a8578063ad4fc0b7146102c8578063b6b55f25146102e8578063c45a01551461030857600080fd5b806352d1902d116100fd57806352d1902d146101da57806356397c35146101ef5780635c975abb14610228578063715018a61461024b5780638456cb59146102605780638da5cb5b1461027557600080fd5b806301e1d1141461013a57806327e235e3146101625780633659cfe6146101905780633f4ba83a146101b25780634f1ef286146101c7575b600080fd5b34801561014657600080fd5b5061014f6103ef565b6040519081526020015b60405180910390f35b34801561016e57600080fd5b5061014f61017d366004611a54565b6101316020526000908152604090205481565b34801561019c57600080fd5b506101b06101ab366004611a54565b610462565b005b3480156101be57600080fd5b506101b061054a565b6101b06101d5366004611a87565b610599565b3480156101e657600080fd5b5061014f610669565b3480156101fb57600080fd5b5061012f54610210906001600160a01b031681565b6040516001600160a01b039091168152602001610159565b34801561023457600080fd5b5060335460ff166040519015158152602001610159565b34801561025757600080fd5b506101b061071c565b34801561026c57600080fd5b506101b061072e565b34801561028157600080fd5b5060fb546001600160a01b0316610210565b34801561029f57600080fd5b506101b061077b565b3480156102b457600080fd5b506101b06102c3366004611b4b565b610a62565b3480156102d457600080fd5b506101b06102e3366004611b4b565b610b02565b3480156102f457600080fd5b506101b0610303366004611b77565b610bd5565b34801561031457600080fd5b5061012d54610210906001600160a01b031681565b34801561033557600080fd5b5061014f610344366004611a54565b6101326020526000908152604090205481565b34801561036357600080fd5b506101b0610372366004611b77565b610d54565b34801561038357600080fd5b5061014f6101305481565b34801561039a57600080fd5b506101b06103a9366004611a54565b610ed0565b3480156103ba57600080fd5b506101b06103c9366004611b90565b610f46565b3480156103da57600080fd5b5061012e54610210906001600160a01b031681565b61012e546040516370a0823160e01b81523060048201526000916001600160a01b0316906370a0823190602401602060405180830381865afa158015610439573d6000803e3d6000fd5b505050506040513d601f19601f8201168201806040525081019061045d9190611bec565b905090565b6001600160a01b037f00000000000000000000000000000000000000000000000000000000000000001630036104b35760405162461bcd60e51b81526004016104aa90611c05565b60405180910390fd5b7f00000000000000000000000000000000000000000000000000000000000000006001600160a01b03166104fc600080516020611e0e833981519152546001600160a01b031690565b6001600160a01b0316146105225760405162461bcd60e51b81526004016104aa90611c51565b61052b8161111e565b6040805160008082526020820190925261054791839190611126565b50565b60fb546001600160a01b03163314801590610571575061012f546001600160a01b03163314155b1561058f5760405163ea8e4eb560e01b815260040160405180910390fd5b610597611296565b565b6001600160a01b037f00000000000000000000000000000000000000000000000000000000000000001630036105e15760405162461bcd60e51b81526004016104aa90611c05565b7f00000000000000000000000000000000000000000000000000000000000000006001600160a01b031661062a600080516020611e0e833981519152546001600160a01b031690565b6001600160a01b0316146106505760405162461bcd60e51b81526004016104aa90611c51565b6106598261111e565b61066582826001611126565b5050565b6000306001600160a01b037f000000000000000000000000000000000000000000000000000000000000000016146107095760405162461bcd60e51b815260206004820152603860248201527f555550535570677261646561626c653a206d757374206e6f742062652063616c60448201527f6c6564207468726f7567682064656c656761746563616c6c000000000000000060648201526084016104aa565b50600080516020611e0e83398151915290565b6107246112e8565b6105976000611342565b60fb546001600160a01b03163314801590610755575061012f546001600160a01b03163314155b156107735760405163ea8e4eb560e01b815260040160405180910390fd5b610597611394565b6107836113d1565b61078b611417565b3360009081526101326020526040812054908190036107bd576040516371cd57f760e11b815260040160405180910390fd5b3360009081526101326020526040812081905561012d5461012e546001600160a01b03918216929116906107f18484611470565b9050600060646108018387611cb3565b61080b9190611cca565b905060006108198287611cec565b6040516311c16c8960e31b81523360048201529091506000906001600160a01b03871690638e0b644890602401602060405180830381865afa158015610863573d6000803e3d6000fd5b505050506040513d601f19601f820116820180604052508101906108879190611cff565b90506001600160a01b03811615610998576000866001600160a01b0316635b4079c96040518163ffffffff1660e01b8152600401602060405180830381865afa1580156108d8573d6000803e3d6000fd5b505050506040513d601f19601f820116820180604052508101906108fc9190611bec565b9050600061271061090d8387611cb3565b6109179190611cca565b905061092d6001600160a01b0388168483611552565b60405163bfcdd28360e01b81526001600160a01b0384811660048301526024820183905289169063bfcdd28390604401600060405180830381600087803b15801561097757600080fd5b505af1925050508015610988575060015b506109938186611cec565b945050505b60006109ac60fb546001600160a01b031690565b90506109c26001600160a01b0387168286611552565b6109d66001600160a01b0387163385611552565b610130546109e48982611cec565b61013055604080518581526020810187905233917ff279e6a1f5e320cca91135676d9cb6e44ca8a08c0b88342bcdb1144f6511b568910160405180910390a261013054604080518381526020810192909252600080516020611dee833981519152910160405180910390a15050505050505050506105976001606555565b610a6a6115b8565b610a726112e8565b6001600160a01b038216610a995760405163d92e233d60e01b815260040160405180910390fd5b61012e54610ab1906001600160a01b03168383611552565b6101305481811015610ac4576000610ace565b610ace8282611cec565b610130819055604080518381526020810192909252600080516020611dee83398151915291015b60405180910390a1505050565b61012d546001600160a01b03163314610b2e57604051631966391b60e11b815260040160405180910390fd5b6001600160a01b0382166000908152610132602052604081208054839290610b57908490611d1c565b909155505061013054610b6a8282611d1c565b610130556040518281526001600160a01b038416907f4090b754027c4095648ced2461cd86dadab1b444745a3e79c68ddd9596750eb89060200160405180910390a261013054604080518381526020810192909252600080516020611dee8339815191529101610af5565b610bdd6113d1565b610be5611417565b80600003610c0657604051631f2a200560e01b815260040160405180910390fd5b61012d54604080516341b3d18560e01b815290516001600160a01b039092169182916341b3d1859160048083019260209291908290030181865afa158015610c52573d6000803e3d6000fd5b505050506040513d601f19601f82011682018060405250810190610c769190611bec565b821015610c96576040516310906acb60e01b815260040160405180910390fd5b61012e546001600160a01b0316610caf81333086611601565b336000908152610131602052604081208054859290610ccf908490611d1c565b909155505061013054610ce28482611d1c565b6101305560405184815233907fe1fffcc4923d04b559f4d29a8bfc6cda04eb5b0d3c460751c2402c5c5cc9109c9060200160405180910390a261013054604080518381526020810192909252600080516020611dee833981519152910160405180910390a15050506105476001606555565b610d5c611417565b80600003610d7d57604051631f2a200560e01b815260040160405180910390fd5b336000908152610131602052604090205481811015610daf57604051631e9acf1760e31b815260040160405180910390fd5b610db98282611cec565b3360009081526101316020526040812091909155612710610ddb84600a611cb3565b610de59190611cca565b90506000610df38285611cec565b61012e549091506001600160a01b03166000610e1760fb546001600160a01b031690565b90508315610e3357610e336001600160a01b0383168286611552565b610e476001600160a01b0383163385611552565b61013054610e558782611cec565b61013055604080518881526020810187905233917f97224a9c7c8857253aafe6579ed154b2beae77578325f10d9a27cc2b5c7cb03b910160405180910390a261013054604080518381526020810192909252600080516020611dee833981519152910160405180910390a15050505050506105476001606555565b610ed86112e8565b6001600160a01b038116610f3d5760405162461bcd60e51b815260206004820152602660248201527f4f776e61626c653a206e6577206f776e657220697320746865207a65726f206160448201526564647265737360d01b60648201526084016104aa565b61054781611342565b600054610100900460ff1615808015610f665750600054600160ff909116105b80610f805750303b158015610f80575060005460ff166001145b610fe35760405162461bcd60e51b815260206004820152602e60248201527f496e697469616c697a61626c653a20636f6e747261637420697320616c72656160448201526d191e481a5b9a5d1a585b1a5e995960921b60648201526084016104aa565b6000805460ff191660011790558015611006576000805461ff0019166101001790555b61100e611640565b61101783610ed0565b61101f61166f565b61102761169e565b61102f6116cd565b6001600160a01b038516158061104c57506001600160a01b038216155b1561106a5760405163d92e233d60e01b815260040160405180910390fd5b6001600160a01b0384166110915760405163ad1991f560e01b815260040160405180910390fd5b61012d80546001600160a01b038088166001600160a01b03199283161790925561012e805487841690831617905561012f8054928516929091169190911790558015611117576000805461ff0019169055604051600181527f7f26b83ff96e1f2b6a682f133852f6798a09c465da95921460cefb38474024989060200160405180910390a15b5050505050565b6105476112e8565b7f4910fdfa16fed3260ed0e7147f7cc6da11a60208b5b9406d12a635614ffd91435460ff161561115e57611159836116f4565b505050565b826001600160a01b03166352d1902d6040518163ffffffff1660e01b8152600401602060405180830381865afa9250505080156111b8575060408051601f3d908101601f191682019092526111b591810190611bec565b60015b61121b5760405162461bcd60e51b815260206004820152602e60248201527f45524331393637557067726164653a206e657720696d706c656d656e7461746960448201526d6f6e206973206e6f74205555505360901b60648201526084016104aa565b600080516020611e0e833981519152811461128a5760405162461bcd60e51b815260206004820152602960248201527f45524331393637557067726164653a20756e737570706f727465642070726f786044820152681a58589b195555525160ba1b60648201526084016104aa565b50611159838383611790565b61129e6115b8565b6033805460ff191690557f5db9ee0a495bf2e6ff9c91a7834c1ba4fdd244a5e8aa4e537bd38aeae4b073aa335b6040516001600160a01b03909116815260200160405180910390a1565b60fb546001600160a01b031633146105975760405162461bcd60e51b815260206004820181905260248201527f4f776e61626c653a2063616c6c6572206973206e6f7420746865206f776e657260448201526064016104aa565b60fb80546001600160a01b038381166001600160a01b0319831681179093556040519116919082907f8be0079c531659141344cd1fd0a4f28419497f9722a3daafe3b4186f6b6457e090600090a35050565b61139c6113d1565b6033805460ff191660011790557f62e78cea01bee320cd4e420270b5ea74000d11b0c9f74754ebdbfc544b05a2586112cb3390565b60335460ff16156105975760405162461bcd60e51b815260206004820152601060248201526f14185d5cd8589b194e881c185d5cd95960821b60448201526064016104aa565b6002606554036114695760405162461bcd60e51b815260206004820152601f60248201527f5265656e7472616e637947756172643a207265656e7472616e742063616c6c0060448201526064016104aa565b6002606555565b600080670de0b6b3a7640000841161148a575060016114d1565b69d3c21bcecceda100000084106114a3575060146114d1565b69d3c21bcecceda10000006114b9856013611cb3565b6114c39190611cca565b6114ce906001611d1c565b90505b6000836001600160a01b031663d830a05b6040518163ffffffff1660e01b8152600401602060405180830381865afa158015611511573d6000803e3d6000fd5b505050506040513d601f19601f820116820180604052508101906115359190611bec565b90508082111561154857915061154c9050565b5090505b92915050565b6040516001600160a01b0383811660248301526044820183905261115991859182169063a9059cbb906064015b604051602081830303815290604052915060e01b6020820180516001600160e01b0383818316178352505050506117b5565b6001606555565b60335460ff166105975760405162461bcd60e51b815260206004820152601460248201527314185d5cd8589b194e881b9bdd081c185d5cd95960621b60448201526064016104aa565b6040516001600160a01b03848116602483015283811660448301526064820183905261163a9186918216906323b872dd9060840161157f565b50505050565b600054610100900460ff166116675760405162461bcd60e51b81526004016104aa90611d2f565b610597611826565b600054610100900460ff166116965760405162461bcd60e51b81526004016104aa90611d2f565b610597611856565b600054610100900460ff166116c55760405162461bcd60e51b81526004016104aa90611d2f565b610597611889565b600054610100900460ff166105975760405162461bcd60e51b81526004016104aa90611d2f565b6001600160a01b0381163b6117615760405162461bcd60e51b815260206004820152602d60248201527f455243313936373a206e657720696d706c656d656e746174696f6e206973206e60448201526c1bdd08184818dbdb9d1c9858dd609a1b60648201526084016104aa565b600080516020611e0e83398151915280546001600160a01b0319166001600160a01b0392909216919091179055565b611799836118b0565b6000825111806117a65750805b156111595761163a83836118f0565b600080602060008451602086016000885af1806117d8576040513d6000823e3d81fd5b50506000513d915081156117f05780600114156117fd565b6001600160a01b0384163b155b1561163a57604051635274afe760e01b81526001600160a01b03851660048201526024016104aa565b600054610100900460ff1661184d5760405162461bcd60e51b81526004016104aa90611d2f565b61059733611342565b600054610100900460ff1661187d5760405162461bcd60e51b81526004016104aa90611d2f565b6033805460ff19169055565b600054610100900460ff166115b15760405162461bcd60e51b81526004016104aa90611d2f565b6118b9816116f4565b6040516001600160a01b038216907fbc7cd75a20ee27fd9adebab32041f755214dbc6bffa90cc0225b39da2e5c2d3b90600090a250565b60606119158383604051806060016040528060278152602001611e2e6027913961191c565b9392505050565b6060600080856001600160a01b0316856040516119399190611d9e565b600060405180830381855af49150503d8060008114611974576040519150601f19603f3d011682016040523d82523d6000602084013e611979565b606091505b509150915061198a86838387611994565b9695505050505050565b60608315611a035782516000036119fc576001600160a01b0385163b6119fc5760405162461bcd60e51b815260206004820152601d60248201527f416464726573733a2063616c6c20746f206e6f6e2d636f6e747261637400000060448201526064016104aa565b5081611a0d565b611a0d8383611a15565b949350505050565b815115611a255781518083602001fd5b8060405162461bcd60e51b81526004016104aa9190611dba565b6001600160a01b038116811461054757600080fd5b600060208284031215611a6657600080fd5b813561191581611a3f565b634e487b7160e01b600052604160045260246000fd5b60008060408385031215611a9a57600080fd5b8235611aa581611a3f565b9150602083013567ffffffffffffffff80821115611ac257600080fd5b818501915085601f830112611ad657600080fd5b813581811115611ae857611ae8611a71565b604051601f8201601f19908116603f01168101908382118183101715611b1057611b10611a71565b81604052828152886020848701011115611b2957600080fd5b8260208601602083013760006020848301015280955050505050509250929050565b60008060408385031215611b5e57600080fd5b8235611b6981611a3f565b946020939093013593505050565b600060208284031215611b8957600080fd5b5035919050565b60008060008060808587031215611ba657600080fd5b8435611bb181611a3f565b93506020850135611bc181611a3f565b92506040850135611bd181611a3f565b91506060850135611be181611a3f565b939692955090935050565b600060208284031215611bfe57600080fd5b5051919050565b6020808252602c908201527f46756e6374696f6e206d7573742062652063616c6c6564207468726f7567682060408201526b19195b1959d85d1958d85b1b60a21b606082015260800190565b6020808252602c908201527f46756e6374696f6e206d7573742062652063616c6c6564207468726f7567682060408201526b6163746976652070726f787960a01b606082015260800190565b634e487b7160e01b600052601160045260246000fd5b808202811582820484141761154c5761154c611c9d565b600082611ce757634e487b7160e01b600052601260045260246000fd5b500490565b8181038181111561154c5761154c611c9d565b600060208284031215611d1157600080fd5b815161191581611a3f565b8082018082111561154c5761154c611c9d565b6020808252602b908201527f496e697469616c697a61626c653a20636f6e7472616374206973206e6f74206960408201526a6e697469616c697a696e6760a81b606082015260800190565b60005b83811015611d95578181015183820152602001611d7d565b50506000910152565b60008251611db0818460208701611d7a565b9190910192915050565b6020815260008251806020840152611dd9816040850160208701611d7a565b601f01601f1916919091016040019291505056fed8356a6cf3e0979763d849f44f7f1405622b99f6229bc913bcfeda3a64d4b4fe360894a13ba1a3210667c828492db98dca3e2076cc3735a920a3ca505d382bbc416464726573733a206c6f772d6c6576656c2064656c65676174652063616c6c206661696c6564a26469706673582212205b4f3e88dfcb50bf0e3a7725be80835085837cc36c2a404bd130742bc104bd0164736f6c63430008190033",
  "linkReferences": {},
  "deployedLinkReferences": {}
}