{"abi":[{"type":"function","name":"commodityReferralEarnings","inputs":[{"name":"","type":"address","internalType":"address"},{"name":"","type":"string","internalType":"string"}],"outputs":[{"name":"","type":"uint256","internalType":"uint256"}],"stateMutability":"view"},{"type":"function","name":"factory","inputs":[],"outputs":[{"name":"","type":"address","internalType":"address"}],"stateMutability":"view"},{"type":"function","name":"getAffiliateCommodityEarnings","inputs":[{"name":"affiliate","type":"address","internalType":"address"},{"name":"commodityType","type":"string","internalType":"string"}],"outputs":[{"name":"","type":"uint256","internalType":"uint256"}],"stateMutability":"view"},{"type":"function","name":"getAffiliateEarnings","inputs":[{"name":"affiliate","type":"address","internalType":"address"}],"outputs":[{"name":"","type":"uint256","internalType":"uint256"}],"stateMutability":"view"},{"type":"function","name":"getCommodityReferralEarnings","inputs":[{"name":"affiliate","type":"address","internalType":"address"}],"outputs":[{"name":"","type":"uint256","internalType":"uint256"}],"stateMutability":"view"},{"type":"function","name":"getTotalCommoditiesReferred","inputs":[{"name":"affiliate","type":"address","internalType":"address"}],"outputs":[{"name":"","type":"uint256","internalType":"uint256"}],"stateMutability":"view"},{"type":"function","name":"getTotalCommodityReferrals","inputs":[{"name":"commodityType","type":"string","internalType":"string"}],"outputs":[{"name":"","type":"uint256","internalType":"uint256"}],"stateMutability":"view"},{"type":"function","name":"initialize","inputs":[{"name":"_owner","type":"address","internalType":"address"},{"name":"_factory","type":"address","internalType":"address"}],"outputs":[],"stateMutability":"nonpayable"},{"type":"function","name":"owner","inputs":[],"outputs":[{"name":"","type":"address","internalType":"address"}],"stateMutability":"view"},{"type":"function","name":"recordAffiliateEarning","inputs":[{"name":"affiliate","type":"address","internalType":"address"},{"name":"amount","type":"uint256","internalType":"uint256"}],"outputs":[],"stateMutability":"nonpayable"},{"type":"function","name":"recordCommodityReferralEarning","inputs":[{"name":"affiliate","type":"address","internalType":"address"},{"name":"commodityType","type":"string","internalType":"string"},{"name":"amount","type":"uint256","internalType":"uint256"}],"outputs":[],"stateMutability":"nonpayable"},{"type":"function","name":"renounceOwnership","inputs":[],"outputs":[],"stateMutability":"nonpayable"},{"type":"function","name":"totalAffiliateEarnings","inputs":[{"name":"","type":"address","internalType":"address"}],"outputs":[{"name":"","type":"uint256","internalType":"uint256"}],"stateMutability":"view"},{"type":"function","name":"totalCommoditiesReferred","inputs":[{"name":"","type":"address","internalType":"address"}],"outputs":[{"name":"","type":"uint256","internalType":"uint256"}],"stateMutability":"view"},{"type":"function","name":"totalCommodityReferralEarnings","inputs":[{"name":"","type":"address","internalType":"address"}],"outputs":[{"name":"","type":"uint256","internalType":"uint256"}],"stateMutability":"view"},{"type":"function","name":"totalCommodityReferrals","inputs":[{"name":"","type":"string","internalType":"string"}],"outputs":[{"name":"","type":"uint256","internalType":"uint256"}],"stateMutability":"view"},{"type":"function","name":"transferOwnership","inputs":[{"name":"newOwner","type":"address","internalType":"address"}],"outputs":[],"stateMutability":"nonpayable"},{"type":"event","name":"AffiliatePaid","inputs":[{"name":"affiliate","type":"address","indexed":true,"internalType":"address"},{"name":"amount","type":"uint256","indexed":false,"internalType":"uint256"}],"anonymous":false},{"type":"event","name":"CommodityReferralPaid","inputs":[{"name":"affiliate","type":"address","indexed":true,"internalType":"address"},{"name":"commodityType","type":"string","indexed":false,"internalType":"string"},{"name":"amount","type":"uint256","indexed":false,"internalType":"uint256"}],"anonymous":false},{"type":"event","name":"Initialized","inputs":[{"name":"version","type":"uint8","indexed":false,"internalType":"uint8"}],"anonymous":false},{"type":"event","name":"OwnershipTransferred","inputs":[{"name":"previousOwner","type":"address","indexed":true,"internalType":"address"},{"name":"newOwner","type":"address","indexed":true,"internalType":"address"}],"anonymous":false},{"type":"error","name":"NotAuthorized","inputs":[]},{"type":"error","name":"NotFactory","inputs":[]},{"type":"error","name":"ZeroAffiliate","inputs":[]},{"type":"error","name":"ZeroAmount","inputs":[]},{"type":"error","name":"ZeroFactory","inputs":[]}],"bytecode":{"object":"0x6080604052348015600e575f80fd5b50610c478061001c5f395ff3fe608060405234801561000f575f80fd5b5060043610610106575f3560e01c80638675ad9c1161009e578063a3dc079b1161006e578063a3dc079b14610279578063b9e435f314610298578063bfcdd283146102d3578063c45a0155146102e6578063f2fde38b146102f9575f80fd5b80638675ad9c146101fa57806389d74b50146102225780638da5cb5b14610241578063a1d2f86314610266575f80fd5b8063485cc955116100d9578063485cc955146101ad5780635a409659146101c0578063715018a6146101df5780637725d7b9146101e7575f80fd5b80631be0e6591461010a57806328a7d688146101455780632b8415161461016d5780632d53636214610182575b5f80fd5b610132610118366004610990565b6001600160a01b03165f9081526067602052604090205490565b6040519081526020015b60405180910390f35b610132610153366004610990565b6001600160a01b03165f908152606a602052604090205490565b61018061017b366004610a4d565b61030c565b005b610132610190366004610aa0565b805160208183018101805160698252928201919093012091525481565b6101806101bb366004610ada565b610528565b6101326101ce366004610990565b60676020525f908152604090205481565b610180610684565b6101326101f5366004610b0b565b610697565b610132610208366004610990565b6001600160a01b03165f9081526066602052604090205490565b610132610230366004610990565b606a6020525f908152604090205481565b6033546001600160a01b03165b6040516001600160a01b03909116815260200161013c565b610132610274366004610aa0565b6106d4565b610132610287366004610990565b60666020525f908152604090205481565b6101326102a6366004610b0b565b606860209081525f9283526040909220815180830184018051928152908401929093019190912091525481565b6101806102e1366004610b56565b6106fb565b60655461024e906001600160a01b031681565b610180610307366004610990565b6107f4565b6033546001600160a01b0316331480159061033257506065546001600160a01b03163314155b156103505760405163ea8e4eb560e01b815260040160405180910390fd5b6001600160a01b03831661037757604051637532dff760e11b815260040160405180910390fd5b805f0361039757604051631f2a200560e01b815260040160405180910390fd5b6001600160a01b0383165f90815260676020526040812080548392906103be908490610b7e565b90915550506001600160a01b0383165f908152606860205260409081902090518291906103ec908590610b9d565b90815260200160405180910390205f8282546104089190610b7e565b9250508190555060016069836040516104219190610b9d565b90815260200160405180910390205f82825461043d9190610b7e565b90915550506001600160a01b0383165f908152606a6020526040812080546001929061046a908490610b7e565b90915550506001600160a01b0383165f9081526066602052604081208054839290610496908490610b7e565b92505081905550826001600160a01b03167ffbe81ac82823c8ce910c2acb5d0a8b7dde477387fc7a2f6c2ca65a0a2a4669bd83836040516104d8929190610bb3565b60405180910390a2826001600160a01b03167f8d73050643cda30af17081818b09a59cd6e7aba6049abbc1eb70789740b7327b8260405161051b91815260200190565b60405180910390a2505050565b5f54610100900460ff161580801561054657505f54600160ff909116105b8061055f5750303b15801561055f57505f5460ff166001145b6105c75760405162461bcd60e51b815260206004820152602e60248201527f496e697469616c697a61626c653a20636f6e747261637420697320616c72656160448201526d191e481a5b9a5d1a585b1a5e995960921b60648201526084015b60405180910390fd5b5f805460ff1916600117905580156105e8575f805461ff0019166101001790555b6105f061086d565b6105f9836107f4565b6001600160a01b03821661061f5760405162821e6f60e01b815260040160405180910390fd5b606580546001600160a01b0319166001600160a01b038416179055801561067f575f805461ff0019169055604051600181527f7f26b83ff96e1f2b6a682f133852f6798a09c465da95921460cefb38474024989060200160405180910390a15b505050565b61068c61089b565b6106955f6108f5565b565b6001600160a01b0382165f9081526068602052604080822090516106bc908490610b9d565b90815260200160405180910390205490505b92915050565b5f6069826040516106e59190610b9d565b9081526020016040518091039020549050919050565b6033546001600160a01b0316331480159061072157506065546001600160a01b03163314155b1561073f5760405163ea8e4eb560e01b815260040160405180910390fd5b6001600160a01b03821661076657604051637532dff760e11b815260040160405180910390fd5b805f0361078657604051631f2a200560e01b815260040160405180910390fd5b6001600160a01b0382165f90815260666020526040812080548392906107ad908490610b7e565b90915550506040518181526001600160a01b038316907f8d73050643cda30af17081818b09a59cd6e7aba6049abbc1eb70789740b7327b9060200160405180910390a25050565b6107fc61089b565b6001600160a01b0381166108615760405162461bcd60e51b815260206004820152602660248201527f4f776e61626c653a206e6577206f776e657220697320746865207a65726f206160448201526564647265737360d01b60648201526084016105be565b61086a816108f5565b50565b5f54610100900460ff166108935760405162461bcd60e51b81526004016105be90610bef565b610695610946565b6033546001600160a01b031633146106955760405162461bcd60e51b815260206004820181905260248201527f4f776e61626c653a2063616c6c6572206973206e6f7420746865206f776e657260448201526064016105be565b603380546001600160a01b038381166001600160a01b0319831681179093556040519116919082907f8be0079c531659141344cd1fd0a4f28419497f9722a3daafe3b4186f6b6457e0905f90a35050565b5f54610100900460ff1661096c5760405162461bcd60e51b81526004016105be90610bef565b610695336108f5565b80356001600160a01b038116811461098b575f80fd5b919050565b5f602082840312156109a0575f80fd5b6109a982610975565b9392505050565b634e487b7160e01b5f52604160045260245ffd5b5f82601f8301126109d3575f80fd5b813567ffffffffffffffff808211156109ee576109ee6109b0565b604051601f8301601f19908116603f01168101908282118183101715610a1657610a166109b0565b81604052838152866020858801011115610a2e575f80fd5b836020870160208301375f602085830101528094505050505092915050565b5f805f60608486031215610a5f575f80fd5b610a6884610975565b9250602084013567ffffffffffffffff811115610a83575f80fd5b610a8f868287016109c4565b925050604084013590509250925092565b5f60208284031215610ab0575f80fd5b813567ffffffffffffffff811115610ac6575f80fd5b610ad2848285016109c4565b949350505050565b5f8060408385031215610aeb575f80fd5b610af483610975565b9150610b0260208401610975565b90509250929050565b5f8060408385031215610b1c575f80fd5b610b2583610975565b9150602083013567ffffffffffffffff811115610b40575f80fd5b610b4c858286016109c4565b9150509250929050565b5f8060408385031215610b67575f80fd5b610b7083610975565b946020939093013593505050565b808201808211156106ce57634e487b7160e01b5f52601160045260245ffd5b5f82518060208501845e5f920191825250919050565b604081525f83518060408401528060208601606085015e5f606082850101526060601f19601f8301168401019150508260208301529392505050565b6020808252602b908201527f496e697469616c697a61626c653a20636f6e7472616374206973206e6f74206960408201526a6e697469616c697a696e6760a81b60608201526080019056fea164736f6c6343000819000a","linkReferences":{}},"methodIdentifiers":{"commodityReferralEarnings(address,string)":"b9e435f3","factory()":"c45a0155","getAffiliateCommodityEarnings(address,string)":"7725d7b9","getAffiliateEarnings(address)":"8675ad9c","getCommodityReferralEarnings(address)":"1be0e659","getTotalCommoditiesReferred(address)":"28a7d688","getTotalCommodityReferrals(string)":"a1d2f863","initialize(address,address)":"485cc955","owner()":"8da5cb5b","recordAffiliateEarning(address,uint256)":"bfcdd283","recordCommodityReferralEarning(address,string,uint256)":"2b841516","renounceOwnership()":"715018a6","totalAffiliateEarnings(address)":"a3dc079b","totalCommoditiesReferred(address)":"89d74b50","totalCommodityReferralEarnings(address)":"5a409659","totalCommodityReferrals(string)":"2d536362","transferOwnership(address)":"f2fde38b"},"id":0}