{"abi":[{"type":"function","name":"BASE_FEE_TIER_1","inputs":[],"outputs":[{"name":"","type":"uint256","internalType":"uint256"}],"stateMutability":"view"},{"type":"function","name":"BASE_FEE_TIER_2","inputs":[],"outputs":[{"name":"","type":"uint256","internalType":"uint256"}],"stateMutability":"view"},{"type":"function","name":"BASE_FEE_TIER_3","inputs":[],"outputs":[{"name":"","type":"uint256","internalType":"uint256"}],"stateMutability":"view"},{"type":"function","name":"BASE_FEE_TIER_4","inputs":[],"outputs":[{"name":"","type":"uint256","internalType":"uint256"}],"stateMutability":"view"},{"type":"function","name":"BASE_FEE_TIER_5","inputs":[],"outputs":[{"name":"","type":"uint256","internalType":"uint256"}],"stateMutability":"view"},{"type":"function","name":"FEE_DENOMINATOR","inputs":[],"outputs":[{"name":"","type":"uint256","internalType":"uint256"}],"stateMutability":"view"},{"type":"function","name":"PROFIT_THRESHOLD_1","inputs":[],"outputs":[{"name":"","type":"uint256","internalType":"uint256"}],"stateMutability":"view"},{"type":"function","name":"PROFIT_THRESHOLD_2","inputs":[],"outputs":[{"name":"","type":"uint256","internalType":"uint256"}],"stateMutability":"view"},{"type":"function","name":"PROFIT_THRESHOLD_3","inputs":[],"outputs":[{"name":"","type":"uint256","internalType":"uint256"}],"stateMutability":"view"},{"type":"function","name":"PROFIT_THRESHOLD_4","inputs":[],"outputs":[{"name":"","type":"uint256","internalType":"uint256"}],"stateMutability":"view"},{"type":"function","name":"balances","inputs":[{"name":"","type":"address","internalType":"address"}],"outputs":[{"name":"","type":"uint256","internalType":"uint256"}],"stateMutability":"view"},{"type":"function","name":"commodityTotalProfits","inputs":[{"name":"","type":"string","internalType":"string"}],"outputs":[{"name":"","type":"uint256","internalType":"uint256"}],"stateMutability":"view"},{"type":"function","name":"deposit","inputs":[{"name":"amount","type":"uint256","internalType":"uint256"}],"outputs":[],"stateMutability":"nonpayable"},{"type":"function","name":"emergencyWithdraw","inputs":[{"name":"to","type":"address","internalType":"address"},{"name":"amount","type":"uint256","internalType":"uint256"}],"outputs":[],"stateMutability":"nonpayable"},{"type":"function","name":"factory","inputs":[],"outputs":[{"name":"","type":"address","internalType":"address"}],"stateMutability":"view"},{"type":"function","name":"getCommodityTotalProfits","inputs":[{"name":"commodityType","type":"string","internalType":"string"}],"outputs":[{"name":"","type":"uint256","internalType":"uint256"}],"stateMutability":"view"},{"type":"function","name":"getSupplyChainProfits","inputs":[{"name":"user","type":"address","internalType":"address"}],"outputs":[{"name":"","type":"uint256","internalType":"uint256"}],"stateMutability":"view"},{"type":"function","name":"getUserCommodityProfits","inputs":[{"name":"user","type":"address","internalType":"address"},{"name":"commodityType","type":"string","internalType":"string"}],"outputs":[{"name":"","type":"uint256","internalType":"uint256"}],"stateMutability":"view"},{"type":"function","name":"initialize","inputs":[{"name":"_factory","type":"address","internalType":"address"},{"name":"_token","type":"address","internalType":"address"},{"name":"_owner","type":"address","internalType":"address"},{"name":"_ledger","type":"address","internalType":"address"}],"outputs":[],"stateMutability":"nonpayable"},{"type":"function","name":"ledger","inputs":[],"outputs":[{"name":"","type":"address","internalType":"address"}],"stateMutability":"view"},{"type":"function","name":"owner","inputs":[],"outputs":[{"name":"","type":"address","internalType":"address"}],"stateMutability":"view"},{"type":"function","name":"pause","inputs":[],"outputs":[],"stateMutability":"nonpayable"},{"type":"function","name":"paused","inputs":[],"outputs":[{"name":"","type":"bool","internalType":"bool"}],"stateMutability":"view"},{"type":"function","name":"profits","inputs":[{"name":"","type":"address","internalType":"address"}],"outputs":[{"name":"","type":"uint256","internalType":"uint256"}],"stateMutability":"view"},{"type":"function","name":"proxiableUUID","inputs":[],"outputs":[{"name":"","type":"bytes32","internalType":"bytes32"}],"stateMutability":"view"},{"type":"function","name":"registerProfit","inputs":[{"name":"user","type":"address","internalType":"address"},{"name":"profit","type":"uint256","internalType":"uint256"}],"outputs":[],"stateMutability":"nonpayable"},{"type":"function","name":"registerSupplyChainProfit","inputs":[{"name":"user","type":"address","internalType":"address"},{"name":"profit","type":"uint256","internalType":"uint256"},{"name":"commodityType","type":"string","internalType":"string"}],"outputs":[],"stateMutability":"nonpayable"},{"type":"function","name":"renounceOwnership","inputs":[],"outputs":[],"stateMutability":"nonpayable"},{"type":"function","name":"supplyChainProfits","inputs":[{"name":"","type":"address","internalType":"address"}],"outputs":[{"name":"","type":"uint256","internalType":"uint256"}],"stateMutability":"view"},{"type":"function","name":"token","inputs":[],"outputs":[{"name":"","type":"address","internalType":"address"}],"stateMutability":"view"},{"type":"function","name":"tokenDecimals","inputs":[],"outputs":[{"name":"","type":"uint8","internalType":"uint8"}],"stateMutability":"view"},{"type":"function","name":"totalAssets","inputs":[],"outputs":[{"name":"","type":"uint256","internalType":"uint256"}],"stateMutability":"view"},{"type":"function","name":"totalValueLocked","inputs":[],"outputs":[{"name":"","type":"uint256","internalType":"uint256"}],"stateMutability":"view"},{"type":"function","name":"transferOwnership","inputs":[{"name":"newOwner","type":"address","internalType":"address"}],"outputs":[],"stateMutability":"nonpayable"},{"type":"function","name":"unpause","inputs":[],"outputs":[],"stateMutability":"nonpayable"},{"type":"function","name":"upgradeTo","inputs":[{"name":"newImplementation","type":"address","internalType":"address"}],"outputs":[],"stateMutability":"nonpayable"},{"type":"function","name":"upgradeToAndCall","inputs":[{"name":"newImplementation","type":"address","internalType":"address"},{"name":"data","type":"bytes","internalType":"bytes"}],"outputs":[],"stateMutability":"payable"},{"type":"function","name":"userCommodityProfits","inputs":[{"name":"","type":"address","internalType":"address"},{"name":"","type":"string","internalType":"string"}],"outputs":[{"name":"","type":"uint256","internalType":"uint256"}],"stateMutability":"view"},{"type":"function","name":"userPerformances","inputs":[{"name":"","type":"address","internalType":"address"}],"outputs":[{"name":"totalDeposited","type":"uint256","internalType":"uint256"},{"name":"totalWithdrawn","type":"uint256","internalType":"uint256"},{"name":"profitRealized","type":"uint256","internalType":"uint256"},{"name":"lastFeePayment","type":"uint256","internalType":"uint256"},{"name":"entryTime","type":"uint256","internalType":"uint256"}],"stateMutability":"view"},{"type":"function","name":"withdrawCapital","inputs":[{"name":"amount","type":"uint256","internalType":"uint256"}],"outputs":[],"stateMutability":"nonpayable"},{"type":"function","name":"withdrawProfit","inputs":[],"outputs":[],"stateMutability":"nonpayable"},{"type":"event","name":"AdminChanged","inputs":[{"name":"previousAdmin","type":"address","indexed":false,"internalType":"address"},{"name":"newAdmin","type":"address","indexed":false,"internalType":"address"}],"anonymous":false},{"type":"event","name":"BeaconUpgraded","inputs":[{"name":"beacon","type":"address","indexed":true,"internalType":"address"}],"anonymous":false},{"type":"event","name":"CapitalWithdraw","inputs":[{"name":"user","type":"address","indexed":true,"internalType":"address"},{"name":"amount","type":"uint256","indexed":false,"internalType":"uint256"},{"name":"fee","type":"uint256","indexed":false,"internalType":"uint256"}],"anonymous":false},{"type":"event","name":"Deposit","inputs":[{"name":"user","type":"address","indexed":true,"internalType":"address"},{"name":"amount","type":"uint256","indexed":false,"internalType":"uint256"}],"anonymous":false},{"type":"event","name":"Initialized","inputs":[{"name":"version","type":"uint8","indexed":false,"internalType":"uint8"}],"anonymous":false},{"type":"event","name":"OwnershipTransferred","inputs":[{"name":"previousOwner","type":"address","indexed":true,"internalType":"address"},{"name":"newOwner","type":"address","indexed":true,"internalType":"address"}],"anonymous":false},{"type":"event","name":"Paused","inputs":[{"name":"account","type":"address","indexed":false,"internalType":"address"}],"anonymous":false},{"type":"event","name":"ProfitRegistered","inputs":[{"name":"user","type":"address","indexed":true,"internalType":"address"},{"name":"profit","type":"uint256","indexed":false,"internalType":"uint256"}],"anonymous":false},{"type":"event","name":"TVLUpdated","inputs":[{"name":"previousTVL","type":"uint256","indexed":false,"internalType":"uint256"},{"name":"newTVL","type":"uint256","indexed":false,"internalType":"uint256"}],"anonymous":false},{"type":"event","name":"Unpaused","inputs":[{"name":"account","type":"address","indexed":false,"internalType":"address"}],"anonymous":false},{"type":"event","name":"Upgraded","inputs":[{"name":"implementation","type":"address","indexed":true,"internalType":"address"}],"anonymous":false},{"type":"event","name":"Withdraw","inputs":[{"name":"user","type":"address","indexed":true,"internalType":"address"},{"name":"amount","type":"uint256","indexed":false,"internalType":"uint256"},{"name":"fee","type":"uint256","indexed":false,"internalType":"uint256"}],"anonymous":false},{"type":"error","name":"BelowMin","inputs":[]},{"type":"error","name":"InsufficientBalance","inputs":[]},{"type":"error","name":"NoProfit","inputs":[]},{"type":"error","name":"NotAuthorized","inputs":[]},{"type":"error","name":"NotFactory","inputs":[]},{"type":"error","name":"SafeERC20FailedOperation","inputs":[{"name":"token","type":"address","internalType":"address"}]},{"type":"error","name":"ZeroAddress","inputs":[]},{"type":"error","name":"ZeroAmount","inputs":[]},{"type":"error","name":"ZeroProfit","inputs":[]},{"type":"error","name":"ZeroToken","inputs":[]}],"bytecode":{"object":"0x60a0604052306080523480156012575f80fd5b506080516126386100475f395f81816107c801528181610811015281816108fd0152818161093d01526109ce01526126385ff3fe60806040526004361061023e575f3560e01c8063959499b611610134578063d73792a9116100b3578063ec18154e11610078578063ec18154e14610690578063f2fde38b146106a6578063f45d0a98146106c5578063f8c8765e146106da578063f9f13315146106f9578063fc0c546a1461072e575f80fd5b8063d73792a9146105ea578063d95b0a12146105ff578063ddd429b11461061e578063de763a4f14610633578063e05cd14e1461067b575f80fd5b8063c45a0155116100f9578063c45a015514610553578063c875d3c114610573578063ca7e4ed114610491578063cc85f08014610592578063d4a0ca33146105be575f80fd5b8063959499b6146104c357806395ccea67146104d7578063ad4fc0b7146104f6578063aff7da5914610515578063b6b55f2514610534575f80fd5b806352d1902d116101c0578063715018a611610185578063715018a61461044a57806381b2de2c1461045e5780638456cb591461047d57806386aebad2146104915780638da5cb5b146104a6575f80fd5b806352d1902d146103a45780635370aca21461026957806356397c35146103b85780635c975abb146103f05780636511f90014610412575f80fd5b80633659cfe6116102065780633659cfe6146102bf57806336fc5d9a146102e05780633b97e856146103515780633f4ba83a1461037d5780634f1ef28614610391575f80fd5b806301e1d11414610242578063099f89b41461026957806310128cae1461027e57806321c0efa01461027e57806327e235e314610293575b5f80fd5b34801561024d575f80fd5b5061025661074e565b6040519081526020015b60405180910390f35b348015610274575f80fd5b50610256610bb881565b348015610289575f80fd5b506102566103e881565b34801561029e575f80fd5b506102566102ad366004612056565b6101326020525f908152604090205481565b3480156102ca575f80fd5b506102de6102d9366004612056565b6107be565b005b3480156102eb575f80fd5b506103296102fa366004612056565b6101376020525f9081526040902080546001820154600283015460038401546004909401549293919290919085565b604080519586526020860194909452928401919091526060830152608082015260a001610260565b34801561035c575f80fd5b506101315461036b9060ff1681565b60405160ff9091168152602001610260565b348015610388575f80fd5b506102de6108a4565b6102de61039f3660046120f8565b6108f3565b3480156103af575f80fd5b506102566109c2565b3480156103c3575f80fd5b5061012f546103d8906001600160a01b031681565b6040516001600160a01b039091168152602001610260565b3480156103fb575f80fd5b5060335460ff166040519015158152602001610260565b34801561041d575f80fd5b5061025661042c366004612176565b80516020818301810180516101358252928201919093012091525481565b348015610455575f80fd5b506102de610a73565b348015610469575f80fd5b50610256610478366004612176565b610a84565b348015610488575f80fd5b506102de610aac565b34801561049c575f80fd5b506102566107d081565b3480156104b1575f80fd5b5060fb546001600160a01b03166103d8565b3480156104ce575f80fd5b506102de610af9565b3480156104e2575f80fd5b506102de6104f13660046121a8565b610dbc565b348015610501575f80fd5b506102de6105103660046121a8565b610e59565b348015610520575f80fd5b506102de61052f3660046121d2565b610f65565b34801561053f575f80fd5b506102de61054e366004612227565b6110ad565b34801561055e575f80fd5b5061012d546103d8906001600160a01b031681565b34801561057e575f80fd5b5061025661058d36600461223e565b611262565b34801561059d575f80fd5b506102566105ac366004612056565b6101336020525f908152604090205481565b3480156105c9575f80fd5b506102566105d8366004612056565b6101346020525f908152604090205481565b3480156105f5575f80fd5b5061025661271081565b34801561060a575f80fd5b506102de610619366004612227565b6112a0565b348015610629575f80fd5b506102566109c481565b34801561063e575f80fd5b5061025661064d36600461223e565b61013660209081525f9283526040909220815180830184018051928152908401929093019190912091525481565b348015610686575f80fd5b506102566105dc81565b34801561069b575f80fd5b506102566101305481565b3480156106b1575f80fd5b506102de6106c0366004612056565b611424565b3480156106d0575f80fd5b506102566101f481565b3480156106e5575f80fd5b506102de6106f4366004612281565b61149a565b348015610704575f80fd5b50610256610713366004612056565b6001600160a01b03165f908152610134602052604090205490565b348015610739575f80fd5b5061012e546103d8906001600160a01b031681565b61012e546040516370a0823160e01b81523060048201525f916001600160a01b0316906370a0823190602401602060405180830381865afa158015610795573d5f803e3d5ffd5b505050506040513d601f19601f820116820180604052508101906107b991906122da565b905090565b6001600160a01b037f000000000000000000000000000000000000000000000000000000000000000016300361080f5760405162461bcd60e51b8152600401610806906122f1565b60405180910390fd5b7f00000000000000000000000000000000000000000000000000000000000000006001600160a01b03166108575f805160206125e5833981519152546001600160a01b031690565b6001600160a01b03161461087d5760405162461bcd60e51b81526004016108069061233d565b610886816116e0565b604080515f808252602082019092526108a1918391906116e8565b50565b60fb546001600160a01b031633148015906108cb575061012f546001600160a01b03163314155b156108e95760405163ea8e4eb560e01b815260040160405180910390fd5b6108f1611857565b565b6001600160a01b037f000000000000000000000000000000000000000000000000000000000000000016300361093b5760405162461bcd60e51b8152600401610806906122f1565b7f00000000000000000000000000000000000000000000000000000000000000006001600160a01b03166109835f805160206125e5833981519152546001600160a01b031690565b6001600160a01b0316146109a95760405162461bcd60e51b81526004016108069061233d565b6109b2826116e0565b6109be828260016116e8565b5050565b5f306001600160a01b037f00000000000000000000000000000000000000000000000000000000000000001614610a615760405162461bcd60e51b815260206004820152603860248201527f555550535570677261646561626c653a206d757374206e6f742062652063616c60448201527f6c6564207468726f7567682064656c656761746563616c6c00000000000000006064820152608401610806565b505f805160206125e583398151915290565b610a7b6118a9565b6108f15f611903565b5f61013582604051610a9691906123a0565b9081526020016040518091039020549050919050565b60fb546001600160a01b03163314801590610ad3575061012f546001600160a01b03163314155b15610af15760405163ea8e4eb560e01b815260040160405180910390fd5b6108f1611954565b610b01611991565b610b096119d7565b335f908152610133602052604081205490819003610b3a576040516371cd57f760e11b815260040160405180910390fd5b335f90815261013360209081526040808320839055610137909152812042600382015561012d5461012e5491926001600160a01b039182169290911690610b818584611a30565b90505f612710610b9183886123bf565b610b9b91906123d6565b90505f610ba882886123f5565b6040516311c16c8960e31b81523360048201529091505f906001600160a01b03871690638e0b644890602401602060405180830381865afa158015610bef573d5f803e3d5ffd5b505050506040513d601f19601f82011682018060405250810190610c139190612408565b90506001600160a01b03811615610d1d575f866001600160a01b0316635b4079c96040518163ffffffff1660e01b8152600401602060405180830381865afa158015610c61573d5f803e3d5ffd5b505050506040513d601f19601f82011682018060405250810190610c8591906122da565b90505f612710610c9583876123bf565b610c9f91906123d6565b9050610cb56001600160a01b0388168483611b33565b60405163bfcdd28360e01b81526001600160a01b0384811660048301526024820183905289169063bfcdd283906044015f604051808303815f87803b158015610cfc575f80fd5b505af1925050508015610d0d575060015b50610d1881866123f5565b945050505b610d316001600160a01b0386163384611b33565b61013054610d3f89826123f5565b61013055604080518481526020810186905233917ff279e6a1f5e320cca91135676d9cb6e44ca8a08c0b88342bcdb1144f6511b568910160405180910390a2610130546040805183815260208101929092525f805160206125c5833981519152910160405180910390a15050505050505050506108f16001606555565b610dc4611b6f565b610dcc6118a9565b6001600160a01b038216610df35760405163d92e233d60e01b815260040160405180910390fd5b61012e54610e0b906001600160a01b03168383611b33565b6101305481811015610e1d575f610e27565b610e2782826123f5565b6101308190556040805183815260208101929092525f805160206125c5833981519152910160405180910390a1505050565b61012d546001600160a01b03163314610e8557604051631966391b60e11b815260040160405180910390fd5b6001600160a01b0382165f908152610133602052604081208054839290610ead908490612423565b90915550506001600160a01b0382165f9081526101376020526040812060028101805491928492610edf908490612423565b909155505061013054610ef28382612423565b610130556040518381526001600160a01b038516907f4090b754027c4095648ced2461cd86dadab1b444745a3e79c68ddd9596750eb89060200160405180910390a2610130546040805183815260208101929092525f805160206125c5833981519152910160405180910390a150505050565b61012d546001600160a01b03163314610f9157604051631966391b60e11b815260040160405180910390fd5b815f03610fb15760405163154b67a560e01b815260040160405180910390fd5b6001600160a01b038316610fd85760405163d92e233d60e01b815260040160405180910390fd5b6001600160a01b0383165f908152610134602052604081208054849290611000908490612423565b92505081905550816101358260405161101991906123a0565b90815260200160405180910390205f8282546110359190612423565b90915550506001600160a01b0383165f90815261013660205260409081902090518391906110649084906123a0565b90815260200160405180910390205f8282546110809190612423565b90915550506001600160a01b0383165f908152610133602052604081208054849290610edf908490612423565b6110b5611991565b6110bd6119d7565b805f036110dd57604051631f2a200560e01b815260040160405180910390fd5b61012d54604080516341b3d18560e01b815290516001600160a01b039092169182916341b3d1859160048083019260209291908290030181865afa158015611127573d5f803e3d5ffd5b505050506040513d601f19601f8201168201806040525081019061114b91906122da565b82101561116b576040516310906acb60e01b815260040160405180910390fd5b61012e546001600160a01b031661118481333086611bb8565b335f9081526101326020526040812080548592906111a3908490612423565b9091555050335f908152610137602052604081208054909185918391906111cb908490612423565b909155505060048101545f036111e2574260048201555b610130546111f08582612423565b6101305560405185815233907fe1fffcc4923d04b559f4d29a8bfc6cda04eb5b0d3c460751c2402c5c5cc9109c9060200160405180910390a2610130546040805183815260208101929092525f805160206125c5833981519152910160405180910390a1505050506108a16001606555565b6001600160a01b0382165f908152610136602052604080822090516112889084906123a0565b90815260200160405180910390205490505b92915050565b6112a86119d7565b805f036112c857604051631f2a200560e01b815260040160405180910390fd5b335f9081526101326020526040902054818110156112f957604051631e9acf1760e31b815260040160405180910390fd5b61130382826123f5565b335f9081526101326020908152604080832093909355610137905290812060018101805491928592611336908490612423565b909155505f90508061134881866123f5565b61012e549091506001600160a01b03165f61136b60fb546001600160a01b031690565b90508315611387576113876001600160a01b0383168286611b33565b61139b6001600160a01b0383163385611b33565b610130546113a988826123f5565b61013055604080518981526020810187905233917f97224a9c7c8857253aafe6579ed154b2beae77578325f10d9a27cc2b5c7cb03b910160405180910390a2610130546040805183815260208101929092525f805160206125c5833981519152910160405180910390a1505050505050506108a16001606555565b61142c6118a9565b6001600160a01b0381166114915760405162461bcd60e51b815260206004820152602660248201527f4f776e61626c653a206e6577206f776e657220697320746865207a65726f206160448201526564647265737360d01b6064820152608401610806565b6108a181611903565b5f54610100900460ff16158080156114b857505f54600160ff909116105b806114d15750303b1580156114d157505f5460ff166001145b6115345760405162461bcd60e51b815260206004820152602e60248201527f496e697469616c697a61626c653a20636f6e747261637420697320616c72656160448201526d191e481a5b9a5d1a585b1a5e995960921b6064820152608401610806565b5f805460ff191660011790558015611555575f805461ff0019166101001790555b61155d611bf4565b61156683611424565b61156e611c22565b611576611c50565b61157e611c7e565b6001600160a01b038516158061159b57506001600160a01b038216155b156115b95760405163d92e233d60e01b815260040160405180910390fd5b6001600160a01b0384166115e05760405163ad1991f560e01b815260040160405180910390fd5b61012d80546001600160a01b038088166001600160a01b03199283161790925561012e8054878416908316811790915561012f8054938616939092169290921790556040805163313ce56760e01b8152905163313ce567916004808201926020929091908290030181865afa15801561165b573d5f803e3d5ffd5b505050506040513d601f19601f8201168201806040525081019061167f9190612436565b610131805460ff191660ff9290921691909117905580156116d9575f805461ff0019169055604051600181527f7f26b83ff96e1f2b6a682f133852f6798a09c465da95921460cefb38474024989060200160405180910390a15b5050505050565b6108a16118a9565b7f4910fdfa16fed3260ed0e7147f7cc6da11a60208b5b9406d12a635614ffd91435460ff16156117205761171b83611ca4565b505050565b826001600160a01b03166352d1902d6040518163ffffffff1660e01b8152600401602060405180830381865afa92505050801561177a575060408051601f3d908101601f19168201909252611777918101906122da565b60015b6117dd5760405162461bcd60e51b815260206004820152602e60248201527f45524331393637557067726164653a206e657720696d706c656d656e7461746960448201526d6f6e206973206e6f74205555505360901b6064820152608401610806565b5f805160206125e5833981519152811461184b5760405162461bcd60e51b815260206004820152602960248201527f45524331393637557067726164653a20756e737570706f727465642070726f786044820152681a58589b195555525160ba1b6064820152608401610806565b5061171b838383611d3f565b61185f611b6f565b6033805460ff191690557f5db9ee0a495bf2e6ff9c91a7834c1ba4fdd244a5e8aa4e537bd38aeae4b073aa335b6040516001600160a01b03909116815260200160405180910390a1565b60fb546001600160a01b031633146108f15760405162461bcd60e51b815260206004820181905260248201527f4f776e61626c653a2063616c6c6572206973206e6f7420746865206f776e65726044820152606401610806565b60fb80546001600160a01b038381166001600160a01b0319831681179093556040519116919082907f8be0079c531659141344cd1fd0a4f28419497f9722a3daafe3b4186f6b6457e0905f90a35050565b61195c611991565b6033805460ff191660011790557f62e78cea01bee320cd4e420270b5ea74000d11b0c9f74754ebdbfc544b05a25861188c3390565b60335460ff16156108f15760405162461bcd60e51b815260206004820152601060248201526f14185d5cd8589b194e881c185d5cd95960821b6044820152606401610806565b600260655403611a295760405162461bcd60e51b815260206004820152601f60248201527f5265656e7472616e637947756172643a207265656e7472616e742063616c6c006044820152606401610806565b6002606555565b610131545f9081908190611a489060ff16600a612536565b610131549091505f90611a5f9060ff16600a612536565b611a6c90620f42406123bf565b9050818611611a7e5760019250611ab2565b808610611a8e5760149250611ab2565b80611a9a8760136123bf565b611aa491906123d6565b611aaf906001612423565b92505b5f856001600160a01b031663d830a05b6040518163ffffffff1660e01b8152600401602060405180830381865afa158015611aef573d5f803e3d5ffd5b505050506040513d601f19601f82011682018060405250810190611b1391906122da565b905080841115611b2857935061129a92505050565b509195945050505050565b611b408383836001611d63565b61171b57604051635274afe760e01b81526001600160a01b0384166004820152602401610806565b6001606555565b60335460ff166108f15760405162461bcd60e51b815260206004820152601460248201527314185d5cd8589b194e881b9bdd081c185d5cd95960621b6044820152606401610806565b611bc6848484846001611dc5565b611bee57604051635274afe760e01b81526001600160a01b0385166004820152602401610806565b50505050565b5f54610100900460ff16611c1a5760405162461bcd60e51b815260040161080690612544565b6108f1611e32565b5f54610100900460ff16611c485760405162461bcd60e51b815260040161080690612544565b6108f1611e61565b5f54610100900460ff16611c765760405162461bcd60e51b815260040161080690612544565b6108f1611e93565b5f54610100900460ff166108f15760405162461bcd60e51b815260040161080690612544565b6001600160a01b0381163b611d115760405162461bcd60e51b815260206004820152602d60248201527f455243313936373a206e657720696d706c656d656e746174696f6e206973206e60448201526c1bdd08184818dbdb9d1c9858dd609a1b6064820152608401610806565b5f805160206125e583398151915280546001600160a01b0319166001600160a01b0392909216919091179055565b611d4883611eb9565b5f82511180611d545750805b1561171b57611bee8383611ef8565b60405163a9059cbb60e01b5f8181526001600160a01b038616600452602485905291602083604481808b5af1925060015f51148316611db9578383151615611dad573d5f823e3d81fd5b5f873b113d1516831692505b60405250949350505050565b6040516323b872dd60e01b5f8181526001600160a01b038781166004528616602452604485905291602083606481808c5af1925060015f51148316611e21578383151615611e15573d5f823e3d81fd5b5f883b113d1516831692505b604052505f60605295945050505050565b5f54610100900460ff16611e585760405162461bcd60e51b815260040161080690612544565b6108f133611903565b5f54610100900460ff16611e875760405162461bcd60e51b815260040161080690612544565b6033805460ff19169055565b5f54610100900460ff16611b685760405162461bcd60e51b815260040161080690612544565b611ec281611ca4565b6040516001600160a01b038216907fbc7cd75a20ee27fd9adebab32041f755214dbc6bffa90cc0225b39da2e5c2d3b905f90a250565b6060611f1d838360405180606001604052806027815260200161260560279139611f24565b9392505050565b60605f80856001600160a01b031685604051611f4091906123a0565b5f60405180830381855af49150503d805f8114611f78576040519150601f19603f3d011682016040523d82523d5f602084013e611f7d565b606091505b5091509150611f8e86838387611f98565b9695505050505050565b606083156120065782515f03611fff576001600160a01b0385163b611fff5760405162461bcd60e51b815260206004820152601d60248201527f416464726573733a2063616c6c20746f206e6f6e2d636f6e74726163740000006044820152606401610806565b5081612010565b6120108383612018565b949350505050565b8151156120285781518083602001fd5b8060405162461bcd60e51b8152600401610806919061258f565b6001600160a01b03811681146108a1575f80fd5b5f60208284031215612066575f80fd5b8135611f1d81612042565b634e487b7160e01b5f52604160045260245ffd5b5f67ffffffffffffffff8084111561209f5761209f612071565b604051601f8501601f19908116603f011681019082821181831017156120c7576120c7612071565b816040528093508581528686860111156120df575f80fd5b858560208301375f602087830101525050509392505050565b5f8060408385031215612109575f80fd5b823561211481612042565b9150602083013567ffffffffffffffff81111561212f575f80fd5b8301601f8101851361213f575f80fd5b61214e85823560208401612085565b9150509250929050565b5f82601f830112612167575f80fd5b611f1d83833560208501612085565b5f60208284031215612186575f80fd5b813567ffffffffffffffff81111561219c575f80fd5b61201084828501612158565b5f80604083850312156121b9575f80fd5b82356121c481612042565b946020939093013593505050565b5f805f606084860312156121e4575f80fd5b83356121ef81612042565b925060208401359150604084013567ffffffffffffffff811115612211575f80fd5b61221d86828701612158565b9150509250925092565b5f60208284031215612237575f80fd5b5035919050565b5f806040838503121561224f575f80fd5b823561225a81612042565b9150602083013567ffffffffffffffff811115612275575f80fd5b61214e85828601612158565b5f805f8060808587031215612294575f80fd5b843561229f81612042565b935060208501356122af81612042565b925060408501356122bf81612042565b915060608501356122cf81612042565b939692955090935050565b5f602082840312156122ea575f80fd5b5051919050565b6020808252602c908201527f46756e6374696f6e206d7573742062652063616c6c6564207468726f7567682060408201526b19195b1959d85d1958d85b1b60a21b606082015260800190565b6020808252602c908201527f46756e6374696f6e206d7573742062652063616c6c6564207468726f7567682060408201526b6163746976652070726f787960a01b606082015260800190565b5f81518060208401855e5f93019283525090919050565b5f611f1d8284612389565b634e487b7160e01b5f52601160045260245ffd5b808202811582820484141761129a5761129a6123ab565b5f826123f057634e487b7160e01b5f52601260045260245ffd5b500490565b8181038181111561129a5761129a6123ab565b5f60208284031215612418575f80fd5b8151611f1d81612042565b8082018082111561129a5761129a6123ab565b5f60208284031215612446575f80fd5b815160ff81168114611f1d575f80fd5b600181815b8085111561249057815f1904821115612476576124766123ab565b8085161561248357918102915b93841c939080029061245b565b509250929050565b5f826124a65750600161129a565b816124b257505f61129a565b81600181146124c857600281146124d2576124ee565b600191505061129a565b60ff8411156124e3576124e36123ab565b50506001821b61129a565b5060208310610133831016604e8410600b8410161715612511575081810a61129a565b61251b8383612456565b805f190482111561252e5761252e6123ab565b029392505050565b5f611f1d60ff841683612498565b6020808252602b908201527f496e697469616c697a61626c653a20636f6e7472616374206973206e6f74206960408201526a6e697469616c697a696e6760a81b606082015260800190565b602081525f82518060208401528060208501604085015e5f604082850101526040601f19601f8301168401019150509291505056fed8356a6cf3e0979763d849f44f7f1405622b99f6229bc913bcfeda3a64d4b4fe360894a13ba1a3210667c828492db98dca3e2076cc3735a920a3ca505d382bbc416464726573733a206c6f772d6c6576656c2064656c65676174652063616c6c206661696c6564a164736f6c6343000819000a","linkReferences":{}},"methodIdentifiers":{"BASE_FEE_TIER_1()":"10128cae","BASE_FEE_TIER_2()":"e05cd14e","BASE_FEE_TIER_3()":"86aebad2","BASE_FEE_TIER_4()":"ddd429b1","BASE_FEE_TIER_5()":"5370aca2","FEE_DENOMINATOR()":"d73792a9","PROFIT_THRESHOLD_1()":"f45d0a98","PROFIT_THRESHOLD_2()":"21c0efa0","PROFIT_THRESHOLD_3()":"ca7e4ed1","PROFIT_THRESHOLD_4()":"099f89b4","balances(address)":"27e235e3","commodityTotalProfits(string)":"6511f900","deposit(uint256)":"b6b55f25","emergencyWithdraw(address,uint256)":"95ccea67","factory()":"c45a0155","getCommodityTotalProfits(string)":"81b2de2c","getSupplyChainProfits(address)":"f9f13315","getUserCommodityProfits(address,string)":"c875d3c1","initialize(address,address,address,address)":"f8c8765e","ledger()":"56397c35","owner()":"8da5cb5b","pause()":"8456cb59","paused()":"5c975abb","profits(address)":"cc85f080","proxiableUUID()":"52d1902d","registerProfit(address,uint256)":"ad4fc0b7","registerSupplyChainProfit(address,uint256,string)":"aff7da59","renounceOwnership()":"715018a6","supplyChainProfits(address)":"d4a0ca33","token()":"fc0c546a","tokenDecimals()":"3b97e856","totalAssets()":"01e1d114","totalValueLocked()":"ec18154e","transferOwnership(address)":"f2fde38b","unpause()":"3f4ba83a","upgradeTo(address)":"3659cfe6","upgradeToAndCall(address,bytes)":"4f1ef286","userCommodityProfits(address,string)":"de763a4f","userPerformances(address)":"36fc5d9a","withdrawCapital(uint256)":"d95b0a12","withdrawProfit()":"959499b6"},"id":2}