{
  "_format": "hh-sol-artifact-1",
  "contractName": "TrudeAffiliate",
  "sourceName": "contracts/TrudeAffiliate.sol",
  "abi": [
    {
      "inputs": [],
      "name": "ZeroAffiliate",
      "type": "error"
    },
    {
      "inputs": [],
      "name": "ZeroAmount",
      "type": "error"
    },
    {
      "anonymous": false,
      "inputs": [
        {
          "indexed": true,
          "internalType": "address",
          "name": "affiliate",
          "type": "address"
        },
        {
          "indexed": false,
          "internalType": "uint256",
          "name": "amount",
          "type": "uint256"
        }
      ],
      "name": "AffiliatePaid",
      "type": "event"
    },
    {
      "anonymous": false,
      "inputs": [
        {
          "indexed": false,
          "internalType": "uint8",
          "name": "version",
          "type": "uint8"
        }
      ],
      "name": "Initialized",
      "type": "event"
    },
    {
      "anonymous": false,
      "inputs": [
        {
          "indexed": true,
          "internalType": "address",
          "name": "previousOwner",
          "type": "address"
        },
        {
          "indexed": true,
          "internalType": "address",
          "name": "newOwner",
          "type": "address"
        }
      ],
      "name": "OwnershipTransferred",
      "type": "event"
    },
    {
      "inputs": [
        {
          "internalType": "address",
          "name": "affiliate",
          "type": "address"
        }
      ],
      "name": "getAffiliateEarnings",
      "outputs": [
        {
          "internalType": "uint256",
          "name": "",
          "type": "uint256"
        }
      ],
      "stateMutability": "view",
      "type": "function"
    },
    {
      "inputs": [
        {
          "internalType": "address",
          "name": "_owner",
          "type": "address"
        }
      ],
      "name": "initialize",
      "outputs": [],
      "stateMutability": "nonpayable",
      "type": "function"
    },
    {
      "inputs": [],
      "name": "owner",
      "outputs": [
        {
          "internalType": "address",
          "name": "",
          "type": "address"
        }
      ],
      "stateMutability": "view",
      "type": "function"
    },
    {
      "inputs": [
        {
          "internalType": "address",
          "name": "affiliate",
          "type": "address"
        },
        {
          "internalType": "uint256",
          "name": "amount",
          "type": "uint256"
        }
      ],
      "name": "recordAffiliateEarning",
      "outputs": [],
      "stateMutability": "nonpayable",
      "type": "function"
    },
    {
      "inputs": [],
      "name": "renounceOwnership",
      "outputs": [],
      "stateMutability": "nonpayable",
      "type": "function"
    },
    {
      "inputs": [
        {
          "internalType": "address",
          "name": "",
          "type": "address"
        }
      ],
      "name": "totalAffiliateEarnings",
      "outputs": [
        {
          "internalType": "uint256",
          "name": "",
          "type": "uint256"
        }
      ],
      "stateMutability": "view",
      "type": "function"
    },
    {
      "inputs": [
        {
          "internalType": "address",
          "name": "newOwner",
          "type": "address"
        }
      ],
      "name": "transferOwnership",
      "outputs": [],
      "stateMutability": "nonpayable",
      "type": "function"
    }
  ],
  "bytecode": "0x6080604052348015600f57600080fd5b506105be8061001f6000396000f3fe608060405234801561001057600080fd5b506004361061007d5760003560e01c8063a3dc079b1161005b578063a3dc079b146100e3578063bfcdd28314610103578063c4d66de814610116578063f2fde38b1461012957600080fd5b8063715018a6146100825780638675ad9c1461008c5780638da5cb5b146100c8575b600080fd5b61008a61013c565b005b6100b561009a3660046104ca565b6001600160a01b031660009081526065602052604090205490565b6040519081526020015b60405180910390f35b6033546040516001600160a01b0390911681526020016100bf565b6100b56100f13660046104ca565b60656020526000908152604090205481565b61008a6101113660046104ec565b610150565b61008a6101243660046104ca565b61020f565b61008a6101373660046104ca565b61032f565b6101446103a8565b61014e6000610402565b565b6101586103a8565b6001600160a01b03821661017f57604051637532dff760e11b815260040160405180910390fd5b806000036101a057604051631f2a200560e01b815260040160405180910390fd5b6001600160a01b038216600090815260656020526040812080548392906101c8908490610516565b90915550506040518181526001600160a01b038316907f8d73050643cda30af17081818b09a59cd6e7aba6049abbc1eb70789740b7327b9060200160405180910390a25050565b600054610100900460ff161580801561022f5750600054600160ff909116105b806102495750303b158015610249575060005460ff166001145b6102b15760405162461bcd60e51b815260206004820152602e60248201527f496e697469616c697a61626c653a20636f6e747261637420697320616c72656160448201526d191e481a5b9a5d1a585b1a5e995960921b60648201526084015b60405180910390fd5b6000805460ff1916600117905580156102d4576000805461ff0019166101001790555b6102dc610454565b6102e58261032f565b801561032b576000805461ff0019169055604051600181527f7f26b83ff96e1f2b6a682f133852f6798a09c465da95921460cefb38474024989060200160405180910390a15b5050565b6103376103a8565b6001600160a01b03811661039c5760405162461bcd60e51b815260206004820152602660248201527f4f776e61626c653a206e6577206f776e657220697320746865207a65726f206160448201526564647265737360d01b60648201526084016102a8565b6103a581610402565b50565b6033546001600160a01b0316331461014e5760405162461bcd60e51b815260206004820181905260248201527f4f776e61626c653a2063616c6c6572206973206e6f7420746865206f776e657260448201526064016102a8565b603380546001600160a01b038381166001600160a01b0319831681179093556040519116919082907f8be0079c531659141344cd1fd0a4f28419497f9722a3daafe3b4186f6b6457e090600090a35050565b600054610100900460ff1661047b5760405162461bcd60e51b81526004016102a89061053d565b61014e600054610100900460ff166104a55760405162461bcd60e51b81526004016102a89061053d565b61014e33610402565b80356001600160a01b03811681146104c557600080fd5b919050565b6000602082840312156104dc57600080fd5b6104e5826104ae565b9392505050565b600080604083850312156104ff57600080fd5b610508836104ae565b946020939093013593505050565b8082018082111561053757634e487b7160e01b600052601160045260246000fd5b92915050565b6020808252602b908201527f496e697469616c697a61626c653a20636f6e7472616374206973206e6f74206960408201526a6e697469616c697a696e6760a81b60608201526080019056fea2646970667358221220fef3e778d97248206a6d0529f675ce4e9f1dec6fee8be8f2a65e7414e362dbcc64736f6c63430008190033",
  "linkReferences": {},
  "deployedLinkReferences": {}
}