{
  "_format": "hh-sol-artifact-1",
  "contractName": "TrudeVault",
  "sourceName": "contracts/TrudeVault.sol",
  "abi": [
    {
      "inputs": [],
      "name": "BelowMin",
      "type": "error"
    },
    {
      "inputs": [],
      "name": "NoProfit",
      "type": "error"
    },
    {
      "inputs": [],
      "name": "NotAuthorized",
      "type": "error"
    },
    {
      "inputs": [],
      "name": "NotFactory",
      "type": "error"
    },
    {
      "inputs": [
        {
          "internalType": "address",
          "name": "token",
          "type": "address"
        }
      ],
      "name": "SafeERC20FailedOperation",
      "type": "error"
    },
    {
      "inputs": [],
      "name": "ZeroAddress",
      "type": "error"
    },
    {
      "inputs": [],
      "name": "ZeroAmount",
      "type": "error"
    },
    {
      "inputs": [],
      "name": "ZeroToken",
      "type": "error"
    },
    {
      "anonymous": false,
      "inputs": [
        {
          "indexed": false,
          "internalType": "address",
          "name": "previousAdmin",
          "type": "address"
        },
        {
          "indexed": false,
          "internalType": "address",
          "name": "newAdmin",
          "type": "address"
        }
      ],
      "name": "AdminChanged",
      "type": "event"
    },
    {
      "anonymous": false,
      "inputs": [
        {
          "indexed": true,
          "internalType": "address",
          "name": "beacon",
          "type": "address"
        }
      ],
      "name": "BeaconUpgraded",
      "type": "event"
    },
    {
      "anonymous": false,
      "inputs": [
        {
          "indexed": true,
          "internalType": "address",
          "name": "user",
          "type": "address"
        },
        {
          "indexed": false,
          "internalType": "uint256",
          "name": "amount",
          "type": "uint256"
        }
      ],
      "name": "Deposit",
      "type": "event"
    },
    {
      "anonymous": false,
      "inputs": [
        {
          "indexed": false,
          "internalType": "uint8",
          "name": "version",
          "type": "uint8"
        }
      ],
      "name": "Initialized",
      "type": "event"
    },
    {
      "anonymous": false,
      "inputs": [
        {
          "indexed": true,
          "internalType": "address",
          "name": "previousOwner",
          "type": "address"
        },
        {
          "indexed": true,
          "internalType": "address",
          "name": "newOwner",
          "type": "address"
        }
      ],
      "name": "OwnershipTransferred",
      "type": "event"
    },
    {
      "anonymous": false,
      "inputs": [
        {
          "indexed": false,
          "internalType": "address",
          "name": "account",
          "type": "address"
        }
      ],
      "name": "Paused",
      "type": "event"
    },
    {
      "anonymous": false,
      "inputs": [
        {
          "indexed": true,
          "internalType": "address",
          "name": "user",
          "type": "address"
        },
        {
          "indexed": false,
          "internalType": "uint256",
          "name": "profit",
          "type": "uint256"
        }
      ],
      "name": "ProfitRegistered",
      "type": "event"
    },
    {
      "anonymous": false,
      "inputs": [
        {
          "indexed": false,
          "internalType": "uint256",
          "name": "previousTVL",
          "type": "uint256"
        },
        {
          "indexed": false,
          "internalType": "uint256",
          "name": "newTVL",
          "type": "uint256"
        }
      ],
      "name": "TVLUpdated",
      "type": "event"
    },
    {
      "anonymous": false,
      "inputs": [
        {
          "indexed": false,
          "internalType": "address",
          "name": "account",
          "type": "address"
        }
      ],
      "name": "Unpaused",
      "type": "event"
    },
    {
      "anonymous": false,
      "inputs": [
        {
          "indexed": true,
          "internalType": "address",
          "name": "implementation",
          "type": "address"
        }
      ],
      "name": "Upgraded",
      "type": "event"
    },
    {
      "anonymous": false,
      "inputs": [
        {
          "indexed": true,
          "internalType": "address",
          "name": "user",
          "type": "address"
        },
        {
          "indexed": false,
          "internalType": "uint256",
          "name": "amount",
          "type": "uint256"
        },
        {
          "indexed": false,
          "internalType": "uint256",
          "name": "fee",
          "type": "uint256"
        }
      ],
      "name": "Withdraw",
      "type": "event"
    },
    {
      "inputs": [
        {
          "internalType": "address",
          "name": "",
          "type": "address"
        }
      ],
      "name": "balances",
      "outputs": [
        {
          "internalType": "uint256",
          "name": "",
          "type": "uint256"
        }
      ],
      "stateMutability": "view",
      "type": "function"
    },
    {
      "inputs": [
        {
          "internalType": "uint256",
          "name": "amount",
          "type": "uint256"
        }
      ],
      "name": "deposit",
      "outputs": [],
      "stateMutability": "nonpayable",
      "type": "function"
    },
    {
      "inputs": [
        {
          "internalType": "address",
          "name": "to",
          "type": "address"
        },
        {
          "internalType": "uint256",
          "name": "amount",
          "type": "uint256"
        }
      ],
      "name": "emergencyWithdraw",
      "outputs": [],
      "stateMutability": "nonpayable",
      "type": "function"
    },
    {
      "inputs": [],
      "name": "factory",
      "outputs": [
        {
          "internalType": "address",
          "name": "",
          "type": "address"
        }
      ],
      "stateMutability": "view",
      "type": "function"
    },
    {
      "inputs": [
        {
          "internalType": "address",
          "name": "_factory",
          "type": "address"
        },
        {
          "internalType": "address",
          "name": "_token",
          "type": "address"
        },
        {
          "internalType": "address",
          "name": "_owner",
          "type": "address"
        },
        {
          "internalType": "address",
          "name": "_ledger",
          "type": "address"
        }
      ],
      "name": "initialize",
      "outputs": [],
      "stateMutability": "nonpayable",
      "type": "function"
    },
    {
      "inputs": [],
      "name": "ledger",
      "outputs": [
        {
          "internalType": "address",
          "name": "",
          "type": "address"
        }
      ],
      "stateMutability": "view",
      "type": "function"
    },
    {
      "inputs": [],
      "name": "owner",
      "outputs": [
        {
          "internalType": "address",
          "name": "",
          "type": "address"
        }
      ],
      "stateMutability": "view",
      "type": "function"
    },
    {
      "inputs": [],
      "name": "pause",
      "outputs": [],
      "stateMutability": "nonpayable",
      "type": "function"
    },
    {
      "inputs": [],
      "name": "paused",
      "outputs": [
        {
          "internalType": "bool",
          "name": "",
          "type": "bool"
        }
      ],
      "stateMutability": "view",
      "type": "function"
    },
    {
      "inputs": [
        {
          "internalType": "address",
          "name": "",
          "type": "address"
        }
      ],
      "name": "profits",
      "outputs": [
        {
          "internalType": "uint256",
          "name": "",
          "type": "uint256"
        }
      ],
      "stateMutability": "view",
      "type": "function"
    },
    {
      "inputs": [],
      "name": "proxiableUUID",
      "outputs": [
        {
          "internalType": "bytes32",
          "name": "",
          "type": "bytes32"
        }
      ],
      "stateMutability": "view",
      "type": "function"
    },
    {
      "inputs": [
        {
          "internalType": "address",
          "name": "user",
          "type": "address"
        },
        {
          "internalType": "uint256",
          "name": "profit",
          "type": "uint256"
        }
      ],
      "name": "registerProfit",
      "outputs": [],
      "stateMutability": "nonpayable",
      "type": "function"
    },
    {
      "inputs": [],
      "name": "renounceOwnership",
      "outputs": [],
      "stateMutability": "nonpayable",
      "type": "function"
    },
    {
      "inputs": [],
      "name": "token",
      "outputs": [
        {
          "internalType": "address",
          "name": "",
          "type": "address"
        }
      ],
      "stateMutability": "view",
      "type": "function"
    },
    {
      "inputs": [],
      "name": "totalAssets",
      "outputs": [
        {
          "internalType": "uint256",
          "name": "",
          "type": "uint256"
        }
      ],
      "stateMutability": "view",
      "type": "function"
    },
    {
      "inputs": [],
      "name": "totalValueLocked",
      "outputs": [
        {
          "internalType": "uint256",
          "name": "",
          "type": "uint256"
        }
      ],
      "stateMutability": "view",
      "type": "function"
    },
    {
      "inputs": [
        {
          "internalType": "address",
          "name": "newOwner",
          "type": "address"
        }
      ],
      "name": "transferOwnership",
      "outputs": [],
      "stateMutability": "nonpayable",
      "type": "function"
    },
    {
      "inputs": [],
      "name": "unpause",
      "outputs": [],
      "stateMutability": "nonpayable",
      "type": "function"
    },
    {
      "inputs": [
        {
          "internalType": "address",
          "name": "newImplementation",
          "type": "address"
        }
      ],
      "name": "upgradeTo",
      "outputs": [],
      "stateMutability": "nonpayable",
      "type": "function"
    },
    {
      "inputs": [
        {
          "internalType": "address",
          "name": "newImplementation",
          "type": "address"
        },
        {
          "internalType": "bytes",
          "name": "data",
          "type": "bytes"
        }
      ],
      "name": "upgradeToAndCall",
      "outputs": [],
      "stateMutability": "payable",
      "type": "function"
    },
    {
      "inputs": [],
      "name": "withdrawProfit",
      "outputs": [],
      "stateMutability": "nonpayable",
      "type": "function"
    }
  ],
  "bytecode": "0x60a060405230608052348015601357600080fd5b50608051611ce361004b600039600081816104410152818161048a01528181610578015281816105b8015261064b0152611ce36000f3fe60806040526004361061012a5760003560e01c80638da5cb5b116100ab578063c45a01551161006f578063c45a0155146102fd578063cc85f0801461031e578063ec18154e1461034c578063f2fde38b14610363578063f8c8765e14610383578063fc0c546a146103a357600080fd5b80638da5cb5b1461026a578063959499b61461028857806395ccea671461029d578063ad4fc0b7146102bd578063b6b55f25146102dd57600080fd5b806352d1902d116100f257806352d1902d146101cf57806356397c35146101e45780635c975abb1461021d578063715018a6146102405780638456cb591461025557600080fd5b806301e1d1141461012f57806327e235e3146101575780633659cfe6146101855780633f4ba83a146101a75780634f1ef286146101bc575b600080fd5b34801561013b57600080fd5b506101446103c4565b6040519081526020015b60405180910390f35b34801561016357600080fd5b506101446101723660046118ad565b6101316020526000908152604090205481565b34801561019157600080fd5b506101a56101a03660046118ad565b610437565b005b3480156101b357600080fd5b506101a561051f565b6101a56101ca3660046118e0565b61056e565b3480156101db57600080fd5b5061014461063e565b3480156101f057600080fd5b5061012f54610205906001600160a01b031681565b6040516001600160a01b03909116815260200161014e565b34801561022957600080fd5b5060335460ff16604051901515815260200161014e565b34801561024c57600080fd5b506101a56106f1565b34801561026157600080fd5b506101a5610703565b34801561027657600080fd5b5060fb546001600160a01b0316610205565b34801561029457600080fd5b506101a5610750565b3480156102a957600080fd5b506101a56102b83660046119a4565b610a37565b3480156102c957600080fd5b506101a56102d83660046119a4565b610ad7565b3480156102e957600080fd5b506101a56102f83660046119d0565b610baa565b34801561030957600080fd5b5061012d54610205906001600160a01b031681565b34801561032a57600080fd5b506101446103393660046118ad565b6101326020526000908152604090205481565b34801561035857600080fd5b506101446101305481565b34801561036f57600080fd5b506101a561037e3660046118ad565b610d29565b34801561038f57600080fd5b506101a561039e3660046119e9565b610d9f565b3480156103af57600080fd5b5061012e54610205906001600160a01b031681565b61012e546040516370a0823160e01b81523060048201526000916001600160a01b0316906370a0823190602401602060405180830381865afa15801561040e573d6000803e3d6000fd5b505050506040513d601f19601f820116820180604052508101906104329190611a45565b905090565b6001600160a01b037f00000000000000000000000000000000000000000000000000000000000000001630036104885760405162461bcd60e51b815260040161047f90611a5e565b60405180910390fd5b7f00000000000000000000000000000000000000000000000000000000000000006001600160a01b03166104d1600080516020611c67833981519152546001600160a01b031690565b6001600160a01b0316146104f75760405162461bcd60e51b815260040161047f90611aaa565b61050081610f77565b6040805160008082526020820190925261051c91839190610f7f565b50565b60fb546001600160a01b03163314801590610546575061012f546001600160a01b03163314155b156105645760405163ea8e4eb560e01b815260040160405180910390fd5b61056c6110ef565b565b6001600160a01b037f00000000000000000000000000000000000000000000000000000000000000001630036105b65760405162461bcd60e51b815260040161047f90611a5e565b7f00000000000000000000000000000000000000000000000000000000000000006001600160a01b03166105ff600080516020611c67833981519152546001600160a01b031690565b6001600160a01b0316146106255760405162461bcd60e51b815260040161047f90611aaa565b61062e82610f77565b61063a82826001610f7f565b5050565b6000306001600160a01b037f000000000000000000000000000000000000000000000000000000000000000016146106de5760405162461bcd60e51b815260206004820152603860248201527f555550535570677261646561626c653a206d757374206e6f742062652063616c60448201527f6c6564207468726f7567682064656c656761746563616c6c0000000000000000606482015260840161047f565b50600080516020611c6783398151915290565b6106f9611141565b61056c600061119b565b60fb546001600160a01b0316331480159061072a575061012f546001600160a01b03163314155b156107485760405163ea8e4eb560e01b815260040160405180910390fd5b61056c6111ed565b61075861122a565b610760611270565b336000908152610132602052604081205490819003610792576040516371cd57f760e11b815260040160405180910390fd5b3360009081526101326020526040812081905561012d5461012e546001600160a01b03918216929116906107c684846112c9565b9050600060646107d68387611b0c565b6107e09190611b23565b905060006107ee8287611b45565b6040516311c16c8960e31b81523360048201529091506000906001600160a01b03871690638e0b644890602401602060405180830381865afa158015610838573d6000803e3d6000fd5b505050506040513d601f19601f8201168201806040525081019061085c9190611b58565b90506001600160a01b0381161561096d576000866001600160a01b0316635b4079c96040518163ffffffff1660e01b8152600401602060405180830381865afa1580156108ad573d6000803e3d6000fd5b505050506040513d601f19601f820116820180604052508101906108d19190611a45565b905060006127106108e28387611b0c565b6108ec9190611b23565b90506109026001600160a01b03881684836113ab565b60405163bfcdd28360e01b81526001600160a01b0384811660048301526024820183905289169063bfcdd28390604401600060405180830381600087803b15801561094c57600080fd5b505af192505050801561095d575060015b506109688186611b45565b945050505b600061098160fb546001600160a01b031690565b90506109976001600160a01b03871682866113ab565b6109ab6001600160a01b03871633856113ab565b610130546109b98982611b45565b61013055604080518581526020810187905233917ff279e6a1f5e320cca91135676d9cb6e44ca8a08c0b88342bcdb1144f6511b568910160405180910390a261013054604080518381526020810192909252600080516020611c47833981519152910160405180910390a150505050505050505061056c6001606555565b610a3f611411565b610a47611141565b6001600160a01b038216610a6e5760405163d92e233d60e01b815260040160405180910390fd5b61012e54610a86906001600160a01b031683836113ab565b6101305481811015610a99576000610aa3565b610aa38282611b45565b610130819055604080518381526020810192909252600080516020611c4783398151915291015b60405180910390a1505050565b61012d546001600160a01b03163314610b0357604051631966391b60e11b815260040160405180910390fd5b6001600160a01b0382166000908152610132602052604081208054839290610b2c908490611b75565b909155505061013054610b3f8282611b75565b610130556040518281526001600160a01b038416907f4090b754027c4095648ced2461cd86dadab1b444745a3e79c68ddd9596750eb89060200160405180910390a261013054604080518381526020810192909252600080516020611c478339815191529101610aca565b610bb261122a565b610bba611270565b80600003610bdb57604051631f2a200560e01b815260040160405180910390fd5b61012d54604080516341b3d18560e01b815290516001600160a01b039092169182916341b3d1859160048083019260209291908290030181865afa158015610c27573d6000803e3d6000fd5b505050506040513d601f19601f82011682018060405250810190610c4b9190611a45565b821015610c6b576040516310906acb60e01b815260040160405180910390fd5b61012e546001600160a01b0316610c848133308661145a565b336000908152610131602052604081208054859290610ca4908490611b75565b909155505061013054610cb78482611b75565b6101305560405184815233907fe1fffcc4923d04b559f4d29a8bfc6cda04eb5b0d3c460751c2402c5c5cc9109c9060200160405180910390a261013054604080518381526020810192909252600080516020611c47833981519152910160405180910390a150505061051c6001606555565b610d31611141565b6001600160a01b038116610d965760405162461bcd60e51b815260206004820152602660248201527f4f776e61626c653a206e6577206f776e657220697320746865207a65726f206160448201526564647265737360d01b606482015260840161047f565b61051c8161119b565b600054610100900460ff1615808015610dbf5750600054600160ff909116105b80610dd95750303b158015610dd9575060005460ff166001145b610e3c5760405162461bcd60e51b815260206004820152602e60248201527f496e697469616c697a61626c653a20636f6e747261637420697320616c72656160448201526d191e481a5b9a5d1a585b1a5e995960921b606482015260840161047f565b6000805460ff191660011790558015610e5f576000805461ff0019166101001790555b610e67611499565b610e7083610d29565b610e786114c8565b610e806114f7565b610e88611526565b6001600160a01b0385161580610ea557506001600160a01b038216155b15610ec35760405163d92e233d60e01b815260040160405180910390fd5b6001600160a01b038416610eea5760405163ad1991f560e01b815260040160405180910390fd5b61012d80546001600160a01b038088166001600160a01b03199283161790925561012e805487841690831617905561012f8054928516929091169190911790558015610f70576000805461ff0019169055604051600181527f7f26b83ff96e1f2b6a682f133852f6798a09c465da95921460cefb38474024989060200160405180910390a15b5050505050565b61051c611141565b7f4910fdfa16fed3260ed0e7147f7cc6da11a60208b5b9406d12a635614ffd91435460ff1615610fb757610fb28361154d565b505050565b826001600160a01b03166352d1902d6040518163ffffffff1660e01b8152600401602060405180830381865afa925050508015611011575060408051601f3d908101601f1916820190925261100e91810190611a45565b60015b6110745760405162461bcd60e51b815260206004820152602e60248201527f45524331393637557067726164653a206e657720696d706c656d656e7461746960448201526d6f6e206973206e6f74205555505360901b606482015260840161047f565b600080516020611c6783398151915281146110e35760405162461bcd60e51b815260206004820152602960248201527f45524331393637557067726164653a20756e737570706f727465642070726f786044820152681a58589b195555525160ba1b606482015260840161047f565b50610fb28383836115e9565b6110f7611411565b6033805460ff191690557f5db9ee0a495bf2e6ff9c91a7834c1ba4fdd244a5e8aa4e537bd38aeae4b073aa335b6040516001600160a01b03909116815260200160405180910390a1565b60fb546001600160a01b0316331461056c5760405162461bcd60e51b815260206004820181905260248201527f4f776e61626c653a2063616c6c6572206973206e6f7420746865206f776e6572604482015260640161047f565b60fb80546001600160a01b038381166001600160a01b0319831681179093556040519116919082907f8be0079c531659141344cd1fd0a4f28419497f9722a3daafe3b4186f6b6457e090600090a35050565b6111f561122a565b6033805460ff191660011790557f62e78cea01bee320cd4e420270b5ea74000d11b0c9f74754ebdbfc544b05a2586111243390565b60335460ff161561056c5760405162461bcd60e51b815260206004820152601060248201526f14185d5cd8589b194e881c185d5cd95960821b604482015260640161047f565b6002606554036112c25760405162461bcd60e51b815260206004820152601f60248201527f5265656e7472616e637947756172643a207265656e7472616e742063616c6c00604482015260640161047f565b6002606555565b600080670de0b6b3a764000084116112e35750600161132a565b69d3c21bcecceda100000084106112fc5750601461132a565b69d3c21bcecceda1000000611312856013611b0c565b61131c9190611b23565b611327906001611b75565b90505b6000836001600160a01b031663d830a05b6040518163ffffffff1660e01b8152600401602060405180830381865afa15801561136a573d6000803e3d6000fd5b505050506040513d601f19601f8201168201806040525081019061138e9190611a45565b9050808211156113a15791506113a59050565b5090505b92915050565b6040516001600160a01b03838116602483015260448201839052610fb291859182169063a9059cbb906064015b604051602081830303815290604052915060e01b6020820180516001600160e01b03838183161783525050505061160e565b6001606555565b60335460ff1661056c5760405162461bcd60e51b815260206004820152601460248201527314185d5cd8589b194e881b9bdd081c185d5cd95960621b604482015260640161047f565b6040516001600160a01b0384811660248301528381166044830152606482018390526114939186918216906323b872dd906084016113d8565b50505050565b600054610100900460ff166114c05760405162461bcd60e51b815260040161047f90611b88565b61056c61167f565b600054610100900460ff166114ef5760405162461bcd60e51b815260040161047f90611b88565b61056c6116af565b600054610100900460ff1661151e5760405162461bcd60e51b815260040161047f90611b88565b61056c6116e2565b600054610100900460ff1661056c5760405162461bcd60e51b815260040161047f90611b88565b6001600160a01b0381163b6115ba5760405162461bcd60e51b815260206004820152602d60248201527f455243313936373a206e657720696d706c656d656e746174696f6e206973206e60448201526c1bdd08184818dbdb9d1c9858dd609a1b606482015260840161047f565b600080516020611c6783398151915280546001600160a01b0319166001600160a01b0392909216919091179055565b6115f283611709565b6000825111806115ff5750805b15610fb2576114938383611749565b600080602060008451602086016000885af180611631576040513d6000823e3d81fd5b50506000513d91508115611649578060011415611656565b6001600160a01b0384163b155b1561149357604051635274afe760e01b81526001600160a01b038516600482015260240161047f565b600054610100900460ff166116a65760405162461bcd60e51b815260040161047f90611b88565b61056c3361119b565b600054610100900460ff166116d65760405162461bcd60e51b815260040161047f90611b88565b6033805460ff19169055565b600054610100900460ff1661140a5760405162461bcd60e51b815260040161047f90611b88565b6117128161154d565b6040516001600160a01b038216907fbc7cd75a20ee27fd9adebab32041f755214dbc6bffa90cc0225b39da2e5c2d3b90600090a250565b606061176e8383604051806060016040528060278152602001611c8760279139611775565b9392505050565b6060600080856001600160a01b0316856040516117929190611bf7565b600060405180830381855af49150503d80600081146117cd576040519150601f19603f3d011682016040523d82523d6000602084013e6117d2565b606091505b50915091506117e3868383876117ed565b9695505050505050565b6060831561185c578251600003611855576001600160a01b0385163b6118555760405162461bcd60e51b815260206004820152601d60248201527f416464726573733a2063616c6c20746f206e6f6e2d636f6e7472616374000000604482015260640161047f565b5081611866565b611866838361186e565b949350505050565b81511561187e5781518083602001fd5b8060405162461bcd60e51b815260040161047f9190611c13565b6001600160a01b038116811461051c57600080fd5b6000602082840312156118bf57600080fd5b813561176e81611898565b634e487b7160e01b600052604160045260246000fd5b600080604083850312156118f357600080fd5b82356118fe81611898565b9150602083013567ffffffffffffffff8082111561191b57600080fd5b818501915085601f83011261192f57600080fd5b813581811115611941576119416118ca565b604051601f8201601f19908116603f01168101908382118183101715611969576119696118ca565b8160405282815288602084870101111561198257600080fd5b8260208601602083013760006020848301015280955050505050509250929050565b600080604083850312156119b757600080fd5b82356119c281611898565b946020939093013593505050565b6000602082840312156119e257600080fd5b5035919050565b600080600080608085870312156119ff57600080fd5b8435611a0a81611898565b93506020850135611a1a81611898565b92506040850135611a2a81611898565b91506060850135611a3a81611898565b939692955090935050565b600060208284031215611a5757600080fd5b5051919050565b6020808252602c908201527f46756e6374696f6e206d7573742062652063616c6c6564207468726f7567682060408201526b19195b1959d85d1958d85b1b60a21b606082015260800190565b6020808252602c908201527f46756e6374696f6e206d7573742062652063616c6c6564207468726f7567682060408201526b6163746976652070726f787960a01b606082015260800190565b634e487b7160e01b600052601160045260246000fd5b80820281158282048414176113a5576113a5611af6565b600082611b4057634e487b7160e01b600052601260045260246000fd5b500490565b818103818111156113a5576113a5611af6565b600060208284031215611b6a57600080fd5b815161176e81611898565b808201808211156113a5576113a5611af6565b6020808252602b908201527f496e697469616c697a61626c653a20636f6e7472616374206973206e6f74206960408201526a6e697469616c697a696e6760a81b606082015260800190565b60005b83811015611bee578181015183820152602001611bd6565b50506000910152565b60008251611c09818460208701611bd3565b9190910192915050565b6020815260008251806020840152611c32816040850160208701611bd3565b601f01601f1916919091016040019291505056fed8356a6cf3e0979763d849f44f7f1405622b99f6229bc913bcfeda3a64d4b4fe360894a13ba1a3210667c828492db98dca3e2076cc3735a920a3ca505d382bbc416464726573733a206c6f772d6c6576656c2064656c65676174652063616c6c206661696c6564a26469706673582212201ec8363e748af1dee414fb2689ae33ec839e82011a6c052a4b868b0e42dd4b5c64736f6c63430008190033",
  "linkReferences": {},
  "deployedLinkReferences": {}
}