{"abi":[{"type":"function","name":"affiliateOf","inputs":[{"name":"","type":"address","internalType":"address"}],"outputs":[{"name":"","type":"address","internalType":"address"}],"stateMutability":"view"},{"type":"function","name":"affiliateShareBps","inputs":[],"outputs":[{"name":"","type":"uint256","internalType":"uint256"}],"stateMutability":"view"},{"type":"function","name":"affiliateTracker","inputs":[],"outputs":[{"name":"","type":"address","internalType":"address"}],"stateMutability":"view"},{"type":"function","name":"createVault","inputs":[{"name":"_token","type":"address","internalType":"address"}],"outputs":[{"name":"","type":"address","internalType":"address"}],"stateMutability":"nonpayable"},{"type":"function","name":"initialize","inputs":[{"name":"_owner","type":"address","internalType":"address"},{"name":"_ledger","type":"address","internalType":"address"},{"name":"_minDeposit","type":"uint256","internalType":"uint256"}],"outputs":[],"stateMutability":"nonpayable"},{"type":"function","name":"isVault","inputs":[{"name":"","type":"address","internalType":"address"}],"outputs":[{"name":"","type":"bool","internalType":"bool"}],"stateMutability":"view"},{"type":"function","name":"ledger","inputs":[],"outputs":[{"name":"","type":"address","internalType":"address"}],"stateMutability":"view"},{"type":"function","name":"maxFeePercent","inputs":[],"outputs":[{"name":"","type":"uint256","internalType":"uint256"}],"stateMutability":"view"},{"type":"function","name":"minDeposit","inputs":[],"outputs":[{"name":"","type":"uint256","internalType":"uint256"}],"stateMutability":"view"},{"type":"function","name":"owner","inputs":[],"outputs":[{"name":"","type":"address","internalType":"address"}],"stateMutability":"view"},{"type":"function","name":"pause","inputs":[],"outputs":[],"stateMutability":"nonpayable"},{"type":"function","name":"paused","inputs":[],"outputs":[{"name":"","type":"bool","internalType":"bool"}],"stateMutability":"view"},{"type":"function","name":"proxiableUUID","inputs":[],"outputs":[{"name":"","type":"bytes32","internalType":"bytes32"}],"stateMutability":"view"},{"type":"function","name":"recordAffiliateEarning","inputs":[{"name":"affiliate","type":"address","internalType":"address"},{"name":"amount","type":"uint256","internalType":"uint256"}],"outputs":[],"stateMutability":"nonpayable"},{"type":"function","name":"registerAffiliate","inputs":[{"name":"user","type":"address","internalType":"address"},{"name":"referrer","type":"address","internalType":"address"}],"outputs":[],"stateMutability":"nonpayable"},{"type":"function","name":"registerProfitFor","inputs":[{"name":"vault","type":"address","internalType":"address"},{"name":"user","type":"address","internalType":"address"},{"name":"profit","type":"uint256","internalType":"uint256"}],"outputs":[],"stateMutability":"nonpayable"},{"type":"function","name":"renounceOwnership","inputs":[],"outputs":[],"stateMutability":"nonpayable"},{"type":"function","name":"setAffiliateShareBps","inputs":[{"name":"_newShareBps","type":"uint256","internalType":"uint256"}],"outputs":[],"stateMutability":"nonpayable"},{"type":"function","name":"setAffiliateTracker","inputs":[{"name":"_tracker","type":"address","internalType":"address"}],"outputs":[],"stateMutability":"nonpayable"},{"type":"function","name":"setLedger","inputs":[{"name":"_newLedger","type":"address","internalType":"address"}],"outputs":[],"stateMutability":"nonpayable"},{"type":"function","name":"setMaxFeePercent","inputs":[{"name":"_newMax","type":"uint256","internalType":"uint256"}],"outputs":[],"stateMutability":"nonpayable"},{"type":"function","name":"setMinDeposit","inputs":[{"name":"_newMin","type":"uint256","internalType":"uint256"}],"outputs":[],"stateMutability":"nonpayable"},{"type":"function","name":"transferOwnership","inputs":[{"name":"newOwner","type":"address","internalType":"address"}],"outputs":[],"stateMutability":"nonpayable"},{"type":"function","name":"unpause","inputs":[],"outputs":[],"stateMutability":"nonpayable"},{"type":"function","name":"upgradeTo","inputs":[{"name":"newImplementation","type":"address","internalType":"address"}],"outputs":[],"stateMutability":"nonpayable"},{"type":"function","name":"upgradeToAndCall","inputs":[{"name":"newImplementation","type":"address","internalType":"address"},{"name":"data","type":"bytes","internalType":"bytes"}],"outputs":[],"stateMutability":"payable"},{"type":"event","name":"AdminChanged","inputs":[{"name":"previousAdmin","type":"address","indexed":false,"internalType":"address"},{"name":"newAdmin","type":"address","indexed":false,"internalType":"address"}],"anonymous":false},{"type":"event","name":"AffiliateRegistered","inputs":[{"name":"user","type":"address","indexed":true,"internalType":"address"},{"name":"referrer","type":"address","indexed":true,"internalType":"address"}],"anonymous":false},{"type":"event","name":"AffiliateShareUpdated","inputs":[{"name":"newShareBps","type":"uint256","indexed":false,"internalType":"uint256"}],"anonymous":false},{"type":"event","name":"BeaconUpgraded","inputs":[{"name":"beacon","type":"address","indexed":true,"internalType":"address"}],"anonymous":false},{"type":"event","name":"Initialized","inputs":[{"name":"version","type":"uint8","indexed":false,"internalType":"uint8"}],"anonymous":false},{"type":"event","name":"LedgerUpdated","inputs":[{"name":"newLedger","type":"address","indexed":false,"internalType":"address"}],"anonymous":false},{"type":"event","name":"MaxFeeUpdated","inputs":[{"name":"newMax","type":"uint256","indexed":false,"internalType":"uint256"}],"anonymous":false},{"type":"event","name":"MinDepositUpdated","inputs":[{"name":"newMin","type":"uint256","indexed":false,"internalType":"uint256"}],"anonymous":false},{"type":"event","name":"OwnershipTransferred","inputs":[{"name":"previousOwner","type":"address","indexed":true,"internalType":"address"},{"name":"newOwner","type":"address","indexed":true,"internalType":"address"}],"anonymous":false},{"type":"event","name":"Paused","inputs":[{"name":"account","type":"address","indexed":false,"internalType":"address"}],"anonymous":false},{"type":"event","name":"Unpaused","inputs":[{"name":"account","type":"address","indexed":false,"internalType":"address"}],"anonymous":false},{"type":"event","name":"Upgraded","inputs":[{"name":"implementation","type":"address","indexed":true,"internalType":"address"}],"anonymous":false},{"type":"event","name":"VaultCreated","inputs":[{"name":"vault","type":"address","indexed":true,"internalType":"address"},{"name":"creator","type":"address","indexed":true,"internalType":"address"}],"anonymous":false},{"type":"error","name":"AlreadyRegistered","inputs":[]},{"type":"error","name":"InvalidBps","inputs":[]},{"type":"error","name":"InvalidPercent","inputs":[]},{"type":"error","name":"NotAuthorized","inputs":[]},{"type":"error","name":"NotVault","inputs":[]},{"type":"error","name":"ZeroAddress","inputs":[]},{"type":"error","name":"ZeroLedger","inputs":[]},{"type":"error","name":"ZeroOwner","inputs":[]},{"type":"error","name":"ZeroToken","inputs":[]}],"bytecode":{"object":"0x60a060405230608052348015601357600080fd5b5060805161364e61004b600039600081816106ff0152818161073f015281816108130152818161085301526108e6015261364e6000f3fe6080604052600436106101815760003560e01c8063782b30e6116100d1578063a46102fa1161008a578063d830a05b11610064578063d830a05b14610450578063d8e2494714610466578063f2fde38b14610486578063f518fbdd146104a657600080fd5b8063a46102fa146103f0578063b4bd6f4614610410578063bfcdd2831461043057600080fd5b8063782b30e6146103265780638456cb59146103465780638da5cb5b1461035b5780638e0b6448146103795780638fcc9cfb146103b057806399c8fa4e146103d057600080fd5b80634f1ef2861161013e5780635b4079c9116101185780635b4079c9146102a65780635c975abb146102bc578063652b9b41146102e0578063715018a61461031157600080fd5b80634f1ef2861461025e57806352d1902d1461027157806356397c351461028657600080fd5b80631794bb3c146101865780633246887d146101a85780633659cfe6146101c85780633f0a616e146101e85780633f4ba83a1461022557806341b3d1851461023a575b600080fd5b34801561019257600080fd5b506101a66101a13660046115a7565b6104c6565b005b3480156101b457600080fd5b506101a66101c33660046115e3565b610671565b3480156101d457600080fd5b506101a66101e33660046115e3565b6106f5565b3480156101f457600080fd5b5060fc54610208906001600160a01b031681565b6040516001600160a01b0390911681526020015b60405180910390f35b34801561023157600080fd5b506101a66107d4565b34801561024657600080fd5b5061025060fd5481565b60405190815260200161021c565b6101a661026c366004611614565b610809565b34801561027d57600080fd5b506102506108d9565b34801561029257600080fd5b5060fb54610208906001600160a01b031681565b3480156102b257600080fd5b5061025060fe5481565b3480156102c857600080fd5b5060655460ff165b604051901515815260200161021c565b3480156102ec57600080fd5b506102d06102fb3660046115e3565b6101016020526000908152604090205460ff1681565b34801561031d57600080fd5b506101a661098c565b34801561033257600080fd5b506101a66103413660046116d6565b61099e565b34801561035257600080fd5b506101a66109fe565b34801561036757600080fd5b506033546001600160a01b0316610208565b34801561038557600080fd5b506102086103943660046115e3565b610100602052600090815260409020546001600160a01b031681565b3480156103bc57600080fd5b506101a66103cb3660046116d6565b610a31565b3480156103dc57600080fd5b506101a66103eb3660046115a7565b610a6e565b3480156103fc57600080fd5b506101a661040b3660046116ef565b610b1f565b34801561041c57600080fd5b5061020861042b3660046115e3565b610bf4565b34801561043c57600080fd5b506101a661044b366004611722565b610d37565b34801561045c57600080fd5b5061025060ff5481565b34801561047257600080fd5b506101a66104813660046115e3565b610de3565b34801561049257600080fd5b506101a66104a13660046115e3565b610e34565b3480156104b257600080fd5b506101a66104c13660046116d6565b610eaa565b600054610100900460ff16158080156104e65750600054600160ff909116105b806105005750303b158015610500575060005460ff166001145b6105685760405162461bcd60e51b815260206004820152602e60248201527f496e697469616c697a61626c653a20636f6e747261637420697320616c72656160448201526d191e481a5b9a5d1a585b1a5e995960921b60648201526084015b60405180910390fd5b6000805460ff19166001179055801561058b576000805461ff0019166101001790555b610593610f09565b61059c84610e34565b6105a4610f38565b6105ac610f67565b6001600160a01b0383166105d357604051634212e4c160e11b815260040160405180910390fd5b6001600160a01b0384166105fa57604051639905827b60e01b815260040160405180910390fd5b60fb80546001600160a01b0319166001600160a01b03851617905560fd82905561138860fe55601460ff55801561066b576000805461ff0019169055604051600181527f7f26b83ff96e1f2b6a682f133852f6798a09c465da95921460cefb38474024989060200160405180910390a15b50505050565b610679610f8e565b6001600160a01b0381166106a05760405163d92e233d60e01b815260040160405180910390fd5b60fb80546001600160a01b0319166001600160a01b0383169081179091556040519081527f842077a807f115575d3fc6fb5f72114e8dc163c6213e067f9a6acd7130648804906020015b60405180910390a150565b6001600160a01b037f000000000000000000000000000000000000000000000000000000000000000016300361073d5760405162461bcd60e51b815260040161055f9061174c565b7f00000000000000000000000000000000000000000000000000000000000000006001600160a01b03166107866000805160206135fb833981519152546001600160a01b031690565b6001600160a01b0316146107ac5760405162461bcd60e51b815260040161055f90611798565b6107b581610fe8565b604080516000808252602082019092526107d191839190610ff0565b50565b60fb546001600160a01b031633146107ff5760405163ea8e4eb560e01b815260040160405180910390fd5b610807611160565b565b6001600160a01b037f00000000000000000000000000000000000000000000000000000000000000001630036108515760405162461bcd60e51b815260040161055f9061174c565b7f00000000000000000000000000000000000000000000000000000000000000006001600160a01b031661089a6000805160206135fb833981519152546001600160a01b031690565b6001600160a01b0316146108c05760405162461bcd60e51b815260040161055f90611798565b6108c982610fe8565b6108d582826001610ff0565b5050565b6000306001600160a01b037f000000000000000000000000000000000000000000000000000000000000000016146109795760405162461bcd60e51b815260206004820152603860248201527f555550535570677261646561626c653a206d757374206e6f742062652063616c60448201527f6c6564207468726f7567682064656c656761746563616c6c0000000000000000606482015260840161055f565b506000805160206135fb83398151915290565b610994610f8e565b61080760006111b2565b6109a6610f8e565b6127108111156109c95760405163c6cc5d7f60e01b815260040160405180910390fd5b60fe8190556040518181527f719d29686a319696360c611b9cbb2649b50882dff7fac482f9020391843dbeba906020016106ea565b60fb546001600160a01b03163314610a295760405163ea8e4eb560e01b815260040160405180910390fd5b610807611204565b610a39610f8e565b60fd8190556040518181527f96a008f96f1c0ab9fa3d9ddd43cdfc614848c4d054d51f43662ed900e9d094c8906020016106ea565b610a76610f8e565b610a7e611241565b6001600160a01b0383166000908152610101602052604090205460ff16610ab8576040516362df054560e01b815260040160405180910390fd5b60405163ad4fc0b760e01b81526001600160a01b0383811660048301526024820183905284169063ad4fc0b790604401600060405180830381600087803b158015610b0257600080fd5b505af1158015610b16573d6000803e3d6000fd5b50505050505050565b610b27611241565b6001600160a01b0382161580610b4457506001600160a01b038116155b15610b625760405163d92e233d60e01b815260040160405180910390fd5b6001600160a01b03828116600090815261010060205260409020541615610b9c57604051630ea075bf60e21b815260040160405180910390fd5b6001600160a01b038281166000818152610100602052604080822080546001600160a01b0319169486169485179055517f64e46c273142dc0721ffb916253b218a09a845fd9ea329323097e7e611252ca79190a35050565b6000610bfe611241565b6001600160a01b038216610c255760405163ad1991f560e01b815260040160405180910390fd5b6000604051610c3390611583565b604051809103906000f080158015610c4f573d6000803e3d6000fd5b5090506000610c666033546001600160a01b031690565b60fb54604051637c643b2f60e11b81523060048201526001600160a01b0387811660248301528084166044830152918216606482018190529293509084169063f8c8765e90608401600060405180830381600087803b158015610cc857600080fd5b505af1158015610cdc573d6000803e3d6000fd5b5050506001600160a01b03841660008181526101016020526040808220805460ff19166001179055513393507f5d9c31ffa0fecffd7cf379989a3c7af252f0335e0d2a1320b55245912c781f539190a350909150505b919050565b336000908152610101602052604090205460ff16610d68576040516362df054560e01b815260040160405180910390fd5b60fc546001600160a01b0316156108d55760fc5460405163bfcdd28360e01b81526001600160a01b038481166004830152602482018490529091169063bfcdd28390604401600060405180830381600087803b158015610dc757600080fd5b505af1158015610ddb573d6000803e3d6000fd5b505050505050565b610deb610f8e565b6001600160a01b038116610e125760405163d92e233d60e01b815260040160405180910390fd5b60fc80546001600160a01b0319166001600160a01b0392909216919091179055565b610e3c610f8e565b6001600160a01b038116610ea15760405162461bcd60e51b815260206004820152602660248201527f4f776e61626c653a206e6577206f776e657220697320746865207a65726f206160448201526564647265737360d01b606482015260840161055f565b6107d1816111b2565b610eb2610f8e565b6064811115610ed457604051635c974e3d60e11b815260040160405180910390fd5b60ff8190556040518181527f5d46f46c0e5b2045e0cb8c00367d35d9f3f1fc035950ac8f5c675f6c0a791ba0906020016106ea565b600054610100900460ff16610f305760405162461bcd60e51b815260040161055f906117e4565b610807611287565b600054610100900460ff16610f5f5760405162461bcd60e51b815260040161055f906117e4565b6108076112b7565b600054610100900460ff166108075760405162461bcd60e51b815260040161055f906117e4565b6033546001600160a01b031633146108075760405162461bcd60e51b815260206004820181905260248201527f4f776e61626c653a2063616c6c6572206973206e6f7420746865206f776e6572604482015260640161055f565b6107d1610f8e565b7f4910fdfa16fed3260ed0e7147f7cc6da11a60208b5b9406d12a635614ffd91435460ff161561102857611023836112ea565b505050565b826001600160a01b03166352d1902d6040518163ffffffff1660e01b8152600401602060405180830381865afa925050508015611082575060408051601f3d908101601f1916820190925261107f9181019061182f565b60015b6110e55760405162461bcd60e51b815260206004820152602e60248201527f45524331393637557067726164653a206e657720696d706c656d656e7461746960448201526d6f6e206973206e6f74205555505360901b606482015260840161055f565b6000805160206135fb83398151915281146111545760405162461bcd60e51b815260206004820152602960248201527f45524331393637557067726164653a20756e737570706f727465642070726f786044820152681a58589b195555525160ba1b606482015260840161055f565b50611023838383611386565b6111686113ab565b6065805460ff191690557f5db9ee0a495bf2e6ff9c91a7834c1ba4fdd244a5e8aa4e537bd38aeae4b073aa335b6040516001600160a01b03909116815260200160405180910390a1565b603380546001600160a01b038381166001600160a01b0319831681179093556040519116919082907f8be0079c531659141344cd1fd0a4f28419497f9722a3daafe3b4186f6b6457e090600090a35050565b61120c611241565b6065805460ff191660011790557f62e78cea01bee320cd4e420270b5ea74000d11b0c9f74754ebdbfc544b05a2586111953390565b60655460ff16156108075760405162461bcd60e51b815260206004820152601060248201526f14185d5cd8589b194e881c185d5cd95960821b604482015260640161055f565b600054610100900460ff166112ae5760405162461bcd60e51b815260040161055f906117e4565b610807336111b2565b600054610100900460ff166112de5760405162461bcd60e51b815260040161055f906117e4565b6065805460ff19169055565b6001600160a01b0381163b6113575760405162461bcd60e51b815260206004820152602d60248201527f455243313936373a206e657720696d706c656d656e746174696f6e206973206e60448201526c1bdd08184818dbdb9d1c9858dd609a1b606482015260840161055f565b6000805160206135fb83398151915280546001600160a01b0319166001600160a01b0392909216919091179055565b61138f836113f4565b60008251118061139c5750805b156110235761066b8383611434565b60655460ff166108075760405162461bcd60e51b815260206004820152601460248201527314185d5cd8589b194e881b9bdd081c185d5cd95960621b604482015260640161055f565b6113fd816112ea565b6040516001600160a01b038216907fbc7cd75a20ee27fd9adebab32041f755214dbc6bffa90cc0225b39da2e5c2d3b90600090a250565b6060611459838360405180606001604052806027815260200161361b60279139611460565b9392505050565b6060600080856001600160a01b03168560405161147d919061186c565b600060405180830381855af49150503d80600081146114b8576040519150601f19603f3d011682016040523d82523d6000602084013e6114bd565b606091505b50915091506114ce868383876114d8565b9695505050505050565b60608315611547578251600003611540576001600160a01b0385163b6115405760405162461bcd60e51b815260206004820152601d60248201527f416464726573733a2063616c6c20746f206e6f6e2d636f6e7472616374000000604482015260640161055f565b5081611551565b6115518383611559565b949350505050565b8151156115695781518083602001fd5b8060405162461bcd60e51b815260040161055f9190611888565b611d3f806118bc83390190565b80356001600160a01b0381168114610d3257600080fd5b6000806000606084860312156115bc57600080fd5b6115c584611590565b92506115d360208501611590565b9150604084013590509250925092565b6000602082840312156115f557600080fd5b61145982611590565b634e487b7160e01b600052604160045260246000fd5b6000806040838503121561162757600080fd5b61163083611590565b9150602083013567ffffffffffffffff8082111561164d57600080fd5b818501915085601f83011261166157600080fd5b813581811115611673576116736115fe565b604051601f8201601f19908116603f0116810190838211818310171561169b5761169b6115fe565b816040528281528860208487010111156116b457600080fd5b8260208601602083013760006020848301015280955050505050509250929050565b6000602082840312156116e857600080fd5b5035919050565b6000806040838503121561170257600080fd5b61170b83611590565b915061171960208401611590565b90509250929050565b6000806040838503121561173557600080fd5b61173e83611590565b946020939093013593505050565b6020808252602c908201527f46756e6374696f6e206d7573742062652063616c6c6564207468726f7567682060408201526b19195b1959d85d1958d85b1b60a21b606082015260800190565b6020808252602c908201527f46756e6374696f6e206d7573742062652063616c6c6564207468726f7567682060408201526b6163746976652070726f787960a01b606082015260800190565b6020808252602b908201527f496e697469616c697a61626c653a20636f6e7472616374206973206e6f74206960408201526a6e697469616c697a696e6760a81b606082015260800190565b60006020828403121561184157600080fd5b5051919050565b60005b8381101561186357818101518382015260200161184b565b50506000910152565b6000825161187e818460208701611848565b9190910192915050565b60208152600082518060208401526118a7816040850160208701611848565b601f01601f1916919091016040019291505056fe60a060405230608052348015601357600080fd5b50608051611cf461004b600039600081816104410152818161048a01528181610578015281816105b8015261064b0152611cf46000f3fe60806040526004361061012a5760003560e01c80638da5cb5b116100ab578063c45a01551161006f578063c45a0155146102fd578063cc85f0801461031e578063ec18154e1461034c578063f2fde38b14610363578063f8c8765e14610383578063fc0c546a146103a357600080fd5b80638da5cb5b1461026a578063959499b61461028857806395ccea671461029d578063ad4fc0b7146102bd578063b6b55f25146102dd57600080fd5b806352d1902d116100f257806352d1902d146101cf57806356397c35146101e45780635c975abb1461021d578063715018a6146102405780638456cb591461025557600080fd5b806301e1d1141461012f57806327e235e3146101575780633659cfe6146101855780633f4ba83a146101a75780634f1ef286146101bc575b600080fd5b34801561013b57600080fd5b506101446103c4565b6040519081526020015b60405180910390f35b34801561016357600080fd5b506101446101723660046118e7565b6101316020526000908152604090205481565b34801561019157600080fd5b506101a56101a03660046118e7565b610437565b005b3480156101b357600080fd5b506101a561051f565b6101a56101ca36600461191a565b61056e565b3480156101db57600080fd5b5061014461063e565b3480156101f057600080fd5b5061012f54610205906001600160a01b031681565b6040516001600160a01b03909116815260200161014e565b34801561022957600080fd5b5060335460ff16604051901515815260200161014e565b34801561024c57600080fd5b506101a56106f1565b34801561026157600080fd5b506101a5610703565b34801561027657600080fd5b5060fb546001600160a01b0316610205565b34801561029457600080fd5b506101a5610750565b3480156102a957600080fd5b506101a56102b83660046119de565b610a37565b3480156102c957600080fd5b506101a56102d83660046119de565b610ad7565b3480156102e957600080fd5b506101a56102f8366004611a0a565b610baa565b34801561030957600080fd5b5061012d54610205906001600160a01b031681565b34801561032a57600080fd5b506101446103393660046118e7565b6101326020526000908152604090205481565b34801561035857600080fd5b506101446101305481565b34801561036f57600080fd5b506101a561037e3660046118e7565b610d29565b34801561038f57600080fd5b506101a561039e366004611a23565b610d9f565b3480156103af57600080fd5b5061012e54610205906001600160a01b031681565b61012e546040516370a0823160e01b81523060048201526000916001600160a01b0316906370a0823190602401602060405180830381865afa15801561040e573d6000803e3d6000fd5b505050506040513d601f19601f820116820180604052508101906104329190611a7f565b905090565b6001600160a01b037f00000000000000000000000000000000000000000000000000000000000000001630036104885760405162461bcd60e51b815260040161047f90611a98565b60405180910390fd5b7f00000000000000000000000000000000000000000000000000000000000000006001600160a01b03166104d1600080516020611ca1833981519152546001600160a01b031690565b6001600160a01b0316146104f75760405162461bcd60e51b815260040161047f90611ae4565b61050081610f77565b6040805160008082526020820190925261051c91839190610f7f565b50565b60fb546001600160a01b03163314801590610546575061012f546001600160a01b03163314155b156105645760405163ea8e4eb560e01b815260040160405180910390fd5b61056c6110ef565b565b6001600160a01b037f00000000000000000000000000000000000000000000000000000000000000001630036105b65760405162461bcd60e51b815260040161047f90611a98565b7f00000000000000000000000000000000000000000000000000000000000000006001600160a01b03166105ff600080516020611ca1833981519152546001600160a01b031690565b6001600160a01b0316146106255760405162461bcd60e51b815260040161047f90611ae4565b61062e82610f77565b61063a82826001610f7f565b5050565b6000306001600160a01b037f000000000000000000000000000000000000000000000000000000000000000016146106de5760405162461bcd60e51b815260206004820152603860248201527f555550535570677261646561626c653a206d757374206e6f742062652063616c60448201527f6c6564207468726f7567682064656c656761746563616c6c0000000000000000606482015260840161047f565b50600080516020611ca183398151915290565b6106f9611141565b61056c600061119b565b60fb546001600160a01b0316331480159061072a575061012f546001600160a01b03163314155b156107485760405163ea8e4eb560e01b815260040160405180910390fd5b61056c6111ed565b61075861122a565b610760611270565b336000908152610132602052604081205490819003610792576040516371cd57f760e11b815260040160405180910390fd5b3360009081526101326020526040812081905561012d5461012e546001600160a01b03918216929116906107c684846112c9565b9050600060646107d68387611b46565b6107e09190611b5d565b905060006107ee8287611b7f565b6040516311c16c8960e31b81523360048201529091506000906001600160a01b03871690638e0b644890602401602060405180830381865afa158015610838573d6000803e3d6000fd5b505050506040513d601f19601f8201168201806040525081019061085c9190611b92565b90506001600160a01b0381161561096d576000866001600160a01b0316635b4079c96040518163ffffffff1660e01b8152600401602060405180830381865afa1580156108ad573d6000803e3d6000fd5b505050506040513d601f19601f820116820180604052508101906108d19190611a7f565b905060006127106108e28387611b46565b6108ec9190611b5d565b90506109026001600160a01b03881684836113ab565b60405163bfcdd28360e01b81526001600160a01b0384811660048301526024820183905289169063bfcdd28390604401600060405180830381600087803b15801561094c57600080fd5b505af192505050801561095d575060015b506109688186611b7f565b945050505b600061098160fb546001600160a01b031690565b90506109976001600160a01b03871682866113ab565b6109ab6001600160a01b03871633856113ab565b610130546109b98982611b7f565b61013055604080518581526020810187905233917ff279e6a1f5e320cca91135676d9cb6e44ca8a08c0b88342bcdb1144f6511b568910160405180910390a261013054604080518381526020810192909252600080516020611c81833981519152910160405180910390a150505050505050505061056c6001606555565b610a3f6113e7565b610a47611141565b6001600160a01b038216610a6e5760405163d92e233d60e01b815260040160405180910390fd5b61012e54610a86906001600160a01b031683836113ab565b6101305481811015610a99576000610aa3565b610aa38282611b7f565b610130819055604080518381526020810192909252600080516020611c8183398151915291015b60405180910390a1505050565b61012d546001600160a01b03163314610b0357604051631966391b60e11b815260040160405180910390fd5b6001600160a01b0382166000908152610132602052604081208054839290610b2c908490611baf565b909155505061013054610b3f8282611baf565b610130556040518281526001600160a01b038416907f4090b754027c4095648ced2461cd86dadab1b444745a3e79c68ddd9596750eb89060200160405180910390a261013054604080518381526020810192909252600080516020611c818339815191529101610aca565b610bb261122a565b610bba611270565b80600003610bdb57604051631f2a200560e01b815260040160405180910390fd5b61012d54604080516341b3d18560e01b815290516001600160a01b039092169182916341b3d1859160048083019260209291908290030181865afa158015610c27573d6000803e3d6000fd5b505050506040513d601f19601f82011682018060405250810190610c4b9190611a7f565b821015610c6b576040516310906acb60e01b815260040160405180910390fd5b61012e546001600160a01b0316610c8481333086611430565b336000908152610131602052604081208054859290610ca4908490611baf565b909155505061013054610cb78482611baf565b6101305560405184815233907fe1fffcc4923d04b559f4d29a8bfc6cda04eb5b0d3c460751c2402c5c5cc9109c9060200160405180910390a261013054604080518381526020810192909252600080516020611c81833981519152910160405180910390a150505061051c6001606555565b610d31611141565b6001600160a01b038116610d965760405162461bcd60e51b815260206004820152602660248201527f4f776e61626c653a206e6577206f776e657220697320746865207a65726f206160448201526564647265737360d01b606482015260840161047f565b61051c8161119b565b600054610100900460ff1615808015610dbf5750600054600160ff909116105b80610dd95750303b158015610dd9575060005460ff166001145b610e3c5760405162461bcd60e51b815260206004820152602e60248201527f496e697469616c697a61626c653a20636f6e747261637420697320616c72656160448201526d191e481a5b9a5d1a585b1a5e995960921b606482015260840161047f565b6000805460ff191660011790558015610e5f576000805461ff0019166101001790555b610e6761146c565b610e7083610d29565b610e7861149b565b610e806114ca565b610e886114f9565b6001600160a01b0385161580610ea557506001600160a01b038216155b15610ec35760405163d92e233d60e01b815260040160405180910390fd5b6001600160a01b038416610eea5760405163ad1991f560e01b815260040160405180910390fd5b61012d80546001600160a01b038088166001600160a01b03199283161790925561012e805487841690831617905561012f8054928516929091169190911790558015610f70576000805461ff0019169055604051600181527f7f26b83ff96e1f2b6a682f133852f6798a09c465da95921460cefb38474024989060200160405180910390a15b5050505050565b61051c611141565b7f4910fdfa16fed3260ed0e7147f7cc6da11a60208b5b9406d12a635614ffd91435460ff1615610fb757610fb283611520565b505050565b826001600160a01b03166352d1902d6040518163ffffffff1660e01b8152600401602060405180830381865afa925050508015611011575060408051601f3d908101601f1916820190925261100e91810190611a7f565b60015b6110745760405162461bcd60e51b815260206004820152602e60248201527f45524331393637557067726164653a206e657720696d706c656d656e7461746960448201526d6f6e206973206e6f74205555505360901b606482015260840161047f565b600080516020611ca183398151915281146110e35760405162461bcd60e51b815260206004820152602960248201527f45524331393637557067726164653a20756e737570706f727465642070726f786044820152681a58589b195555525160ba1b606482015260840161047f565b50610fb28383836115bc565b6110f76113e7565b6033805460ff191690557f5db9ee0a495bf2e6ff9c91a7834c1ba4fdd244a5e8aa4e537bd38aeae4b073aa335b6040516001600160a01b03909116815260200160405180910390a1565b60fb546001600160a01b0316331461056c5760405162461bcd60e51b815260206004820181905260248201527f4f776e61626c653a2063616c6c6572206973206e6f7420746865206f776e6572604482015260640161047f565b60fb80546001600160a01b038381166001600160a01b0319831681179093556040519116919082907f8be0079c531659141344cd1fd0a4f28419497f9722a3daafe3b4186f6b6457e090600090a35050565b6111f561122a565b6033805460ff191660011790557f62e78cea01bee320cd4e420270b5ea74000d11b0c9f74754ebdbfc544b05a2586111243390565b60335460ff161561056c5760405162461bcd60e51b815260206004820152601060248201526f14185d5cd8589b194e881c185d5cd95960821b604482015260640161047f565b6002606554036112c25760405162461bcd60e51b815260206004820152601f60248201527f5265656e7472616e637947756172643a207265656e7472616e742063616c6c00604482015260640161047f565b6002606555565b600080670de0b6b3a764000084116112e35750600161132a565b69d3c21bcecceda100000084106112fc5750601461132a565b69d3c21bcecceda1000000611312856013611b46565b61131c9190611b5d565b611327906001611baf565b90505b6000836001600160a01b031663d830a05b6040518163ffffffff1660e01b8152600401602060405180830381865afa15801561136a573d6000803e3d6000fd5b505050506040513d601f19601f8201168201806040525081019061138e9190611a7f565b9050808211156113a15791506113a59050565b5090505b92915050565b6113b883838360016115e1565b610fb257604051635274afe760e01b81526001600160a01b038416600482015260240161047f565b6001606555565b60335460ff1661056c5760405162461bcd60e51b815260206004820152601460248201527314185d5cd8589b194e881b9bdd081c185d5cd95960621b604482015260640161047f565b61143e848484846001611647565b61146657604051635274afe760e01b81526001600160a01b038516600482015260240161047f565b50505050565b600054610100900460ff166114935760405162461bcd60e51b815260040161047f90611bc2565b61056c6116b9565b600054610100900460ff166114c25760405162461bcd60e51b815260040161047f90611bc2565b61056c6116e9565b600054610100900460ff166114f15760405162461bcd60e51b815260040161047f90611bc2565b61056c61171c565b600054610100900460ff1661056c5760405162461bcd60e51b815260040161047f90611bc2565b6001600160a01b0381163b61158d5760405162461bcd60e51b815260206004820152602d60248201527f455243313936373a206e657720696d706c656d656e746174696f6e206973206e60448201526c1bdd08184818dbdb9d1c9858dd609a1b606482015260840161047f565b600080516020611ca183398151915280546001600160a01b0319166001600160a01b0392909216919091179055565b6115c583611743565b6000825111806115d25750805b15610fb2576114668383611783565b60405163a9059cbb60e01b60008181526001600160a01b038616600452602485905291602083604481808b5af19250600160005114831661163b57838315161561162e573d6000823e3d81fd5b6000873b113d1516831692505b60405250949350505050565b6040516323b872dd60e01b60008181526001600160a01b038781166004528616602452604485905291602083606481808c5af1925060016000511483166116a757838315161561169a573d6000823e3d81fd5b6000883b113d1516831692505b60405250600060605295945050505050565b600054610100900460ff166116e05760405162461bcd60e51b815260040161047f90611bc2565b61056c3361119b565b600054610100900460ff166117105760405162461bcd60e51b815260040161047f90611bc2565b6033805460ff19169055565b600054610100900460ff166113e05760405162461bcd60e51b815260040161047f90611bc2565b61174c81611520565b6040516001600160a01b038216907fbc7cd75a20ee27fd9adebab32041f755214dbc6bffa90cc0225b39da2e5c2d3b90600090a250565b60606117a88383604051806060016040528060278152602001611cc1602791396117af565b9392505050565b6060600080856001600160a01b0316856040516117cc9190611c31565b600060405180830381855af49150503d8060008114611807576040519150601f19603f3d011682016040523d82523d6000602084013e61180c565b606091505b509150915061181d86838387611827565b9695505050505050565b6060831561189657825160000361188f576001600160a01b0385163b61188f5760405162461bcd60e51b815260206004820152601d60248201527f416464726573733a2063616c6c20746f206e6f6e2d636f6e7472616374000000604482015260640161047f565b50816118a0565b6118a083836118a8565b949350505050565b8151156118b85781518083602001fd5b8060405162461bcd60e51b815260040161047f9190611c4d565b6001600160a01b038116811461051c57600080fd5b6000602082840312156118f957600080fd5b81356117a8816118d2565b634e487b7160e01b600052604160045260246000fd5b6000806040838503121561192d57600080fd5b8235611938816118d2565b9150602083013567ffffffffffffffff8082111561195557600080fd5b818501915085601f83011261196957600080fd5b81358181111561197b5761197b611904565b604051601f8201601f19908116603f011681019083821181831017156119a3576119a3611904565b816040528281528860208487010111156119bc57600080fd5b8260208601602083013760006020848301015280955050505050509250929050565b600080604083850312156119f157600080fd5b82356119fc816118d2565b946020939093013593505050565b600060208284031215611a1c57600080fd5b5035919050565b60008060008060808587031215611a3957600080fd5b8435611a44816118d2565b93506020850135611a54816118d2565b92506040850135611a64816118d2565b91506060850135611a74816118d2565b939692955090935050565b600060208284031215611a9157600080fd5b5051919050565b6020808252602c908201527f46756e6374696f6e206d7573742062652063616c6c6564207468726f7567682060408201526b19195b1959d85d1958d85b1b60a21b606082015260800190565b6020808252602c908201527f46756e6374696f6e206d7573742062652063616c6c6564207468726f7567682060408201526b6163746976652070726f787960a01b606082015260800190565b634e487b7160e01b600052601160045260246000fd5b80820281158282048414176113a5576113a5611b30565b600082611b7a57634e487b7160e01b600052601260045260246000fd5b500490565b818103818111156113a5576113a5611b30565b600060208284031215611ba457600080fd5b81516117a8816118d2565b808201808211156113a5576113a5611b30565b6020808252602b908201527f496e697469616c697a61626c653a20636f6e7472616374206973206e6f74206960408201526a6e697469616c697a696e6760a81b606082015260800190565b60005b83811015611c28578181015183820152602001611c10565b50506000910152565b60008251611c43818460208701611c0d565b9190910192915050565b6020815260008251806020840152611c6c816040850160208701611c0d565b601f01601f1916919091016040019291505056fed8356a6cf3e0979763d849f44f7f1405622b99f6229bc913bcfeda3a64d4b4fe360894a13ba1a3210667c828492db98dca3e2076cc3735a920a3ca505d382bbc416464726573733a206c6f772d6c6576656c2064656c65676174652063616c6c206661696c6564a164736f6c6343000819000a360894a13ba1a3210667c828492db98dca3e2076cc3735a920a3ca505d382bbc416464726573733a206c6f772d6c6576656c2064656c65676174652063616c6c206661696c6564a164736f6c6343000819000a","linkReferences":{}},"methodIdentifiers":{"affiliateOf(address)":"8e0b6448","affiliateShareBps()":"5b4079c9","affiliateTracker()":"3f0a616e","createVault(address)":"b4bd6f46","initialize(address,address,uint256)":"1794bb3c","isVault(address)":"652b9b41","ledger()":"56397c35","maxFeePercent()":"d830a05b","minDeposit()":"41b3d185","owner()":"8da5cb5b","pause()":"8456cb59","paused()":"5c975abb","proxiableUUID()":"52d1902d","recordAffiliateEarning(address,uint256)":"bfcdd283","registerAffiliate(address,address)":"a46102fa","registerProfitFor(address,address,uint256)":"99c8fa4e","renounceOwnership()":"715018a6","setAffiliateShareBps(uint256)":"782b30e6","setAffiliateTracker(address)":"d8e24947","setLedger(address)":"3246887d","setMaxFeePercent(uint256)":"f518fbdd","setMinDeposit(uint256)":"8fcc9cfb","transferOwnership(address)":"f2fde38b","unpause()":"3f4ba83a","upgradeTo(address)":"3659cfe6","upgradeToAndCall(address,bytes)":"4f1ef286"},"id":1}