{"abi":[{"type":"function","name":"affiliateOf","inputs":[{"name":"","type":"address","internalType":"address"}],"outputs":[{"name":"","type":"address","internalType":"address"}],"stateMutability":"view"},{"type":"function","name":"affiliateShareBps","inputs":[],"outputs":[{"name":"","type":"uint256","internalType":"uint256"}],"stateMutability":"view"},{"type":"function","name":"affiliateTracker","inputs":[],"outputs":[{"name":"","type":"address","internalType":"address"}],"stateMutability":"view"},{"type":"function","name":"authorizeCommodity","inputs":[{"name":"commodityType","type":"string","internalType":"string"}],"outputs":[],"stateMutability":"nonpayable"},{"type":"function","name":"authorizedCommodities","inputs":[{"name":"","type":"string","internalType":"string"}],"outputs":[{"name":"","type":"bool","internalType":"bool"}],"stateMutability":"view"},{"type":"function","name":"commodityMetadata","inputs":[{"name":"","type":"uint256","internalType":"uint256"}],"outputs":[{"name":"commodityType","type":"string","internalType":"string"},{"name":"origin","type":"string","internalType":"string"},{"name":"quantity","type":"uint256","internalType":"uint256"},{"name":"valueUSD","type":"uint256","internalType":"uint256"},{"name":"minter","type":"address","internalType":"address"},{"name":"mintTimestamp","type":"uint256","internalType":"uint256"},{"name":"qualityGrade","type":"string","internalType":"string"},{"name":"isActive","type":"bool","internalType":"bool"}],"stateMutability":"view"},{"type":"function","name":"commodityNFTContracts","inputs":[{"name":"","type":"string","internalType":"string"}],"outputs":[{"name":"","type":"address","internalType":"address"}],"stateMutability":"view"},{"type":"function","name":"createVault","inputs":[{"name":"_token","type":"address","internalType":"address"}],"outputs":[{"name":"","type":"address","internalType":"address"}],"stateMutability":"nonpayable"},{"type":"function","name":"getCommodityMetadata","inputs":[{"name":"tokenId","type":"uint256","internalType":"uint256"}],"outputs":[{"name":"","type":"tuple","internalType":"struct TrudeFactory.CommodityMetadata","components":[{"name":"commodityType","type":"string","internalType":"string"},{"name":"origin","type":"string","internalType":"string"},{"name":"quantity","type":"uint256","internalType":"uint256"},{"name":"valueUSD","type":"uint256","internalType":"uint256"},{"name":"minter","type":"address","internalType":"address"},{"name":"mintTimestamp","type":"uint256","internalType":"uint256"},{"name":"qualityGrade","type":"string","internalType":"string"},{"name":"isActive","type":"bool","internalType":"bool"}]}],"stateMutability":"view"},{"type":"function","name":"initialize","inputs":[{"name":"_owner","type":"address","internalType":"address"},{"name":"_ledger","type":"address","internalType":"address"},{"name":"_minDeposit","type":"uint256","internalType":"uint256"}],"outputs":[],"stateMutability":"nonpayable"},{"type":"function","name":"isVault","inputs":[{"name":"","type":"address","internalType":"address"}],"outputs":[{"name":"","type":"bool","internalType":"bool"}],"stateMutability":"view"},{"type":"function","name":"ledger","inputs":[],"outputs":[{"name":"","type":"address","internalType":"address"}],"stateMutability":"view"},{"type":"function","name":"maxFeePercent","inputs":[],"outputs":[{"name":"","type":"uint256","internalType":"uint256"}],"stateMutability":"view"},{"type":"function","name":"minDeposit","inputs":[],"outputs":[{"name":"","type":"uint256","internalType":"uint256"}],"stateMutability":"view"},{"type":"function","name":"mintCommodityNFT","inputs":[{"name":"commodityType","type":"string","internalType":"string"},{"name":"origin","type":"string","internalType":"string"},{"name":"quantity","type":"uint256","internalType":"uint256"},{"name":"valueUSD","type":"uint256","internalType":"uint256"},{"name":"qualityGrade","type":"string","internalType":"string"}],"outputs":[{"name":"","type":"uint256","internalType":"uint256"}],"stateMutability":"nonpayable"},{"type":"function","name":"owner","inputs":[],"outputs":[{"name":"","type":"address","internalType":"address"}],"stateMutability":"view"},{"type":"function","name":"pause","inputs":[],"outputs":[],"stateMutability":"nonpayable"},{"type":"function","name":"paused","inputs":[],"outputs":[{"name":"","type":"bool","internalType":"bool"}],"stateMutability":"view"},{"type":"function","name":"proxiableUUID","inputs":[],"outputs":[{"name":"","type":"bytes32","internalType":"bytes32"}],"stateMutability":"view"},{"type":"function","name":"recordAffiliateEarning","inputs":[{"name":"affiliate","type":"address","internalType":"address"},{"name":"amount","type":"uint256","internalType":"uint256"}],"outputs":[],"stateMutability":"nonpayable"},{"type":"function","name":"recordCommodityArbitrageProfit","inputs":[{"name":"commodityType","type":"string","internalType":"string"},{"name":"profitUSD","type":"uint256","internalType":"uint256"},{"name":"arbitrageType","type":"string","internalType":"string"}],"outputs":[],"stateMutability":"nonpayable"},{"type":"function","name":"registerAffiliate","inputs":[{"name":"user","type":"address","internalType":"address"},{"name":"referrer","type":"address","internalType":"address"}],"outputs":[],"stateMutability":"nonpayable"},{"type":"function","name":"registerProfitFor","inputs":[{"name":"vault","type":"address","internalType":"address"},{"name":"user","type":"address","internalType":"address"},{"name":"profit","type":"uint256","internalType":"uint256"}],"outputs":[],"stateMutability":"nonpayable"},{"type":"function","name":"renounceOwnership","inputs":[],"outputs":[],"stateMutability":"nonpayable"},{"type":"function","name":"setAffiliateShareBps","inputs":[{"name":"","type":"uint256","internalType":"uint256"}],"outputs":[],"stateMutability":"nonpayable"},{"type":"function","name":"setAffiliateTracker","inputs":[{"name":"_tracker","type":"address","internalType":"address"}],"outputs":[],"stateMutability":"nonpayable"},{"type":"function","name":"setLedger","inputs":[{"name":"_newLedger","type":"address","internalType":"address"}],"outputs":[],"stateMutability":"nonpayable"},{"type":"function","name":"setMaxFeePercent","inputs":[{"name":"_newMax","type":"uint256","internalType":"uint256"}],"outputs":[],"stateMutability":"nonpayable"},{"type":"function","name":"setMinDeposit","inputs":[{"name":"_newMin","type":"uint256","internalType":"uint256"}],"outputs":[],"stateMutability":"nonpayable"},{"type":"function","name":"transferOwnership","inputs":[{"name":"newOwner","type":"address","internalType":"address"}],"outputs":[],"stateMutability":"nonpayable"},{"type":"function","name":"unpause","inputs":[],"outputs":[],"stateMutability":"nonpayable"},{"type":"function","name":"upgradeTo","inputs":[{"name":"newImplementation","type":"address","internalType":"address"}],"outputs":[],"stateMutability":"nonpayable"},{"type":"function","name":"upgradeToAndCall","inputs":[{"name":"newImplementation","type":"address","internalType":"address"},{"name":"data","type":"bytes","internalType":"bytes"}],"outputs":[],"stateMutability":"payable"},{"type":"event","name":"AdminChanged","inputs":[{"name":"previousAdmin","type":"address","indexed":false,"internalType":"address"},{"name":"newAdmin","type":"address","indexed":false,"internalType":"address"}],"anonymous":false},{"type":"event","name":"AffiliateRegistered","inputs":[{"name":"user","type":"address","indexed":true,"internalType":"address"},{"name":"referrer","type":"address","indexed":true,"internalType":"address"}],"anonymous":false},{"type":"event","name":"AffiliateShareUpdated","inputs":[{"name":"newShareBps","type":"uint256","indexed":false,"internalType":"uint256"}],"anonymous":false},{"type":"event","name":"BeaconUpgraded","inputs":[{"name":"beacon","type":"address","indexed":true,"internalType":"address"}],"anonymous":false},{"type":"event","name":"CommodityArbitrageProfit","inputs":[{"name":"commodityType","type":"string","indexed":false,"internalType":"string"},{"name":"profitUSD","type":"uint256","indexed":false,"internalType":"uint256"},{"name":"arbitrageType","type":"string","indexed":false,"internalType":"string"}],"anonymous":false},{"type":"event","name":"CommodityAuthorized","inputs":[{"name":"commodityType","type":"string","indexed":false,"internalType":"string"}],"anonymous":false},{"type":"event","name":"CommodityNFTMinted","inputs":[{"name":"tokenId","type":"uint256","indexed":true,"internalType":"uint256"},{"name":"commodityType","type":"string","indexed":false,"internalType":"string"},{"name":"origin","type":"string","indexed":false,"internalType":"string"},{"name":"minter","type":"address","indexed":true,"internalType":"address"}],"anonymous":false},{"type":"event","name":"Initialized","inputs":[{"name":"version","type":"uint8","indexed":false,"internalType":"uint8"}],"anonymous":false},{"type":"event","name":"LedgerUpdated","inputs":[{"name":"newLedger","type":"address","indexed":false,"internalType":"address"}],"anonymous":false},{"type":"event","name":"MaxFeeUpdated","inputs":[{"name":"newMax","type":"uint256","indexed":false,"internalType":"uint256"}],"anonymous":false},{"type":"event","name":"MinDepositUpdated","inputs":[{"name":"newMin","type":"uint256","indexed":false,"internalType":"uint256"}],"anonymous":false},{"type":"event","name":"OwnershipTransferred","inputs":[{"name":"previousOwner","type":"address","indexed":true,"internalType":"address"},{"name":"newOwner","type":"address","indexed":true,"internalType":"address"}],"anonymous":false},{"type":"event","name":"Paused","inputs":[{"name":"account","type":"address","indexed":false,"internalType":"address"}],"anonymous":false},{"type":"event","name":"Unpaused","inputs":[{"name":"account","type":"address","indexed":false,"internalType":"address"}],"anonymous":false},{"type":"event","name":"Upgraded","inputs":[{"name":"implementation","type":"address","indexed":true,"internalType":"address"}],"anonymous":false},{"type":"event","name":"VaultCreated","inputs":[{"name":"vault","type":"address","indexed":true,"internalType":"address"},{"name":"creator","type":"address","indexed":true,"internalType":"address"}],"anonymous":false},{"type":"error","name":"AffiliateShareFrozen","inputs":[]},{"type":"error","name":"AlreadyRegistered","inputs":[]},{"type":"error","name":"CommodityNotAuthorized","inputs":[]},{"type":"error","name":"InvalidBps","inputs":[]},{"type":"error","name":"InvalidPercent","inputs":[]},{"type":"error","name":"NotAuthorized","inputs":[]},{"type":"error","name":"NotVault","inputs":[]},{"type":"error","name":"SelfReferral","inputs":[]},{"type":"error","name":"ZeroAddress","inputs":[]},{"type":"error","name":"ZeroLedger","inputs":[]},{"type":"error","name":"ZeroOwner","inputs":[]},{"type":"error","name":"ZeroProfit","inputs":[]},{"type":"error","name":"ZeroQuantity","inputs":[]},{"type":"error","name":"ZeroToken","inputs":[]},{"type":"error","name":"ZeroValue","inputs":[]}],"bytecode":{"object":"0x60a0604052306080523480156012575f80fd5b50608051614c216100475f395f8181610b4e01528181610b8e01528181610d0901528181610d490152610dda0152614c215ff3fe6080604052600436106101e6575f3560e01c8063782b30e611610108578063b4bd6f461161009d578063c99ab8571161006d578063c99ab85714610598578063d830a05b146105d9578063d8e24947146105ee578063f2fde38b1461060d578063f518fbdd1461062c575f80fd5b8063b4bd6f4614610500578063b6364ce41461051f578063b8da890e1461055a578063bfcdd28314610579575f80fd5b80638e0b6448116100d85780638e0b64481461046e5780638fcc9cfb146104a357806399c8fa4e146104c2578063a46102fa146104e1575f80fd5b8063782b30e6146103eb5780637e8705561461040a5780638456cb591461043d5780638da5cb5b14610451575f80fd5b80634690ef771161017e5780635b4079c91161014e5780635b4079c9146103705780635c975abb14610385578063652b9b41146103a8578063715018a6146103d7575f80fd5b80634690ef771461030b5780634f1ef2861461032a57806352d1902d1461033d57806356397c3514610351575f80fd5b80633659cfe6116101b95780633659cfe61461027e5780633f0a616e1461029d5780633f4ba83a146102d457806341b3d185146102e8575f80fd5b806302277ff0146101ea5780631794bb3c1461020b578063291b9b551461022a5780633246887d1461025f575b5f80fd5b3480156101f5575f80fd5b50610209610204366004611ea9565b61064b565b005b348015610216575f80fd5b50610209610225366004611ef1565b6106bf565b348015610235575f80fd5b50610249610244366004611f2a565b610864565b6040516102569190611f6f565b60405180910390f35b34801561026a575f80fd5b50610209610279366004612022565b610ac7565b348015610289575f80fd5b50610209610298366004612022565b610b44565b3480156102a8575f80fd5b5060fc546102bc906001600160a01b031681565b6040516001600160a01b039091168152602001610256565b3480156102df575f80fd5b50610209610c21565b3480156102f3575f80fd5b506102fd60fd5481565b604051908152602001610256565b348015610316575f80fd5b5061020961032536600461203b565b610c56565b6102096103383660046120a3565b610cff565b348015610348575f80fd5b506102fd610dce565b34801561035c575f80fd5b5060fb546102bc906001600160a01b031681565b34801561037b575f80fd5b506102fd60fe5481565b348015610390575f80fd5b5060655460ff165b6040519015158152602001610256565b3480156103b3575f80fd5b506103986103c2366004612022565b6101016020525f908152604090205460ff1681565b3480156103e2575f80fd5b50610209610e7f565b3480156103f6575f80fd5b50610209610405366004611f2a565b610e90565b348015610415575f80fd5b50610429610424366004611f2a565b610eb1565b604051610256989796959493929190612101565b348015610448575f80fd5b50610209611095565b34801561045c575f80fd5b506033546001600160a01b03166102bc565b348015610479575f80fd5b506102bc610488366004612022565b6101006020525f90815260409020546001600160a01b031681565b3480156104ae575f80fd5b506102096104bd366004611f2a565b6110c8565b3480156104cd575f80fd5b506102096104dc366004611ef1565b611105565b3480156104ec575f80fd5b506102096104fb366004612178565b6111b0565b34801561050b575f80fd5b506102bc61051a366004612022565b6112b5565b34801561052a575f80fd5b50610398610539366004611ea9565b80516020818301810180516101058252928201919093012091525460ff1681565b348015610565575f80fd5b506102fd6105743660046121a9565b6113f4565b348015610584575f80fd5b5061020961059336600461223e565b6115c0565b3480156105a3575f80fd5b506102bc6105b2366004611ea9565b8051602081830181018051610103825292820191909301209152546001600160a01b031681565b3480156105e4575f80fd5b506102fd60ff5481565b3480156105f9575f80fd5b50610209610608366004612022565b611666565b348015610618575f80fd5b50610209610627366004612022565b6116b7565b348015610637575f80fd5b50610209610646366004611f2a565b61172d565b61065361178c565b600161010582604051610666919061227d565b908152604051908190036020018120805492151560ff19909316929092179091557f149f9865f391a82ef493679575cec85de6b18bafe7006e707fe1ce4033d42f88906106b4908390612288565b60405180910390a150565b5f54610100900460ff16158080156106dd57505f54600160ff909116105b806106f65750303b1580156106f657505f5460ff166001145b61075e5760405162461bcd60e51b815260206004820152602e60248201527f496e697469616c697a61626c653a20636f6e747261637420697320616c72656160448201526d191e481a5b9a5d1a585b1a5e995960921b60648201526084015b60405180910390fd5b5f805460ff19166001179055801561077f575f805461ff0019166101001790555b6107876117e6565b610790846116b7565b610798611814565b6107a0611842565b6001600160a01b0383166107c757604051634212e4c160e11b815260040160405180910390fd5b6001600160a01b0384166107ee57604051639905827b60e01b815260040160405180910390fd5b60fb80546001600160a01b0319166001600160a01b03851617905560fd82905561138860fe55601460ff55801561085e575f805461ff0019169055604051600181527f7f26b83ff96e1f2b6a682f133852f6798a09c465da95921460cefb38474024989060200160405180910390a15b50505050565b6108b260405180610100016040528060608152602001606081526020015f81526020015f81526020015f6001600160a01b031681526020015f8152602001606081526020015f151581525090565b5f828152610104602052604090819020815161010081019092528054829082906108db9061229a565b80601f01602080910402602001604051908101604052809291908181526020018280546109079061229a565b80156109525780601f1061092957610100808354040283529160200191610952565b820191905f5260205f20905b81548152906001019060200180831161093557829003601f168201915b5050505050815260200160018201805461096b9061229a565b80601f01602080910402602001604051908101604052809291908181526020018280546109979061229a565b80156109e25780601f106109b9576101008083540402835291602001916109e2565b820191905f5260205f20905b8154815290600101906020018083116109c557829003601f168201915b5050509183525050600282015460208201526003820154604082015260048201546001600160a01b031660608201526005820154608082015260068201805460a090920191610a309061229a565b80601f0160208091040260200160405190810160405280929190818152602001828054610a5c9061229a565b8015610aa75780601f10610a7e57610100808354040283529160200191610aa7565b820191905f5260205f20905b815481529060010190602001808311610a8a57829003601f168201915b50505091835250506007919091015460ff16151560209091015292915050565b610acf61178c565b6001600160a01b038116610af65760405163d92e233d60e01b815260040160405180910390fd5b60fb80546001600160a01b0319166001600160a01b0383169081179091556040519081527f842077a807f115575d3fc6fb5f72114e8dc163c6213e067f9a6acd7130648804906020016106b4565b6001600160a01b037f0000000000000000000000000000000000000000000000000000000000000000163003610b8c5760405162461bcd60e51b8152600401610755906122d2565b7f00000000000000000000000000000000000000000000000000000000000000006001600160a01b0316610bd45f80516020614bce833981519152546001600160a01b031690565b6001600160a01b031614610bfa5760405162461bcd60e51b81526004016107559061231e565b610c0381611868565b604080515f80825260208201909252610c1e91839190611870565b50565b60fb546001600160a01b03163314610c4c5760405163ea8e4eb560e01b815260040160405180910390fd5b610c546119df565b565b610c5e611a31565b61010583604051610c6f919061227d565b9081526040519081900360200190205460ff16610c9f5760405163cba0c23160e01b815260040160405180910390fd5b815f03610cbf5760405163154b67a560e01b815260040160405180910390fd5b7f03f4584e0a0c01fe9c5a3c2e7293153f8bee519902b9f96fc219f835d36b3661838383604051610cf29392919061236a565b60405180910390a1505050565b6001600160a01b037f0000000000000000000000000000000000000000000000000000000000000000163003610d475760405162461bcd60e51b8152600401610755906122d2565b7f00000000000000000000000000000000000000000000000000000000000000006001600160a01b0316610d8f5f80516020614bce833981519152546001600160a01b031690565b6001600160a01b031614610db55760405162461bcd60e51b81526004016107559061231e565b610dbe82611868565b610dca82826001611870565b5050565b5f306001600160a01b037f00000000000000000000000000000000000000000000000000000000000000001614610e6d5760405162461bcd60e51b815260206004820152603860248201527f555550535570677261646561626c653a206d757374206e6f742062652063616c60448201527f6c6564207468726f7567682064656c656761746563616c6c00000000000000006064820152608401610755565b505f80516020614bce83398151915290565b610e8761178c565b610c545f611a77565b610e9861178c565b604051637ca7f45160e01b815260040160405180910390fd5b6101046020525f9081526040902080548190610ecc9061229a565b80601f0160208091040260200160405190810160405280929190818152602001828054610ef89061229a565b8015610f435780601f10610f1a57610100808354040283529160200191610f43565b820191905f5260205f20905b815481529060010190602001808311610f2657829003601f168201915b505050505090806001018054610f589061229a565b80601f0160208091040260200160405190810160405280929190818152602001828054610f849061229a565b8015610fcf5780601f10610fa657610100808354040283529160200191610fcf565b820191905f5260205f20905b815481529060010190602001808311610fb257829003601f168201915b5050506002840154600385015460048601546005870154600688018054979894979396506001600160a01b039092169450929161100b9061229a565b80601f01602080910402602001604051908101604052809291908181526020018280546110379061229a565b80156110825780601f1061105957610100808354040283529160200191611082565b820191905f5260205f20905b81548152906001019060200180831161106557829003601f168201915b5050506007909301549192505060ff1688565b60fb546001600160a01b031633146110c05760405163ea8e4eb560e01b815260040160405180910390fd5b610c54611ac8565b6110d061178c565b60fd8190556040518181527f96a008f96f1c0ab9fa3d9ddd43cdfc614848c4d054d51f43662ed900e9d094c8906020016106b4565b61110d61178c565b611115611a31565b6001600160a01b0383165f908152610101602052604090205460ff1661114e576040516362df054560e01b815260040160405180910390fd5b60405163ad4fc0b760e01b81526001600160a01b0383811660048301526024820183905284169063ad4fc0b7906044015f604051808303815f87803b158015611195575f80fd5b505af11580156111a7573d5f803e3d5ffd5b50505050505050565b6111b8611a31565b6001600160a01b03821615806111d557506001600160a01b038116155b156111f35760405163d92e233d60e01b815260040160405180910390fd5b806001600160a01b0316826001600160a01b03160361122557604051632af47b8760e11b815260040160405180910390fd5b6001600160a01b038281165f9081526101006020526040902054161561125e57604051630ea075bf60e21b815260040160405180910390fd5b6001600160a01b038281165f818152610100602052604080822080546001600160a01b0319169486169485179055517f64e46c273142dc0721ffb916253b218a09a845fd9ea329323097e7e611252ca79190a35050565b5f6112be611a31565b6112c661178c565b6001600160a01b0382166112ed5760405163ad1991f560e01b815260040160405180910390fd5b5f6040516112fa90611df7565b604051809103905ff080158015611313573d5f803e3d5ffd5b5090505f6113296033546001600160a01b031690565b60fb54604051637c643b2f60e11b81523060048201526001600160a01b0387811660248301528084166044830152918216606482018190529293509084169063f8c8765e906084015f604051808303815f87803b158015611388575f80fd5b505af115801561139a573d5f803e3d5ffd5b5050506001600160a01b0384165f8181526101016020526040808220805460ff19166001179055513393507f5d9c31ffa0fecffd7cf379989a3c7af252f0335e0d2a1320b55245912c781f539190a350909150505b919050565b5f6113fd611a31565b6101058660405161140e919061227d565b9081526040519081900360200190205460ff1661143e5760405163cba0c23160e01b815260040160405180910390fd5b835f0361145e5760405163f4f5b73360e01b815260040160405180910390fd5b825f0361147e57604051637c946ed760e01b815260040160405180910390fd5b61010280549081905f61149083612394565b909155505060408051610100810182528881526020808201899052818301889052606082018790523360808301524260a083015260c08201869052600160e08301525f84815261010490915291909120815181906114ee9082612403565b50602082015160018201906115039082612403565b50604082015160028201556060820151600382015560808201516004820180546001600160a01b0319166001600160a01b0390921691909117905560a0820151600582015560c0820151600682019061155c9082612403565b5060e091909101516007909101805460ff1916911515919091179055604051339082907f6f9ebf00147f9cfb17b4c5da55a640085d068373d1ed975a227695d9cb3fa492906115ae908b908b906124bf565b60405180910390a39695505050505050565b335f908152610101602052604090205460ff166115f0576040516362df054560e01b815260040160405180910390fd5b60fc546001600160a01b031615610dca5760fc5460405163bfcdd28360e01b81526001600160a01b038481166004830152602482018490529091169063bfcdd283906044015f604051808303815f87803b15801561164c575f80fd5b505af115801561165e573d5f803e3d5ffd5b505050505050565b61166e61178c565b6001600160a01b0381166116955760405163d92e233d60e01b815260040160405180910390fd5b60fc80546001600160a01b0319166001600160a01b0392909216919091179055565b6116bf61178c565b6001600160a01b0381166117245760405162461bcd60e51b815260206004820152602660248201527f4f776e61626c653a206e6577206f776e657220697320746865207a65726f206160448201526564647265737360d01b6064820152608401610755565b610c1e81611a77565b61173561178c565b606481111561175757604051635c974e3d60e11b815260040160405180910390fd5b60ff8190556040518181527f5d46f46c0e5b2045e0cb8c00367d35d9f3f1fc035950ac8f5c675f6c0a791ba0906020016106b4565b6033546001600160a01b03163314610c545760405162461bcd60e51b815260206004820181905260248201527f4f776e61626c653a2063616c6c6572206973206e6f7420746865206f776e65726044820152606401610755565b5f54610100900460ff1661180c5760405162461bcd60e51b8152600401610755906124ec565b610c54611b05565b5f54610100900460ff1661183a5760405162461bcd60e51b8152600401610755906124ec565b610c54611b34565b5f54610100900460ff16610c545760405162461bcd60e51b8152600401610755906124ec565b610c1e61178c565b7f4910fdfa16fed3260ed0e7147f7cc6da11a60208b5b9406d12a635614ffd91435460ff16156118a8576118a383611b66565b505050565b826001600160a01b03166352d1902d6040518163ffffffff1660e01b8152600401602060405180830381865afa925050508015611902575060408051601f3d908101601f191682019092526118ff91810190612537565b60015b6119655760405162461bcd60e51b815260206004820152602e60248201527f45524331393637557067726164653a206e657720696d706c656d656e7461746960448201526d6f6e206973206e6f74205555505360901b6064820152608401610755565b5f80516020614bce83398151915281146119d35760405162461bcd60e51b815260206004820152602960248201527f45524331393637557067726164653a20756e737570706f727465642070726f786044820152681a58589b195555525160ba1b6064820152608401610755565b506118a3838383611c01565b6119e7611c25565b6065805460ff191690557f5db9ee0a495bf2e6ff9c91a7834c1ba4fdd244a5e8aa4e537bd38aeae4b073aa335b6040516001600160a01b03909116815260200160405180910390a1565b60655460ff1615610c545760405162461bcd60e51b815260206004820152601060248201526f14185d5cd8589b194e881c185d5cd95960821b6044820152606401610755565b603380546001600160a01b038381166001600160a01b0319831681179093556040519116919082907f8be0079c531659141344cd1fd0a4f28419497f9722a3daafe3b4186f6b6457e0905f90a35050565b611ad0611a31565b6065805460ff191660011790557f62e78cea01bee320cd4e420270b5ea74000d11b0c9f74754ebdbfc544b05a258611a143390565b5f54610100900460ff16611b2b5760405162461bcd60e51b8152600401610755906124ec565b610c5433611a77565b5f54610100900460ff16611b5a5760405162461bcd60e51b8152600401610755906124ec565b6065805460ff19169055565b6001600160a01b0381163b611bd35760405162461bcd60e51b815260206004820152602d60248201527f455243313936373a206e657720696d706c656d656e746174696f6e206973206e60448201526c1bdd08184818dbdb9d1c9858dd609a1b6064820152608401610755565b5f80516020614bce83398151915280546001600160a01b0319166001600160a01b0392909216919091179055565b611c0a83611c6e565b5f82511180611c165750805b156118a35761085e8383611cad565b60655460ff16610c545760405162461bcd60e51b815260206004820152601460248201527314185d5cd8589b194e881b9bdd081c185d5cd95960621b6044820152606401610755565b611c7781611b66565b6040516001600160a01b038216907fbc7cd75a20ee27fd9adebab32041f755214dbc6bffa90cc0225b39da2e5c2d3b905f90a250565b6060611cd28383604051806060016040528060278152602001614bee60279139611cd9565b9392505050565b60605f80856001600160a01b031685604051611cf5919061227d565b5f60405180830381855af49150503d805f8114611d2d576040519150601f19603f3d011682016040523d82523d5f602084013e611d32565b606091505b5091509150611d4386838387611d4d565b9695505050505050565b60608315611dbb5782515f03611db4576001600160a01b0385163b611db45760405162461bcd60e51b815260206004820152601d60248201527f416464726573733a2063616c6c20746f206e6f6e2d636f6e74726163740000006044820152606401610755565b5081611dc5565b611dc58383611dcd565b949350505050565b815115611ddd5781518083602001fd5b8060405162461bcd60e51b81526004016107559190612288565b61267f8061254f83390190565b634e487b7160e01b5f52604160045260245ffd5b5f67ffffffffffffffff80841115611e3257611e32611e04565b604051601f8501601f19908116603f01168101908282118183101715611e5a57611e5a611e04565b81604052809350858152868686011115611e72575f80fd5b858560208301375f602087830101525050509392505050565b5f82601f830112611e9a575f80fd5b611cd283833560208501611e18565b5f60208284031215611eb9575f80fd5b813567ffffffffffffffff811115611ecf575f80fd5b611dc584828501611e8b565b80356001600160a01b03811681146113ef575f80fd5b5f805f60608486031215611f03575f80fd5b611f0c84611edb565b9250611f1a60208501611edb565b9150604084013590509250925092565b5f60208284031215611f3a575f80fd5b5035919050565b5f81518084528060208401602086015e5f602082860101526020601f19601f83011685010191505092915050565b602081525f8251610100806020850152611f8d610120850183611f41565b91506020850151601f1980868503016040870152611fab8483611f41565b9350604087015160608701526060870151608087015260808701519150611fdd60a08701836001600160a01b03169052565b60a087015160c087015260c08701519150808685030160e0870152506120038382611f41565b92505060e08501516120188286018215159052565b5090949350505050565b5f60208284031215612032575f80fd5b611cd282611edb565b5f805f6060848603121561204d575f80fd5b833567ffffffffffffffff80821115612064575f80fd5b61207087838801611e8b565b945060208601359350604086013591508082111561208c575f80fd5b5061209986828701611e8b565b9150509250925092565b5f80604083850312156120b4575f80fd5b6120bd83611edb565b9150602083013567ffffffffffffffff8111156120d8575f80fd5b8301601f810185136120e8575f80fd5b6120f785823560208401611e18565b9150509250929050565b5f6101008083526121148184018c611f41565b90508281036020840152612128818b611f41565b604084018a9052606084018990526001600160a01b038816608085015260a0840187905283810360c085015290506121608186611f41565b91505082151560e08301529998505050505050505050565b5f8060408385031215612189575f80fd5b61219283611edb565b91506121a060208401611edb565b90509250929050565b5f805f805f60a086880312156121bd575f80fd5b853567ffffffffffffffff808211156121d4575f80fd5b6121e089838a01611e8b565b965060208801359150808211156121f5575f80fd5b61220189838a01611e8b565b955060408801359450606088013593506080880135915080821115612224575f80fd5b5061223188828901611e8b565b9150509295509295909350565b5f806040838503121561224f575f80fd5b61225883611edb565b946020939093013593505050565b5f81518060208401855e5f93019283525090919050565b5f611cd28284612266565b602081525f611cd26020830184611f41565b600181811c908216806122ae57607f821691505b6020821081036122cc57634e487b7160e01b5f52602260045260245ffd5b50919050565b6020808252602c908201527f46756e6374696f6e206d7573742062652063616c6c6564207468726f7567682060408201526b19195b1959d85d1958d85b1b60a21b606082015260800190565b6020808252602c908201527f46756e6374696f6e206d7573742062652063616c6c6564207468726f7567682060408201526b6163746976652070726f787960a01b606082015260800190565b606081525f61237c6060830186611f41565b8460208401528281036040840152611d438185611f41565b5f600182016123b157634e487b7160e01b5f52601160045260245ffd5b5060010190565b601f8211156118a357805f5260205f20601f840160051c810160208510156123dd5750805b601f840160051c820191505b818110156123fc575f81556001016123e9565b5050505050565b815167ffffffffffffffff81111561241d5761241d611e04565b6124318161242b845461229a565b846123b8565b602080601f831160018114612464575f841561244d5750858301515b5f19600386901b1c1916600185901b17855561165e565b5f85815260208120601f198616915b8281101561249257888601518255948401946001909101908401612473565b50858210156124af57878501515f19600388901b60f8161c191681555b5050505050600190811b01905550565b604081525f6124d16040830185611f41565b82810360208401526124e38185611f41565b95945050505050565b6020808252602b908201527f496e697469616c697a61626c653a20636f6e7472616374206973206e6f74206960408201526a6e697469616c697a696e6760a81b606082015260800190565b5f60208284031215612547575f80fd5b505191905056fe60a0604052306080523480156012575f80fd5b506080516126386100475f395f81816107c801528181610811015281816108fd0152818161093d01526109ce01526126385ff3fe60806040526004361061023e575f3560e01c8063959499b611610134578063d73792a9116100b3578063ec18154e11610078578063ec18154e14610690578063f2fde38b146106a6578063f45d0a98146106c5578063f8c8765e146106da578063f9f13315146106f9578063fc0c546a1461072e575f80fd5b8063d73792a9146105ea578063d95b0a12146105ff578063ddd429b11461061e578063de763a4f14610633578063e05cd14e1461067b575f80fd5b8063c45a0155116100f9578063c45a015514610553578063c875d3c114610573578063ca7e4ed114610491578063cc85f08014610592578063d4a0ca33146105be575f80fd5b8063959499b6146104c357806395ccea67146104d7578063ad4fc0b7146104f6578063aff7da5914610515578063b6b55f2514610534575f80fd5b806352d1902d116101c0578063715018a611610185578063715018a61461044a57806381b2de2c1461045e5780638456cb591461047d57806386aebad2146104915780638da5cb5b146104a6575f80fd5b806352d1902d146103a45780635370aca21461026957806356397c35146103b85780635c975abb146103f05780636511f90014610412575f80fd5b80633659cfe6116102065780633659cfe6146102bf57806336fc5d9a146102e05780633b97e856146103515780633f4ba83a1461037d5780634f1ef28614610391575f80fd5b806301e1d11414610242578063099f89b41461026957806310128cae1461027e57806321c0efa01461027e57806327e235e314610293575b5f80fd5b34801561024d575f80fd5b5061025661074e565b6040519081526020015b60405180910390f35b348015610274575f80fd5b50610256610bb881565b348015610289575f80fd5b506102566103e881565b34801561029e575f80fd5b506102566102ad366004612056565b6101326020525f908152604090205481565b3480156102ca575f80fd5b506102de6102d9366004612056565b6107be565b005b3480156102eb575f80fd5b506103296102fa366004612056565b6101376020525f9081526040902080546001820154600283015460038401546004909401549293919290919085565b604080519586526020860194909452928401919091526060830152608082015260a001610260565b34801561035c575f80fd5b506101315461036b9060ff1681565b60405160ff9091168152602001610260565b348015610388575f80fd5b506102de6108a4565b6102de61039f3660046120f8565b6108f3565b3480156103af575f80fd5b506102566109c2565b3480156103c3575f80fd5b5061012f546103d8906001600160a01b031681565b6040516001600160a01b039091168152602001610260565b3480156103fb575f80fd5b5060335460ff166040519015158152602001610260565b34801561041d575f80fd5b5061025661042c366004612176565b80516020818301810180516101358252928201919093012091525481565b348015610455575f80fd5b506102de610a73565b348015610469575f80fd5b50610256610478366004612176565b610a84565b348015610488575f80fd5b506102de610aac565b34801561049c575f80fd5b506102566107d081565b3480156104b1575f80fd5b5060fb546001600160a01b03166103d8565b3480156104ce575f80fd5b506102de610af9565b3480156104e2575f80fd5b506102de6104f13660046121a8565b610dbc565b348015610501575f80fd5b506102de6105103660046121a8565b610e59565b348015610520575f80fd5b506102de61052f3660046121d2565b610f65565b34801561053f575f80fd5b506102de61054e366004612227565b6110ad565b34801561055e575f80fd5b5061012d546103d8906001600160a01b031681565b34801561057e575f80fd5b5061025661058d36600461223e565b611262565b34801561059d575f80fd5b506102566105ac366004612056565b6101336020525f908152604090205481565b3480156105c9575f80fd5b506102566105d8366004612056565b6101346020525f908152604090205481565b3480156105f5575f80fd5b5061025661271081565b34801561060a575f80fd5b506102de610619366004612227565b6112a0565b348015610629575f80fd5b506102566109c481565b34801561063e575f80fd5b5061025661064d36600461223e565b61013660209081525f9283526040909220815180830184018051928152908401929093019190912091525481565b348015610686575f80fd5b506102566105dc81565b34801561069b575f80fd5b506102566101305481565b3480156106b1575f80fd5b506102de6106c0366004612056565b611424565b3480156106d0575f80fd5b506102566101f481565b3480156106e5575f80fd5b506102de6106f4366004612281565b61149a565b348015610704575f80fd5b50610256610713366004612056565b6001600160a01b03165f908152610134602052604090205490565b348015610739575f80fd5b5061012e546103d8906001600160a01b031681565b61012e546040516370a0823160e01b81523060048201525f916001600160a01b0316906370a0823190602401602060405180830381865afa158015610795573d5f803e3d5ffd5b505050506040513d601f19601f820116820180604052508101906107b991906122da565b905090565b6001600160a01b037f000000000000000000000000000000000000000000000000000000000000000016300361080f5760405162461bcd60e51b8152600401610806906122f1565b60405180910390fd5b7f00000000000000000000000000000000000000000000000000000000000000006001600160a01b03166108575f805160206125e5833981519152546001600160a01b031690565b6001600160a01b03161461087d5760405162461bcd60e51b81526004016108069061233d565b610886816116e0565b604080515f808252602082019092526108a1918391906116e8565b50565b60fb546001600160a01b031633148015906108cb575061012f546001600160a01b03163314155b156108e95760405163ea8e4eb560e01b815260040160405180910390fd5b6108f1611857565b565b6001600160a01b037f000000000000000000000000000000000000000000000000000000000000000016300361093b5760405162461bcd60e51b8152600401610806906122f1565b7f00000000000000000000000000000000000000000000000000000000000000006001600160a01b03166109835f805160206125e5833981519152546001600160a01b031690565b6001600160a01b0316146109a95760405162461bcd60e51b81526004016108069061233d565b6109b2826116e0565b6109be828260016116e8565b5050565b5f306001600160a01b037f00000000000000000000000000000000000000000000000000000000000000001614610a615760405162461bcd60e51b815260206004820152603860248201527f555550535570677261646561626c653a206d757374206e6f742062652063616c60448201527f6c6564207468726f7567682064656c656761746563616c6c00000000000000006064820152608401610806565b505f805160206125e583398151915290565b610a7b6118a9565b6108f15f611903565b5f61013582604051610a9691906123a0565b9081526020016040518091039020549050919050565b60fb546001600160a01b03163314801590610ad3575061012f546001600160a01b03163314155b15610af15760405163ea8e4eb560e01b815260040160405180910390fd5b6108f1611954565b610b01611991565b610b096119d7565b335f908152610133602052604081205490819003610b3a576040516371cd57f760e11b815260040160405180910390fd5b335f90815261013360209081526040808320839055610137909152812042600382015561012d5461012e5491926001600160a01b039182169290911690610b818584611a30565b90505f612710610b9183886123bf565b610b9b91906123d6565b90505f610ba882886123f5565b6040516311c16c8960e31b81523360048201529091505f906001600160a01b03871690638e0b644890602401602060405180830381865afa158015610bef573d5f803e3d5ffd5b505050506040513d601f19601f82011682018060405250810190610c139190612408565b90506001600160a01b03811615610d1d575f866001600160a01b0316635b4079c96040518163ffffffff1660e01b8152600401602060405180830381865afa158015610c61573d5f803e3d5ffd5b505050506040513d601f19601f82011682018060405250810190610c8591906122da565b90505f612710610c9583876123bf565b610c9f91906123d6565b9050610cb56001600160a01b0388168483611b33565b60405163bfcdd28360e01b81526001600160a01b0384811660048301526024820183905289169063bfcdd283906044015f604051808303815f87803b158015610cfc575f80fd5b505af1925050508015610d0d575060015b50610d1881866123f5565b945050505b610d316001600160a01b0386163384611b33565b61013054610d3f89826123f5565b61013055604080518481526020810186905233917ff279e6a1f5e320cca91135676d9cb6e44ca8a08c0b88342bcdb1144f6511b568910160405180910390a2610130546040805183815260208101929092525f805160206125c5833981519152910160405180910390a15050505050505050506108f16001606555565b610dc4611b6f565b610dcc6118a9565b6001600160a01b038216610df35760405163d92e233d60e01b815260040160405180910390fd5b61012e54610e0b906001600160a01b03168383611b33565b6101305481811015610e1d575f610e27565b610e2782826123f5565b6101308190556040805183815260208101929092525f805160206125c5833981519152910160405180910390a1505050565b61012d546001600160a01b03163314610e8557604051631966391b60e11b815260040160405180910390fd5b6001600160a01b0382165f908152610133602052604081208054839290610ead908490612423565b90915550506001600160a01b0382165f9081526101376020526040812060028101805491928492610edf908490612423565b909155505061013054610ef28382612423565b610130556040518381526001600160a01b038516907f4090b754027c4095648ced2461cd86dadab1b444745a3e79c68ddd9596750eb89060200160405180910390a2610130546040805183815260208101929092525f805160206125c5833981519152910160405180910390a150505050565b61012d546001600160a01b03163314610f9157604051631966391b60e11b815260040160405180910390fd5b815f03610fb15760405163154b67a560e01b815260040160405180910390fd5b6001600160a01b038316610fd85760405163d92e233d60e01b815260040160405180910390fd5b6001600160a01b0383165f908152610134602052604081208054849290611000908490612423565b92505081905550816101358260405161101991906123a0565b90815260200160405180910390205f8282546110359190612423565b90915550506001600160a01b0383165f90815261013660205260409081902090518391906110649084906123a0565b90815260200160405180910390205f8282546110809190612423565b90915550506001600160a01b0383165f908152610133602052604081208054849290610edf908490612423565b6110b5611991565b6110bd6119d7565b805f036110dd57604051631f2a200560e01b815260040160405180910390fd5b61012d54604080516341b3d18560e01b815290516001600160a01b039092169182916341b3d1859160048083019260209291908290030181865afa158015611127573d5f803e3d5ffd5b505050506040513d601f19601f8201168201806040525081019061114b91906122da565b82101561116b576040516310906acb60e01b815260040160405180910390fd5b61012e546001600160a01b031661118481333086611bb8565b335f9081526101326020526040812080548592906111a3908490612423565b9091555050335f908152610137602052604081208054909185918391906111cb908490612423565b909155505060048101545f036111e2574260048201555b610130546111f08582612423565b6101305560405185815233907fe1fffcc4923d04b559f4d29a8bfc6cda04eb5b0d3c460751c2402c5c5cc9109c9060200160405180910390a2610130546040805183815260208101929092525f805160206125c5833981519152910160405180910390a1505050506108a16001606555565b6001600160a01b0382165f908152610136602052604080822090516112889084906123a0565b90815260200160405180910390205490505b92915050565b6112a86119d7565b805f036112c857604051631f2a200560e01b815260040160405180910390fd5b335f9081526101326020526040902054818110156112f957604051631e9acf1760e31b815260040160405180910390fd5b61130382826123f5565b335f9081526101326020908152604080832093909355610137905290812060018101805491928592611336908490612423565b909155505f90508061134881866123f5565b61012e549091506001600160a01b03165f61136b60fb546001600160a01b031690565b90508315611387576113876001600160a01b0383168286611b33565b61139b6001600160a01b0383163385611b33565b610130546113a988826123f5565b61013055604080518981526020810187905233917f97224a9c7c8857253aafe6579ed154b2beae77578325f10d9a27cc2b5c7cb03b910160405180910390a2610130546040805183815260208101929092525f805160206125c5833981519152910160405180910390a1505050505050506108a16001606555565b61142c6118a9565b6001600160a01b0381166114915760405162461bcd60e51b815260206004820152602660248201527f4f776e61626c653a206e6577206f776e657220697320746865207a65726f206160448201526564647265737360d01b6064820152608401610806565b6108a181611903565b5f54610100900460ff16158080156114b857505f54600160ff909116105b806114d15750303b1580156114d157505f5460ff166001145b6115345760405162461bcd60e51b815260206004820152602e60248201527f496e697469616c697a61626c653a20636f6e747261637420697320616c72656160448201526d191e481a5b9a5d1a585b1a5e995960921b6064820152608401610806565b5f805460ff191660011790558015611555575f805461ff0019166101001790555b61155d611bf4565b61156683611424565b61156e611c22565b611576611c50565b61157e611c7e565b6001600160a01b038516158061159b57506001600160a01b038216155b156115b95760405163d92e233d60e01b815260040160405180910390fd5b6001600160a01b0384166115e05760405163ad1991f560e01b815260040160405180910390fd5b61012d80546001600160a01b038088166001600160a01b03199283161790925561012e8054878416908316811790915561012f8054938616939092169290921790556040805163313ce56760e01b8152905163313ce567916004808201926020929091908290030181865afa15801561165b573d5f803e3d5ffd5b505050506040513d601f19601f8201168201806040525081019061167f9190612436565b610131805460ff191660ff9290921691909117905580156116d9575f805461ff0019169055604051600181527f7f26b83ff96e1f2b6a682f133852f6798a09c465da95921460cefb38474024989060200160405180910390a15b5050505050565b6108a16118a9565b7f4910fdfa16fed3260ed0e7147f7cc6da11a60208b5b9406d12a635614ffd91435460ff16156117205761171b83611ca4565b505050565b826001600160a01b03166352d1902d6040518163ffffffff1660e01b8152600401602060405180830381865afa92505050801561177a575060408051601f3d908101601f19168201909252611777918101906122da565b60015b6117dd5760405162461bcd60e51b815260206004820152602e60248201527f45524331393637557067726164653a206e657720696d706c656d656e7461746960448201526d6f6e206973206e6f74205555505360901b6064820152608401610806565b5f805160206125e5833981519152811461184b5760405162461bcd60e51b815260206004820152602960248201527f45524331393637557067726164653a20756e737570706f727465642070726f786044820152681a58589b195555525160ba1b6064820152608401610806565b5061171b838383611d3f565b61185f611b6f565b6033805460ff191690557f5db9ee0a495bf2e6ff9c91a7834c1ba4fdd244a5e8aa4e537bd38aeae4b073aa335b6040516001600160a01b03909116815260200160405180910390a1565b60fb546001600160a01b031633146108f15760405162461bcd60e51b815260206004820181905260248201527f4f776e61626c653a2063616c6c6572206973206e6f7420746865206f776e65726044820152606401610806565b60fb80546001600160a01b038381166001600160a01b0319831681179093556040519116919082907f8be0079c531659141344cd1fd0a4f28419497f9722a3daafe3b4186f6b6457e0905f90a35050565b61195c611991565b6033805460ff191660011790557f62e78cea01bee320cd4e420270b5ea74000d11b0c9f74754ebdbfc544b05a25861188c3390565b60335460ff16156108f15760405162461bcd60e51b815260206004820152601060248201526f14185d5cd8589b194e881c185d5cd95960821b6044820152606401610806565b600260655403611a295760405162461bcd60e51b815260206004820152601f60248201527f5265656e7472616e637947756172643a207265656e7472616e742063616c6c006044820152606401610806565b6002606555565b610131545f9081908190611a489060ff16600a612536565b610131549091505f90611a5f9060ff16600a612536565b611a6c90620f42406123bf565b9050818611611a7e5760019250611ab2565b808610611a8e5760149250611ab2565b80611a9a8760136123bf565b611aa491906123d6565b611aaf906001612423565b92505b5f856001600160a01b031663d830a05b6040518163ffffffff1660e01b8152600401602060405180830381865afa158015611aef573d5f803e3d5ffd5b505050506040513d601f19601f82011682018060405250810190611b1391906122da565b905080841115611b2857935061129a92505050565b509195945050505050565b611b408383836001611d63565b61171b57604051635274afe760e01b81526001600160a01b0384166004820152602401610806565b6001606555565b60335460ff166108f15760405162461bcd60e51b815260206004820152601460248201527314185d5cd8589b194e881b9bdd081c185d5cd95960621b6044820152606401610806565b611bc6848484846001611dc5565b611bee57604051635274afe760e01b81526001600160a01b0385166004820152602401610806565b50505050565b5f54610100900460ff16611c1a5760405162461bcd60e51b815260040161080690612544565b6108f1611e32565b5f54610100900460ff16611c485760405162461bcd60e51b815260040161080690612544565b6108f1611e61565b5f54610100900460ff16611c765760405162461bcd60e51b815260040161080690612544565b6108f1611e93565b5f54610100900460ff166108f15760405162461bcd60e51b815260040161080690612544565b6001600160a01b0381163b611d115760405162461bcd60e51b815260206004820152602d60248201527f455243313936373a206e657720696d706c656d656e746174696f6e206973206e60448201526c1bdd08184818dbdb9d1c9858dd609a1b6064820152608401610806565b5f805160206125e583398151915280546001600160a01b0319166001600160a01b0392909216919091179055565b611d4883611eb9565b5f82511180611d545750805b1561171b57611bee8383611ef8565b60405163a9059cbb60e01b5f8181526001600160a01b038616600452602485905291602083604481808b5af1925060015f51148316611db9578383151615611dad573d5f823e3d81fd5b5f873b113d1516831692505b60405250949350505050565b6040516323b872dd60e01b5f8181526001600160a01b038781166004528616602452604485905291602083606481808c5af1925060015f51148316611e21578383151615611e15573d5f823e3d81fd5b5f883b113d1516831692505b604052505f60605295945050505050565b5f54610100900460ff16611e585760405162461bcd60e51b815260040161080690612544565b6108f133611903565b5f54610100900460ff16611e875760405162461bcd60e51b815260040161080690612544565b6033805460ff19169055565b5f54610100900460ff16611b685760405162461bcd60e51b815260040161080690612544565b611ec281611ca4565b6040516001600160a01b038216907fbc7cd75a20ee27fd9adebab32041f755214dbc6bffa90cc0225b39da2e5c2d3b905f90a250565b6060611f1d838360405180606001604052806027815260200161260560279139611f24565b9392505050565b60605f80856001600160a01b031685604051611f4091906123a0565b5f60405180830381855af49150503d805f8114611f78576040519150601f19603f3d011682016040523d82523d5f602084013e611f7d565b606091505b5091509150611f8e86838387611f98565b9695505050505050565b606083156120065782515f03611fff576001600160a01b0385163b611fff5760405162461bcd60e51b815260206004820152601d60248201527f416464726573733a2063616c6c20746f206e6f6e2d636f6e74726163740000006044820152606401610806565b5081612010565b6120108383612018565b949350505050565b8151156120285781518083602001fd5b8060405162461bcd60e51b8152600401610806919061258f565b6001600160a01b03811681146108a1575f80fd5b5f60208284031215612066575f80fd5b8135611f1d81612042565b634e487b7160e01b5f52604160045260245ffd5b5f67ffffffffffffffff8084111561209f5761209f612071565b604051601f8501601f19908116603f011681019082821181831017156120c7576120c7612071565b816040528093508581528686860111156120df575f80fd5b858560208301375f602087830101525050509392505050565b5f8060408385031215612109575f80fd5b823561211481612042565b9150602083013567ffffffffffffffff81111561212f575f80fd5b8301601f8101851361213f575f80fd5b61214e85823560208401612085565b9150509250929050565b5f82601f830112612167575f80fd5b611f1d83833560208501612085565b5f60208284031215612186575f80fd5b813567ffffffffffffffff81111561219c575f80fd5b61201084828501612158565b5f80604083850312156121b9575f80fd5b82356121c481612042565b946020939093013593505050565b5f805f606084860312156121e4575f80fd5b83356121ef81612042565b925060208401359150604084013567ffffffffffffffff811115612211575f80fd5b61221d86828701612158565b9150509250925092565b5f60208284031215612237575f80fd5b5035919050565b5f806040838503121561224f575f80fd5b823561225a81612042565b9150602083013567ffffffffffffffff811115612275575f80fd5b61214e85828601612158565b5f805f8060808587031215612294575f80fd5b843561229f81612042565b935060208501356122af81612042565b925060408501356122bf81612042565b915060608501356122cf81612042565b939692955090935050565b5f602082840312156122ea575f80fd5b5051919050565b6020808252602c908201527f46756e6374696f6e206d7573742062652063616c6c6564207468726f7567682060408201526b19195b1959d85d1958d85b1b60a21b606082015260800190565b6020808252602c908201527f46756e6374696f6e206d7573742062652063616c6c6564207468726f7567682060408201526b6163746976652070726f787960a01b606082015260800190565b5f81518060208401855e5f93019283525090919050565b5f611f1d8284612389565b634e487b7160e01b5f52601160045260245ffd5b808202811582820484141761129a5761129a6123ab565b5f826123f057634e487b7160e01b5f52601260045260245ffd5b500490565b8181038181111561129a5761129a6123ab565b5f60208284031215612418575f80fd5b8151611f1d81612042565b8082018082111561129a5761129a6123ab565b5f60208284031215612446575f80fd5b815160ff81168114611f1d575f80fd5b600181815b8085111561249057815f1904821115612476576124766123ab565b8085161561248357918102915b93841c939080029061245b565b509250929050565b5f826124a65750600161129a565b816124b257505f61129a565b81600181146124c857600281146124d2576124ee565b600191505061129a565b60ff8411156124e3576124e36123ab565b50506001821b61129a565b5060208310610133831016604e8410600b8410161715612511575081810a61129a565b61251b8383612456565b805f190482111561252e5761252e6123ab565b029392505050565b5f611f1d60ff841683612498565b6020808252602b908201527f496e697469616c697a61626c653a20636f6e7472616374206973206e6f74206960408201526a6e697469616c697a696e6760a81b606082015260800190565b602081525f82518060208401528060208501604085015e5f604082850101526040601f19601f8301168401019150509291505056fed8356a6cf3e0979763d849f44f7f1405622b99f6229bc913bcfeda3a64d4b4fe360894a13ba1a3210667c828492db98dca3e2076cc3735a920a3ca505d382bbc416464726573733a206c6f772d6c6576656c2064656c65676174652063616c6c206661696c6564a164736f6c6343000819000a360894a13ba1a3210667c828492db98dca3e2076cc3735a920a3ca505d382bbc416464726573733a206c6f772d6c6576656c2064656c65676174652063616c6c206661696c6564a164736f6c6343000819000a","linkReferences":{}},"methodIdentifiers":{"affiliateOf(address)":"8e0b6448","affiliateShareBps()":"5b4079c9","affiliateTracker()":"3f0a616e","authorizeCommodity(string)":"02277ff0","authorizedCommodities(string)":"b6364ce4","commodityMetadata(uint256)":"7e870556","commodityNFTContracts(string)":"c99ab857","createVault(address)":"b4bd6f46","getCommodityMetadata(uint256)":"291b9b55","initialize(address,address,uint256)":"1794bb3c","isVault(address)":"652b9b41","ledger()":"56397c35","maxFeePercent()":"d830a05b","minDeposit()":"41b3d185","mintCommodityNFT(string,string,uint256,uint256,string)":"b8da890e","owner()":"8da5cb5b","pause()":"8456cb59","paused()":"5c975abb","proxiableUUID()":"52d1902d","recordAffiliateEarning(address,uint256)":"bfcdd283","recordCommodityArbitrageProfit(string,uint256,string)":"4690ef77","registerAffiliate(address,address)":"a46102fa","registerProfitFor(address,address,uint256)":"99c8fa4e","renounceOwnership()":"715018a6","setAffiliateShareBps(uint256)":"782b30e6","setAffiliateTracker(address)":"d8e24947","setLedger(address)":"3246887d","setMaxFeePercent(uint256)":"f518fbdd","setMinDeposit(uint256)":"8fcc9cfb","transferOwnership(address)":"f2fde38b","unpause()":"3f4ba83a","upgradeTo(address)":"3659cfe6","upgradeToAndCall(address,bytes)":"4f1ef286"},"id":1}