{"abi":[{"type":"constructor","inputs":[{"name":"initialOwner","type":"address","internalType":"address"}],"stateMutability":"nonpayable"},{"type":"function","name":"BASE_FEE_TIER_1","inputs":[],"outputs":[{"name":"","type":"uint256","internalType":"uint256"}],"stateMutability":"view"},{"type":"function","name":"BASE_FEE_TIER_2","inputs":[],"outputs":[{"name":"","type":"uint256","internalType":"uint256"}],"stateMutability":"view"},{"type":"function","name":"BASE_FEE_TIER_3","inputs":[],"outputs":[{"name":"","type":"uint256","internalType":"uint256"}],"stateMutability":"view"},{"type":"function","name":"BASE_FEE_TIER_4","inputs":[],"outputs":[{"name":"","type":"uint256","internalType":"uint256"}],"stateMutability":"view"},{"type":"function","name":"BASE_FEE_TIER_5","inputs":[],"outputs":[{"name":"","type":"uint256","internalType":"uint256"}],"stateMutability":"view"},{"type":"function","name":"FEE_DENOMINATOR","inputs":[],"outputs":[{"name":"","type":"uint256","internalType":"uint256"}],"stateMutability":"view"},{"type":"function","name":"PROFIT_THRESHOLD_1","inputs":[],"outputs":[{"name":"","type":"uint256","internalType":"uint256"}],"stateMutability":"view"},{"type":"function","name":"PROFIT_THRESHOLD_2","inputs":[],"outputs":[{"name":"","type":"uint256","internalType":"uint256"}],"stateMutability":"view"},{"type":"function","name":"PROFIT_THRESHOLD_3","inputs":[],"outputs":[{"name":"","type":"uint256","internalType":"uint256"}],"stateMutability":"view"},{"type":"function","name":"PROFIT_THRESHOLD_4","inputs":[],"outputs":[{"name":"","type":"uint256","internalType":"uint256"}],"stateMutability":"view"},{"type":"function","name":"calculateDynamicFeeRate","inputs":[{"name":"profit","type":"uint256","internalType":"uint256"},{"name":"principal","type":"uint256","internalType":"uint256"}],"outputs":[{"name":"","type":"uint256","internalType":"uint256"}],"stateMutability":"pure"},{"type":"function","name":"deposit","inputs":[{"name":"amount","type":"uint256","internalType":"uint256"}],"outputs":[],"stateMutability":"nonpayable"},{"type":"function","name":"estimateWithdrawalFee","inputs":[{"name":"user","type":"address","internalType":"address"},{"name":"amount","type":"uint256","internalType":"uint256"}],"outputs":[{"name":"fee","type":"uint256","internalType":"uint256"},{"name":"feeRate","type":"uint256","internalType":"uint256"},{"name":"netAmount","type":"uint256","internalType":"uint256"}],"stateMutability":"view"},{"type":"function","name":"getGlobalStats","inputs":[],"outputs":[{"name":"_totalAUM","type":"uint256","internalType":"uint256"},{"name":"_totalProfitsGenerated","type":"uint256","internalType":"uint256"},{"name":"_totalFeesCollected","type":"uint256","internalType":"uint256"},{"name":"_avgFeeRate","type":"uint256","internalType":"uint256"},{"name":"_protocolAge","type":"uint256","internalType":"uint256"}],"stateMutability":"view"},{"type":"function","name":"getUserStats","inputs":[{"name":"user","type":"address","internalType":"address"}],"outputs":[{"name":"deposited","type":"uint256","internalType":"uint256"},{"name":"withdrawn","type":"uint256","internalType":"uint256"},{"name":"profitRealized","type":"uint256","internalType":"uint256"},{"name":"currentBalance","type":"uint256","internalType":"uint256"},{"name":"totalProfit","type":"uint256","internalType":"uint256"},{"name":"avgFeeRate","type":"uint256","internalType":"uint256"}],"stateMutability":"view"},{"type":"function","name":"owner","inputs":[],"outputs":[{"name":"","type":"address","internalType":"address"}],"stateMutability":"view"},{"type":"function","name":"renounceOwnership","inputs":[],"outputs":[],"stateMutability":"nonpayable"},{"type":"function","name":"totalAUM","inputs":[],"outputs":[{"name":"","type":"uint256","internalType":"uint256"}],"stateMutability":"view"},{"type":"function","name":"totalFeesCollected","inputs":[],"outputs":[{"name":"","type":"uint256","internalType":"uint256"}],"stateMutability":"view"},{"type":"function","name":"totalProfitsGenerated","inputs":[],"outputs":[{"name":"","type":"uint256","internalType":"uint256"}],"stateMutability":"view"},{"type":"function","name":"transferOwnership","inputs":[{"name":"newOwner","type":"address","internalType":"address"}],"outputs":[],"stateMutability":"nonpayable"},{"type":"function","name":"userDeposits","inputs":[{"name":"","type":"address","internalType":"address"}],"outputs":[{"name":"","type":"uint256","internalType":"uint256"}],"stateMutability":"view"},{"type":"function","name":"userPerformances","inputs":[{"name":"","type":"address","internalType":"address"}],"outputs":[{"name":"totalDeposited","type":"uint256","internalType":"uint256"},{"name":"totalWithdrawn","type":"uint256","internalType":"uint256"},{"name":"profitRealized","type":"uint256","internalType":"uint256"},{"name":"lastFeePayment","type":"uint256","internalType":"uint256"},{"name":"entryTime","type":"uint256","internalType":"uint256"}],"stateMutability":"view"},{"type":"function","name":"userProfits","inputs":[{"name":"","type":"address","internalType":"address"}],"outputs":[{"name":"","type":"uint256","internalType":"uint256"}],"stateMutability":"view"},{"type":"function","name":"withdraw","inputs":[{"name":"amount","type":"uint256","internalType":"uint256"}],"outputs":[],"stateMutability":"nonpayable"},{"type":"event","name":"Deposit","inputs":[{"name":"user","type":"address","indexed":true,"internalType":"address"},{"name":"amount","type":"uint256","indexed":false,"internalType":"uint256"}],"anonymous":false},{"type":"event","name":"FeeCollected","inputs":[{"name":"user","type":"address","indexed":true,"internalType":"address"},{"name":"amount","type":"uint256","indexed":false,"internalType":"uint256"},{"name":"feeRate","type":"uint256","indexed":false,"internalType":"uint256"}],"anonymous":false},{"type":"event","name":"OwnershipTransferred","inputs":[{"name":"previousOwner","type":"address","indexed":true,"internalType":"address"},{"name":"newOwner","type":"address","indexed":true,"internalType":"address"}],"anonymous":false},{"type":"event","name":"PerformanceUpdated","inputs":[{"name":"user","type":"address","indexed":true,"internalType":"address"},{"name":"profit","type":"uint256","indexed":false,"internalType":"uint256"},{"name":"feeRate","type":"uint256","indexed":false,"internalType":"uint256"}],"anonymous":false},{"type":"event","name":"Withdraw","inputs":[{"name":"user","type":"address","indexed":true,"internalType":"address"},{"name":"amount","type":"uint256","indexed":false,"internalType":"uint256"},{"name":"profit","type":"uint256","indexed":false,"internalType":"uint256"},{"name":"fee","type":"uint256","indexed":false,"internalType":"uint256"}],"anonymous":false},{"type":"error","name":"OwnableInvalidOwner","inputs":[{"name":"owner","type":"address","internalType":"address"}]},{"type":"error","name":"OwnableUnauthorizedAccount","inputs":[{"name":"account","type":"address","internalType":"address"}]},{"type":"error","name":"ReentrancyGuardReentrantCall","inputs":[]}],"bytecode":{"object":"0x608060405234801561000f575f80fd5b50604051610c91380380610c9183398101604081905261002e916100df565b8060017f9b779b17422d0df92223018b32b4d1fa46e071723d6817e2486d003becc55f00556001600160a01b03811661008057604051631e4fbdf760e01b81525f600482015260240160405180910390fd5b61008981610090565b505061010c565b5f80546001600160a01b038381166001600160a01b0319831681178455604051919092169283917f8be0079c531659141344cd1fd0a4f28419497f9722a3daafe3b4186f6b6457e09190a35050565b5f602082840312156100ef575f80fd5b81516001600160a01b0381168114610105575f80fd5b9392505050565b610b78806101195f395ff3fe608060405234801561000f575f80fd5b506004361061016d575f3560e01c8063715018a6116100d9578063d73792a911610093578063e05cd14e1161006e578063e05cd14e1461032d578063e7629e8714610336578063f2fde38b14610349578063f45d0a981461035c575f80fd5b8063d73792a914610312578063ddd429b11461031b578063de5f654c14610324575f80fd5b8063715018a6146102b557806386aebad2146102bd5780638da5cb5b146102c6578063b6b55f25146102e0578063be354836146102f3578063ca7e4ed1146102bd575f80fd5b806336fc5d9a1161012a57806336fc5d9a146101f85780634e43603a1461025b5780635370aca21461017157806360c6d8ae1461029b5780636553f210146102a45780636b4169c3146102ad575f80fd5b8063099f89b4146101715780630ba36dcd1461018d57806310128cae146101ac5780631be90909146101b557806321c0efa0146101ac5780632e1a7d4d146101e3575b5f80fd5b61017a610bb881565b6040519081526020015b60405180910390f35b61017a61019b366004610a5c565b60026020525f908152604090205481565b61017a6103e881565b6101c86101c3366004610a7c565b610365565b60408051938452602084019290925290820152606001610184565b6101f66101f1366004610aa4565b610433565b005b610233610206366004610a5c565b600160208190525f9182526040909120805491810154600282015460038301546004909301549192909185565b604080519586526020860194909452928401919091526060830152608082015260a001610184565b61026e610269366004610a5c565b6106c0565b604080519687526020870195909552938501929092526060840152608083015260a082015260c001610184565b61017a60065481565b61017a60055481565b610233610756565b6101f6610798565b61017a6107d081565b5f546040516001600160a01b039091168152602001610184565b6101f66102ee366004610aa4565b6107ab565b61017a610301366004610a5c565b60036020525f908152604090205481565b61017a61271081565b61017a6109c481565b61017a60045481565b61017a6105dc81565b61017a610344366004610abb565b6108ba565b6101f6610357366004610a5c565b610942565b61017a6101f481565b6001600160a01b0382165f908152600160208181526040808420815160a08101835281548082529482015493810184905260028201549281019290925260038101546060830152600401546080820152839283926103c291610aef565b85116103d7575f80869350935093505061042c565b602081015181515f916103e991610aef565b6103f39087610aef565b905061040281835f01516108ba565b93506127106104118583610b02565b61041b9190610b19565b94506104278587610aef565b925050505b9250925092565b61043b61097c565b5f81116104895760405162461bcd60e51b8152602060048201526017602482015276416d6f756e74206d75737420626520706f73697469766560481b60448201526064015b60405180910390fd5b335f908152600260205260409020548111156104de5760405162461bcd60e51b8152602060048201526014602482015273496e73756666696369656e742062616c616e636560601b6044820152606401610480565b335f9081526001602081905260408220908101548154919291829161050291610aef565b8411156105f7576001830154835461051a9190610aef565b6105249085610aef565b91505f61053483855f01546108ba565b90506127106105438285610b02565b61054d9190610b19565b915082846002015f8282546105629190610b38565b9091555050335f9081526003602052604081208054859290610585908490610b38565b925050819055508260055f82825461059d9190610b38565b925050819055508160065f8282546105b59190610b38565b9091555050604080518381526020810183905233917f108516ddcf5ba43cea6bb2cd5ff6d59ac196c1c86ccb9178332b9dd72d1ca561910160405180910390a2505b83836001015f82825461060a9190610b38565b9091555050335f908152600260205260408120805486929061062d908490610aef565b9091555050426003840155600480548591905f9061064c908490610aef565b909155505f905061065d8286610aef565b604080518781526020810186905290810184905290915033907f02f25270a4d87bea75db541cdfe559334a275b4a233520ed6c0a2429667cca949060600160405180910390a2505050506106bd60015f80516020610b4c83398151915255565b50565b6001600160a01b0381165f818152600160208181526040808420815160a081018352815480825294820154818501819052600280840154838601818152600386015460608601526004909501546080850152988852909452918520549051939592949293909290918215610748575f6107408260400151835f01516108ba565b92505061074c565b5f91505b5091939550919395565b6004546005546006545f80831561078b5760055461271060065461077a9190610b02565b6107849190610b19565b915061078f565b5f91505b50429091929394565b6107a0610997565b6107a95f6109c3565b565b6107b361097c565b5f81116107fc5760405162461bcd60e51b8152602060048201526017602482015276416d6f756e74206d75737420626520706f73697469766560481b6044820152606401610480565b335f90815260016020526040812080549091839183919061081e908490610b38565b9091555050335f9081526002602052604081208054849290610841908490610b38565b909155505060048101545f03610858574260048201555b8160045f8282546108699190610b38565b909155505060405182815233907fe1fffcc4923d04b559f4d29a8bfc6cda04eb5b0d3c460751c2402c5c5cc9109c9060200160405180910390a2506106bd60015f80516020610b4c83398151915255565b5f815f036108cb57506103e861093c565b5f826108d985612710610b02565b6108e39190610b19565b90506101f481116108f9576103e891505061093c565b6103e8811161090d576105dc91505061093c565b6107d08111610921576107d091505061093c565b610bb88111610935576109c491505061093c565b610bb89150505b92915050565b61094a610997565b6001600160a01b03811661097357604051631e4fbdf760e01b81525f6004820152602401610480565b6106bd816109c3565b610984610a12565b60025f80516020610b4c83398151915255565b5f546001600160a01b031633146107a95760405163118cdaa760e01b8152336004820152602401610480565b5f80546001600160a01b038381166001600160a01b0319831681178455604051919092169283917f8be0079c531659141344cd1fd0a4f28419497f9722a3daafe3b4186f6b6457e09190a35050565b5f80516020610b4c833981519152546002036107a957604051633ee5aeb560e01b815260040160405180910390fd5b80356001600160a01b0381168114610a57575f80fd5b919050565b5f60208284031215610a6c575f80fd5b610a7582610a41565b9392505050565b5f8060408385031215610a8d575f80fd5b610a9683610a41565b946020939093013593505050565b5f60208284031215610ab4575f80fd5b5035919050565b5f8060408385031215610acc575f80fd5b50508035926020909101359150565b634e487b7160e01b5f52601160045260245ffd5b8181038181111561093c5761093c610adb565b808202811582820484141761093c5761093c610adb565b5f82610b3357634e487b7160e01b5f52601260045260245ffd5b500490565b8082018082111561093c5761093c610adb56fe9b779b17422d0df92223018b32b4d1fa46e071723d6817e2486d003becc55f00a164736f6c6343000819000a","linkReferences":{}},"methodIdentifiers":{"BASE_FEE_TIER_1()":"10128cae","BASE_FEE_TIER_2()":"e05cd14e","BASE_FEE_TIER_3()":"86aebad2","BASE_FEE_TIER_4()":"ddd429b1","BASE_FEE_TIER_5()":"5370aca2","FEE_DENOMINATOR()":"d73792a9","PROFIT_THRESHOLD_1()":"f45d0a98","PROFIT_THRESHOLD_2()":"21c0efa0","PROFIT_THRESHOLD_3()":"ca7e4ed1","PROFIT_THRESHOLD_4()":"099f89b4","calculateDynamicFeeRate(uint256,uint256)":"e7629e87","deposit(uint256)":"b6b55f25","estimateWithdrawalFee(address,uint256)":"1be90909","getGlobalStats()":"6b4169c3","getUserStats(address)":"4e43603a","owner()":"8da5cb5b","renounceOwnership()":"715018a6","totalAUM()":"de5f654c","totalFeesCollected()":"60c6d8ae","totalProfitsGenerated()":"6553f210","transferOwnership(address)":"f2fde38b","userDeposits(address)":"0ba36dcd","userPerformances(address)":"36fc5d9a","userProfits(address)":"be354836","withdraw(uint256)":"2e1a7d4d"},"id":0}